:020000040800F2
:100000000050002045030008410300084103000898
:1000100041030008410300084103000800000000FC
:100020000000000000000000000000004103000884
:1000300041030008000000004103000841030008DC
:100040004103000841030008410300084103000880
:100050004103000841030008410300084103000870
:1000600041030008394B0008410300084103000820
:100070004103000841030008410300084103000850
:100080004103000841030008410300084103000840
:100090005D10000841030008410300084103000807
:1000A0004103000841030008410300084103000820
:1000B0004103000841030008410300084103000810
:1000C0004103000841030008410300084103000800
:1000D000410300084D64000805670008410300085B
:1000E000410300084103000841030008000000002C
:1000F0000000000000000000000000000000000000
:1001000000000000000000005FF808F110B5054C89
:10011000237833B9044B13B10448AFF300800123B3
:10012000237010BD7801002000000000D4BA000840
:10013000084B10B51BB108490848AFF300800848C8
:10014000036803B910BD074B002BFBD0BDE810407E
:10015000184700BF000000007C010020D4BA00084E
:100160007001002000000000154B002B08BF134B4E
:100170009D46A3F5803A00218B460F461348144A4A
:10018000121A07F077FF0F4B002B00D098470E4B49
:10019000002B00D098470020002104000D000D48DE
:1001A000002802D00C48AFF3008007F02DFF20009C
:1001B000290004F0F7FE07F013FF00BF000008005D
:1001C0000000000000000000000000007801002096
:1001D000C01300200000000000000000384B82B077
:1001E0001A6842F001021A605968364A0A405A6099
:1001F0001A6822F0847222F480321A601A6822F49B
:1002000080221A605A6822F4FE025A604FF41F02DC
:100210009A600022009201921A6842F480321A60B9
:100220001A6802F400320192009A01320092019A97
:100230001AB9009AB2F5A06FF2D11A6812F400321E
:1002400018BF01220192019A012A05D01E4B4FF0DE
:1002500000629A6002B070471C4A116841F01001B8
:100260001160116821F003011160116841F0020171
:1002700011605A685A605A685A605A6842F480623B
:100280005A605A6822F47C125A605A6842F4E812A2
:100290005A601A6842F080721A601968084A890127
:1002A000FBD5516821F003015160516841F0020112
:1002B00051605A6802F00C02082AFAD1C6E700BF62
:1002C000001002400000FFF800ED00E000200240B6
:1002D000114A124B516801F00C01042901D0082980
:1002E00001D00F490EE051685068C1F38341C0034B
:1002F00001F1020102D55068800301D5094800E0F0
:1003000007484143196052680749C2F30312895CE8
:100310001A68CA401A60704700100240140000209A
:1003200000127A0000093D000400002038B50446A0
:100330000D46AC4203D254F8043B9847F9E738BD68
:10034000FEE7000008B5104A104B11498B4204D259
:1003500052F8040F43F8040BF8E7124812494FF023
:1003600000028842B8BF40F8042BFADBFFF736FFE3
:1003700008490948FFF7DAFF08490948FFF7D6FF9F
:10038000BDE8084004F00EBEDCBA00080000002002
:1003900070010020C4BA0008C4BA0008D0BA00082E
:1003A000C4BA000878010020C013002040F0BF60EC
:1003B000024B40F40030D860704700BF00ED00E011
:1003C000C27810B503780AB3164A03F16043D168C6
:1003D0004278C943C1F30221C1F1040402FA04F4D2
:1003E0000F22CA40817803F561430A40224312017B
:1003F000D2B283F8002303780122590903F01F03C6
:1004000002FA03F3084A42F8213010BD5A090121CB
:1004100003F01F0301FA03F30349203241F82230AD
:1004200010BD00BF00ED00E000E100E021F0604100
:1004300021F07F01014B08439860704700ED00E018
:10044000044B1A6909B1104301E022EA0000186167
:10045000704700BF00ED00E0044B04281A680CBF91
:1004600042F0040222F004021A60704710E000E03B
:10047000044B00221A605A609A60DA60024A5A619C
:10048000704700BF00040140FFFF0F00827970B584
:100490000168037942B3CE43184A03F180431568DB
:1004A00003F58233354015605468344054601C684D
:1004B0002143196001689468CD432C409460D3684F
:1004C0002B40D3604379102B06D193680B43936084
:1004D000D3681943D16070BD03F1804303F58233C3
:1004E0001A681143196070BD03F1804303F582332C
:1004F0001A6822EA01021A6070BD00BF00040140C0
:1005000000230C2203600371427183717047000065
:10051000024A136918431061704700BF000401408C
:10052000034B5B69034214BF01200020704700BFEA
:1005300000040140014B5861704700BF00040140B6
:10054000054B1A685B69034004D0024214BF0120C6
:10055000002070471846704700040140014B586165
:10056000704700BF0004014008B5264B984206D1F1
:100570000121042000F09EFA002104203CE0224BDF
:10058000984206D10121082000F094FA00210820A9
:1005900032E01E4B984206D10121102000F08AFA69
:1005A0000021102028E01A4B984206D1012120207A
:1005B00000F080FA002120201EE0164B984206D160
:1005C0000121402000F076FA0021402014E0124B77
:1005D000984206D10121802000F06CFA0021802091
:1005E0000AE00E4B98420BD101214FF4807000F0CD
:1005F00061FA00214FF48070BDE8084000F05ABA5B
:1006000008BD00BF00080140000C0140001001407F
:100610000014014000180140001C0140002001406E
:1006200008B50121084600F045FABDE80840002160
:10063000012000F03FBACA782DE9F041D40648BF46
:100640008C780E8802F00F0348BF234316F0FF0F8B
:100650001ED0016800244FF0010E4FF00F0C0EFA6F
:1006600004F737EA06050FD1A5000CFA05F821EAD0
:10067000080103FA05F5282A41EA050101D147617D
:1006800002E0482A08BF07610134082CE7D1016065
:10069000FF2E20D9416800244FF0010E4FF00F0CBF
:1006A00004F108050EFA05F535EA06070FD1A70093
:1006B0000CFA07F821EA080103FA07F7282A41EAA9
:1006C000070101D1456102E0482A08BF05610134F4
:1006D000082CE5D14160BDE8F0814FF6FF7303803F
:1006E000022383700423C37070478368194214BFC8
:1006F000012000207047806880B27047C3681942AB
:1007000014BF012000207047C06880B270470161AB
:100710007047416170470AB101617047416170479C
:10072000C160704741F48033836181618361836973
:1007300083697047054A136823F07F031B041B0C71
:10074000194341EA00101060704700BF00000140EB
:10075000014B1860704700BF1C0020420028164A59
:1007600030B500F44015B4BFD3695368B5F5401FE8
:1007700084B206D1556823F0706325F0706555602A
:100780000EE0C20255BF420D03221201C0F3034521
:100790004CBFAA4004FA02F223EA020343F070635A
:1007A00019B1420D120194402343034A0028B4BFFB
:1007B000D361536030BD00BF0000014001F003036E
:1007C00001F0FC0101F1804101F5803110B59B0081
:1007D0008C680F229A4024EA02028A608A68984054
:1007E0001043886010BD0000014B1860704700BFC7
:1007F000DC002042014B1860704700BF0030004011
:10080000014B5860704700BF00300040014B9860BA
:10081000704700BF003000404AF6AA22014B1A6020
:10082000704700BF003000404CF6CC42014B1A60CC
:10083000704700BF00300040034BDB68184214BF14
:1008400001200020704700BF003000400D4B1A68A7
:1008500042F001021A6059680B4A0A405A601A684D
:1008600022F0847222F480321A601A6822F4802204
:100870001A605A6822F4FE025A604FF41F029A600E
:10088000704700BF001002400000FFF80C4BB0F5AD
:10089000803F1A6822F480321A601A6822F480229B
:1008A0001A6003D0B0F5802F04D070471A6842F464
:1008B000803202E01A6842F4A0221A60704700BF3A
:1008C00000100240034A136823F0F80343EAC00013
:1008D0001060704700100240014B1860704700BF65
:1008E00000004242034A536823F47C13194308432F
:1008F0005060704700100240014B1860704700BF05
:1009000060004242034A536823F0030318435060D7
:10091000704700BF00100240024B586800F00C0006
:10092000704700BF00100240034A536823F0F003F1
:1009300018435060704700BF00100240034A5368DC
:1009400023F4E06318435060704700BF001002407A
:10095000034A536823F4605343EAC0005060704771
:1009600000100240044B1A7809B1104301E022EA5A
:1009700000001870704700BF09100240014B18605A
:10098000704700BFD8004242034A536823F44043F3
:1009900018435060704700BF00100240064B002211
:1009A00001281A701A7002D0042802D070471870FB
:1009B000704705221A70704720100240014B1860E2
:1009C000704700BF80044242024A136A1843106213
:1009D000704700BF00100240014B1860704700BF15
:1009E0003C0442421C4A10B5536803F00C03042B2C
:1009F00001D0082B01D0194B0EE053685168C3F3A6
:100A00008343CC0303F1020302D55168890301D566
:100A1000134900E011494B4303605368114CC3F381
:100A20000313E15C0368CB4043605168C1F30221CA
:100A3000615C23FA01F181605168C1F3C221615CFC
:100A4000CB40C36052680849C2F381328A5CB3FB71
:100A5000F2F3036110BD00BF0010024000127A00E3
:100A600000093D001C00002018000020044B5A69BA
:100A700009B1104301E022EA00005861704700BF4D
:100A800000100240044B9A6909B1104301E022EAC8
:100A900000009861704700BF00100240044BDA6903
:100AA00009B1104301E022EA0000D861704700BF9D
:100AB00000100240044BDA6809B1104301E022EA59
:100AC0000000D860704700BF00100240044B1A6954
:100AD00009B1104301E022EA00001861704700BF2D
:100AE00000100240014B1860704700BF40044242B2
:100AF000014B1860704700BF4C004242014B187018
:100B0000704700BF071002404209012A074B01D17C
:100B10001B6803E0022A0CBF1B6A5B6A00F01F001F
:100B200023FA00F000F00100704700BF00100240FF
:100B300007B5002301933120FFF7E6FF019B013346
:100B40000193019BB3F5A06F01D00028F3D03120B1
:100B5000FFF7DAFF003018BF012003B05DF804FB97
:100B6000024A536A43F08073536270470010024098
:100B7000034B9B68184214BF01200020704700BF40
:100B800000100240014B1870704700BF0A1002406D
:100B900008B5214B98420BD101214FF48040FFF75B
:100BA00089FFBDE8084000214FF48040FFF782BF75
:100BB0001A4B984208D101214FF40030FFF786FF0D
:100BC00000214FF4003022E0154B984208D101215A
:100BD0004FF48020FFF77AFF00214FF4802016E0C9
:100BE000104B984208D101214FF40020FFF76EFF0F
:100BF00000214FF400200AE00B4B98420BD1012159
:100C00004FF48010FFF762FF00214FF48010BDE821
:100C10000840FFF75BBF08BD0038014000440040BA
:100C200000480040004C00400050004070B50E46A7
:100C30000446038ACA889BB223F4405313430382B9
:100C400082898988338992B20B43718922F4B05228
:100C50000B4322F00C0213439BB28381838AB28937
:100C60009BB223F4407386B01343838201A8FFF73D
:100C7000B9FE174A039B049D3168944218BF1D4674
:100C800019226A43A389642613F4004F14BF4D0050
:100C90008D00B2FBF5F5B5FBF6F0A2890001010964
:100CA000120406FB115307D5D9003231B1FBF6F21D
:100CB00002F00702104306E01A013232B2FBF6F3EB
:100CC00003F00F03184380B2208106B070BD00BF4F
:100CD000003801404FF4165303600C220023838038
:100CE000C38003814281838170474B8810B50C8893
:100CF000028A23438C88C98892B223430B4322F48F
:100D0000706213439BB2038210BD002303804380B3
:100D10008380C3807047838919B19BB243F4005329
:100D200003E023F400531B041B0C83817047012351
:100D300010B5C1F342149C4201F01F0103FA01F106
:100D400001D10C3003E0022C0CBF103014300368CA
:100D50000AB1194301E023EA0101016010BD838A51
:100D60009BB20AB1194301E023EA01018182704775
:100D7000038A23F00F031B041B0C0382038A9BB21C
:100D8000194301827047838923F400631B041B0C01
:100D9000838183899BB2194381817047838919B10B
:100DA0009BB243F0020303E023F002031B041B0C7D
:100DB00083817047038A23F020031B041B0C0382EA
:100DC000038A9BB2194301827047038A19B19BB20F
:100DD00043F4804303E023F480431B041B0C038291
:100DE0007047C1F30801818070478088C0F3080014
:100DF000704783899BB243F0010383817047038B63
:100E0000DBB20383038B9BB243EA0121018370476A
:100E1000038B03F47F430383038B9BB2194301834A
:100E20007047838A19B19BB243F0200303E023F09B
:100E300020031B041B0C83827047838A19B19BB269
:100E400043F0100303E023F010031B041B0C838208
:100E50007047838A19B19BB243F0080303E023F083
:100E600008031B041B0C83827047838929B16FEA36
:100E700043436FEA53439BB201E0C3F30E03838104
:100E80007047838A19B19BB243F4006303E023F4F3
:100E900000631B041B0C83827047838A23F00403C6
:100EA0001B041B0C8382838A9BB219438182704787
:100EB000838A19B19BB243F0020303E023F00203DB
:100EC0001B041B0C838270470388194214BF012046
:100ED00000207047C94389B201807047012310B5D3
:100EE000C1F3421401F01F029C4203FA02F201D145
:100EF000838903E0022C0CBF038A838A9BB21340D0
:100F0000028892B243B10123090A03FA01F10A42AD
:100F100014BF1846002010BD184610BD090A012351
:100F200003FA01F1C94389B20180704748F2800297
:100F300010B5094C236823F4804323F07003134356
:100F400058402060236823F4E04323F040031A4311
:100F50005140216010BD00BF005C0040294B0728B4
:100F600018BF18701A78052A49D8DFE802F0031371
:100F70001E222A354FF6FB71234A106C0140116482
:100F80004FF43F41116406221A70204B1B685A7BB4
:100F90001A7370474FF6FB711B4A106C01401164C5
:100FA0004FF43F41116404222AE002225A700322C6
:100FB00026E05A78013AD2B25A705B780BBB042211
:100FC0001BE011490A6C92B242F010020A64052239
:100FD0001A700A225A7070475A78013AD2B25A707F
:100FE0005B7873B94FF6EF73074A116C0B401364CB
:100FF000064B1B685A7B1A730622024B00E006223E
:101000001A70704784130020005C00402C00002000
:1010100070B5044615460E464FF400000121FFF757
:101020003DFD084A084B09491A60094B09480B6005
:101030000949666008600221A56011721B68BDE85D
:101040007040184794130020B41300208C13002024
:10105000A0000020D0000020B01300202DE9F843AC
:101060005F4D604A2B68546C1B68A4B203F4806324
:10107000234206D06FF4806353645B4B1B685B684C
:1010800098472B681B682340590442BF554A6FF4A8
:10109000804151649A0442BF524A6FF40051516436
:1010A000DF0406D54F4B6FF4C0525A640020FFF79F
:1010B00055FF28680268224016050FD549490B6C78
:1010C0009BB243F0080643F00C030E640B64037BF1
:1010D0004373032303736FF4C0534B64910542BF02
:1010E000404B6FF400715964D20506D53D4B6FF447
:1010F00080725A640720FFF731FF2B681B6803F4E6
:10110000004323426AD0DFF8DC906FF40048D9F83E
:101110004470344C3B0461D517F00F06C9F8448085
:1011200037D148F68003D9F800603340002BEED069
:10113000B3B2DFF8BC802D4D03F44052202103F000
:1011400030034FF40050A8F800202B80FFF7EEFE8C
:10115000FB06226801D5370606D548F60F73134003
:10116000236000F0A1FF0BE040F68F73300503EA27
:101170000203236002D500F095FD01E000F00EFFB0
:10118000B8F80000298880B289B2BDE8F843FFF7BB
:10119000CDBEB40004F1804404F5B8442768390496
:1011A0000CD540F68F73226813402A68236092683A
:1011B00006F18043013B52F8233098473A06A6D502
:1011C00048F60F73226806F18046134023602B68AF
:1011D000013E5B6853F82630984798E7BDE8F883EE
:1011E0002C000020005C00408C13002082130020A3
:1011F00080130020800000F1804000F5B8400368B3
:1012000023F4804323F0700343F4004343F080034E
:10121000594001607047000018B9034B07221B6852
:101220001A820248704700BFB413002080000020DB
:1012300037B5114B1A681C46127802F07F02212A3A
:1012400001D0022016E0A0F12003012B0B4B0C4D26
:101250001B6888BF002523B102A901F8010D0220F7
:101260009847002DEDD0236800249D615C822046C4
:10127000A847204603B030BDB4130020A8030020C7
:101280001912000813B5104B1A68137803F07F0386
:10129000212B14D1022808D0222801D0022405E0F5
:1012A000D3780A4A03F0030313700024084B1B6829
:1012B00033B102A901F8010D0220984700E0022491
:1012C000204602B010BD00BFB413002094010020DE
:1012D000A803002021B901288CBF022000207047FC
:1012E00002207047044B1B689B7A1BB1034B0522FD
:1012F0001B681A73704700BFB41300202C00002035
:10130000024B04221B681A73704700BF2C00002098
:10131000054B1B68DB78032B04D8044901EBC301A0
:1013200000F092BC00207047B41300208800002019
:10133000014900F089BC00BF40000020014900F0D5
:1013400083BC00BFF4000020124B37B51B6800249B
:10135000114D9C72114B286801224FF4E0511A6420
:101360001C645C6419644FF43F415C64016019645F
:1013700014238DF8043001A80F238DF805308DF863
:1013800006308DF80720FFF71BF82B681C7303B09D
:1013900030BD00BFB41300202C000020005C0040D2
:1013A0001A491B4A0B68106D02F23C4240002DE9BD
:1013B000F0411458002216460846164D164FC4F345
:1013C0000904A2420CD2D10756BF2978310A2E88CF
:1013D000F95403F1010358BF0435DBB20132F0E7E1
:1013E0000E4A036012689B1ADBB2BF2B04D84FF47D
:1013F00040510320FFF7FEFE094B1B6823B1BDE8F7
:10140000F041002101201847BDE8F081A002002032
:10141000005C004020620040A4020020A4030020E1
:101420009C0200202049214B0A681B68F0B59B1ADA
:1014300013F0FF030C461E4905D10A78013A52B257
:101440000A70FAB1F0BD0120087000200646402B5A
:10145000184D194F28BF402398420FDAB95C10F09D
:10146000010FC9B202F101021CBF46EA0121296045
:10147000D2B20CBF8EB204350130EDE7D90748BFB8
:101480002E6022600D4A0E49106D40000B505368CB
:1014900023F4E04323F0400343F4004343F080038C
:1014A00083F030035360F0BDAC03002098020020AD
:1014B000950100208061004096010020005C004002
:1014C0001460004070B5104A104C136824681C1B4F
:1014D000E4B2C4F1FF048C4228BF0C4694B10C4E18
:1014E00000218DB2A54201F1010104D2455DF55400
:1014F0000133DBB2F5E71360064B1B781B0601D501
:10150000FFF790FF204670BD98020020AC0300203A
:1015100096010020950100202DE9F84348F68F162A
:1015200048F28007474B484C1B6800254FF0C00825
:101530009D7283F80980256523684FF04009334088
:1015400043F4007323602368284623F4E04323F028
:1015500040033B4383F010032360226D3B4B52005A
:1015600043F80290236D80225B0003F1804303F572
:10157000C0431A60236823F4E24323F070031B0482
:101580001B0C2360324B1B6893F82C1001F050F9B0
:101590004FF440512846FFF72DFEA36829463340FB
:1015A00043F4C063A360226D2A4B520013444FF4EE
:1015B00080721A60A368022023F4E04323F0400302
:1015C0003B4383F02003A360FFF714FEE368494622
:1015D0003340E360226D204B520013444FF4887275
:1015E0001A60032001F024F94FF440510320FFF763
:1015F00001FE636829461E406660226D174B52004B
:1016000043F802806368012023F4E04323F04003A1
:101610001F4387F020076760FFF7ECFD104B0122A6
:101620001B6828461A7300F01FFD0E4BFF221D6039
:101630000D4B1D600D4B1D600D4B1D600D4B1A7049
:10164000BDE8F883B4130020005C0040086000404F
:101650008C13002020600040386000401060004083
:101660002C000020A0020020A403002098020020EB
:10167000AC03002095010020C20744BF034B196052
:10168000830744BF024B1960704700BF9C020020D3
:10169000A803002037B504460D4608200121FFF7B6
:1016A000F1F901A8FFF719F803238DF8063001A915
:1016B000102320468DF80730ADF80450FEF7BBFF2D
:1016C000294620460022FFF726F8044B044A054924
:1016D0001868FFF79DFC03B030BD00BF2C00002050
:1016E000640000204800002037B504460D4614234E
:1016F0008DF804300F238DF805308DF8063001A8E1
:1017000000238DF80730FEF75BFE012229462046B4
:10171000FFF701F803B030BD13B502AC04F8010DBA
:1017200001212046FFF7CEFE0028F9D002B010BDFF
:1017300009B1FFF7C7BE084670470000034A044BD3
:101740001B681068181AC0B2704700BFA4030020BD
:10175000A0020020034A13785BB2002BCCBF1078A4
:101760000020704795010020034A044B1B68106855
:10177000181AC0B2704700BFAC03002098020020C6
:101780000B4B30B51A680B4B0B4D1B689B1ADBB229
:10179000994228BF194603461C1AA14205DDAC5CDC
:1017A000013203F8014BD2B2F6E7084630BD00BF64
:1017B000A4030020A0020020A402002010B5FFF71F
:1017C000DFFF094A044613680344DBB21360074A8B
:1017D0001268D31ADBB2402B04D84FF440510320D7
:1017E000FFF708FD204610BDA4030020A002002042
:1017F0000C4B30B51B680C4C0B442468DBB2E41A6C
:101800008D18E4B2AC4238BF621A0146074D0C1A7B
:10181000A24205DDEC5C013301F8014BDBB2F6E7D7
:10182000104630BDA4030020A0020020A402002026
:1018300008B5FFF783FF28B1044B054A1B68D05C4D
:10184000C0B208BD4FF0FF3008BD00BFA4030020A8
:10185000A4020020024B187800F00100704700BF7E
:1018600094010020024B1878C0F34000704700BF7D
:1018700094010020044B1A6802601A7902715A79A7
:1018800042719B798371704780000020014B18687A
:10189000704700BF80000020014B1879704700BFDF
:1018A00080000020014B5879704700BF8000002065
:1018B000014B9879704700BF8000002010B5064C9E
:1018C00018B9236801221A8210BD044B1B681B68DB
:1018D000984720680A3010BDB4130020B0130020D0
:1018E00010B5064C18B9236801221A8210BD044BAA
:1018F0001B689B68984720680C3010BDB41300200B
:10190000B013002010B5204A18B9136802221A82B9
:1019100010BD1E481468002303802178024611F090
:101920007F010DD1637A990644BF0221017013F043
:10193000400F037814BF43F0010323F0010314E0C8
:10194000012920D002291DD1617901F00F039B00EC
:1019500003F1804303F5B84311F0800F1B6806D0F4
:1019600003F03003102B07D10123137004E003F4BC
:101970004053B3F5805FF6E7054B1B681B6998473A
:10198000024810BD184610BDB41300208613002075
:10199000B01300202DE9F843234FDFF8A0803C6806
:1019A000238ABBB9267A042E14D120480278012A52
:1019B0000BD11F4A11681F4A89B20A4452001360B2
:1019C0003022A8F80020037029E01023A8F8003086
:1019D000072624E0A58AAB4294BF042602269D4236
:1019E00028BF1D46A369284698478146002000F07D
:1019F000EDFD2A460146484600F0A0FB294600209E
:101A000000F054FD238A4FF440525B1B2382638A0B
:101A10001D443023A8F80030074B65821A803B68CC
:101A20001E72BDE8F88300BFB4130020B00300208D
:101A3000505C004002300020801300208213002000
:101A400010B50A4B0A491B684978DA7891420AD3E3
:101A5000997841B99C8834B99A72064B1B685B68C7
:101A60009847204610BD022010BD00BFB4130020CF
:101A7000FC000020B013002038B50E4A0E4D12684D
:101A80002B689269D978587990472B689A7A7AB1FD
:101A900070B91A7962B99C7854B9084B1B68DB6835
:101AA00098472B6820465A79DA72DA781A7338BD6B
:101AB000022038BD8C130020B4130020B013002086
:101AC00038B5314B1B68187810F07F0004D15A7A72
:101AD00022F020025A7238BD022853D15A88002AB7
:101AE00051D11A79002A4ED15979284D21F0800020
:101AF000840004F1804202F5B84212682D7811F09A
:101B0000800F14BF02F0300202F44052A84239D2D2
:101B1000002A37D09B7A002B34D004F1804404F59E
:101B2000B8440A0623680CD503F03003102B23D1E8
:101B3000C4B2204600F08DFC3021204600F080FB2E
:101B40001AE003F44053B3F5805F15D128B9104B68
:101B500093F82C1000F0CCFC01E000F068FC236846
:101B600023F4804323F070039BB283F4405343F487
:101B7000004343F080032360064B1B685B69984772
:101B8000002038BD022038BDB4130020FC00002026
:101B9000A0000020B013002038B51F4B1F4D18685F
:101BA0002D78417921F08004A30003F1804202F5F1
:101BB000B842126811F0800F14BF02F0300202F434
:101BC0004052AC4225D244881CBB12B3827A02B385
:101BD00003F1804303F5B8431A6809064BBF22F4AA
:101BE000E04222F4804222F0400222F070024BBF19
:101BF00092B292B282F0100282F4805242F4004219
:101C000042F080021A60064B1B689B6998470020CF
:101C100038BD022038BD00BFB4130020FC000020F6
:101C2000B013002008B5064B1A68537A43F020031E
:101C30005372044B1B68DB699847002008BD00BF46
:101C4000B4130020B0130020054B10B51C68628A45
:101C500018B98B889B1A238210BD0868104410BDE8
:101C6000B413002008B50B4B002093F82C1000F0A3
:101C70003FFC094B1B68187A082806D1074B4FF424
:101C800080521A80064B10221A80A0F10903584294
:101C9000584108BDA0000020B4130020801300208C
:101CA00082130020F7B59D4D9D4E2F6832683B7A18
:101CB000092B19D09B4B92B213445B001C88640023
:101CC00004F1804404F5C04423783B7063787B7052
:101CD000A08800F0A7FD788020892F6800F0A2FD81
:101CE000B880A2892B68DA802B6801221A72DA8800
:101CF0005C78002A56D11A7812F07F0238D1092C6C
:101D000002D1FFF79DFE42E0052C10D193F903208C
:101D1000002A01DA082342E09A78002AFAD19A8848
:101D2000002AF7D19B7A002B00F01281F2E7032CF6
:101D300010D1DA78012A07D07B4B20461B685B69FB
:101D40009847032827D129E09B88002BF4D1FFF77F
:101D500069FF1CE0012CEFD1DA78012AECD19A88D6
:101D6000002AE9D15B7A9906E6D5FFF7A9FE0EE0D5
:101D7000012A04D10B2CDFD1FFF77EFE07E0022AF7
:101D8000DAD1012CF1D0032CD6D1FFF705FF0028C2
:101D900000F0DE80D0E70028BCD1D9E009232A6812
:101DA0001372D1E0062C15D11A78520640F0DE806D
:101DB0009A785D4B012A02D11B68DB6972E0022A26
:101DC00002D11B681B6A6DE0032A40F0CF801B68BC
:101DD0005B6A67E0002C41D15988002940F0C68039
:101DE0005A6822F47F42B2F5003F40F0BF801A7873
:101DF00012F07F0204D19B88002B00F0B580B5E083
:101E0000012A0BD1484A58791268926990470028F4
:101E100040F0AC80414B1B689B7A1BE0022A40F0EB
:101E2000A5805A79414802F00F018B0003F18043ED
:101E300003F5B8431B68007812F0800F14BF03F05D
:101E4000300303F44053814280F0908012F0700F11
:101E500040F08C80002B40F0878087E0082C05D173
:101E60001B785B0640F08280314B1DE00A2C7DD14F
:101E70001A7802F07F02012A78D19A7A002A75D066
:101E80005988002972D15A6822F47F42B2F5803F06
:101E90006CD1254A5879126892699047002865D11B
:101EA000244B01E0002B61D02A6800245482936106
:101EB0002046984720464FF6FF712B681A8A8A42BF
:101EC00001D1092203E0022800D012B908221A72B7
:101ED0003AE093F90010002930DAD988124C0191C8
:101EE0000198824202D9019A1A8210E08A420ED2E7
:101EF000216891F82C00824201D2002105E092FB7A
:101F0000F0F100FB112212B901210B4A1170226875
:101F100092F82C209A82FFF73DFD15E0B4130020C3
:101F2000505C0040043000208C130020FC00002096
:101F3000BD180008E1180008B003002003221A723F
:101F4000104B4FF440521A80FFF78CFE03B0F0BDE7
:101F500032680D4B92B213445B0000221A600B4BA7
:101F600030221A8006231AE7094B9DE7094B2A689D
:101F70001B6850781B69984703289CD1064B1B6847
:101F80009FE700BF80130020023000208213002052
:101F9000051900088C130020B4130020F8B52C4D4F
:101FA0002C68237A022B4BD0042B49D0032B01D071
:101FB000052B3FD1A169268AA9B1A6B1A38A9E4269
:101FC00028BF1E4630468847238A07469B1B23822C
:101FD000638A00203344638200F008FB32460146E6
:101FE000384600F0BDF8238A53B11A4B00214FF454
:101FF000405208461A8000F059FA174B30221A80D6
:10200000A38A228A93422B6801D8032201E012B1ED
:1020100005221A720BE006211972104B1968104B39
:1020200089B20B445B001A600B4B30221A802B687C
:102030001B7A06E0072B03D10A4B1B68DB68984725
:1020400008232A681372BDE8F840FFF70BBE00BFF3
:10205000B41300208013002082130020505C004045
:10206000023000208C13002030B50D4B00221D786B
:10207000AA4210D240F60F7402F1805303F5B85310
:102080009B0019680C4042F4004141F0800121435B
:1020900019600132ECE7034B40F08000186030BD5E
:1020A000FC0000204C5C004010B5134C23681A7AE9
:1020B000022A01D0042A04D1FFF76CFC23681B7AA2
:1020C00013E0062A10D15A78052A09D11A78520647
:1020D00006D1D878FFF7C8FF084B1B681B6A9847E2
:1020E000074B1B689B689847082322681372BDE85A
:1020F0001040FFF7B7BD00BFB4130020B01300209D
:102100008C13002070470000064B074A07491360F4
:1021100002221A72064B074A1360074A1B681160B5
:10212000184700BF94130020B4130020D0000020F3
:10213000A00000208C130020B013002010B501F186
:102140000051013201F540515210490000239A42DA
:1021500005D030F8024B21F823400133F7E710BDDA
:1021600010B501F10051013201F540515210490002
:1021700000239A4205D051F8234020F81340013340
:10218000F7E710BD014B1860704700BF405C00408E
:10219000014B186880B27047405C0040014B1860EA
:1021A000704700BF445C0040014B186880B2704724
:1021B000445C0040014B186880B27047485C0040A6
:1021C000014B1860704700BF4C5C0040014B186821
:1021D00080B270474C5C00404FF6F873014A0340F0
:1021E00013607047505C0040014B186880B2704724
:1021F000505C0040800000F1804000F5B840016074
:102200007047800000F1804000F5B840006880B25F
:102210007047800000F1804000F5B840036823F467
:10222000EC4323F07003194389B2016070478000CA
:1022300000F1804000F5B840006800F4C0607047CD
:10224000800000F1804000F5B8400368CA0623F41E
:10225000E04323F040039BB248BF83F010038A069B
:1022600048BF83F0200343F4004343F0800303603E
:102270007047800000F1804000F5B8400368CA0450
:1022800023F4804323F070039BB248BF83F4805350
:102290008A0448BF83F4005343F4004343F08003AF
:1022A00003607047800000F1804000F5B8400129CC
:1022B000026802D14EF6FF7303E0022903D14FF604
:1022C000EF73134003607047800000F1804000F519
:1022D000B840006800F030007047800000F1804096
:1022E00000F5B840006800F440507047800000F1ED
:1022F000804000F5B840036823F4E04323F0400336
:102300009BB283F0300343F4004343F08003036047
:102310007047800000F1804000F5B840036823F466
:10232000804323F070039BB283F4405343F4004393
:1023300043F080030360704740F60F63800000F1B4
:10234000804000F5B8400268134043F4014343F075
:10235000800303607047FFF7EFBFFFF7EDBF80001A
:1023600000F1804000F5B840036823F4F8731B05C2
:102370001B0D43F4004343F0800303607047FFF7F5
:10238000EEBFFFF7ECBF800000F1804000F5B840E1
:10239000006800F03000A0F1100358425841704727
:1023A000800000F1804000F5B840006800F4405023
:1023B000A0F58053584258417047800000F180409A
:1023C00000F5B840036823F070031B051B0D036084
:1023D0007047800000F1804000F5B840036823F4A6
:1023E000E14323F070031B041B0C03607047800063
:1023F00000F1804000F5B840036823F0F0031B05AE
:102400001B0D43F4404343F080030360704780009A
:1024100000F1804000F5B840036823F0F0031B058D
:102420001B0D43F4004343F0C0030360704780007A
:1024300000F1804000F5B84003685B0408D540F621
:102440000F730268134043F4404343F0800303607A
:102450007047800000F1804000F5B84003685B06DB
:1024600008D540F60F730268134043F4004343F06D
:10247000C00303607047800000F1804000F5B84061
:10248000036841F4004123F0F0031B051B0D41F0EC
:102490008001194301607047800000F1804000F521
:1024A000B840006800F00F0070470000044B1B6844
:1024B0009BB203EBC000034B03445B001960704701
:1024C000505C0040023000203E2909D94B09C90662
:1024D00004BF03F1FF339BB29B0243F4004304E0CB
:1024E0004B08CA0748BF01339B02036070470000D6
:1024F0000D4B3E291B689BB203EBC0000B4B034402
:102500004FEA430209D94B09C80604BF03F1FF3360
:102510009BB29B0243F4004304E04B08C90748BF49
:1025200001339B0213607047505C0040063000206E
:1025300010B50B4CC000236849089BB2034403F15B
:10254000005303F540535B004900196023685208AB
:102550009BB21844034B520003445B001A6010BD49
:10256000505C004004300020064B49081B684900BD
:102570009BB203EBC00000F1005000F5405040005A
:1025800001607047505C0040FFF7EEBF054B490803
:102590001B6849009BB203EBC000034B03445B0084
:1025A00019607047505C004004300020FFF7EEBF18
:1025B000054B1B689BB203EBC00000F1005000F517
:1025C0004050400000887047505C0040FFF7F0BF6B
:1025D000044B1B689BB203EBC000034B03445B003E
:1025E00018887047505C004004300020FFF7F0BFAF
:1025F000012910B52FD1254CC0002168244B89B288
:1026000001440B443E2A4FEA43010AD9530912F010
:102610001F0F04BF03F1FF339BB29B0243F400433F
:1026200005E0530812F0010F18BF01339B020B6045
:1026300023683E2A9BB21844164B03444FEA4301D9
:102640001CD95309D00604BF03F1FF339BB29B0290
:1026500043F4004317E0022917D10C4CC000216855
:102660000B4B89B201440B445B001A6023689BB298
:102670001844084B03445B001A6010BD5308D2078E
:1026800048BF01339B020B6010BD10BD505C004081
:10269000023000200630002001291BD1134B3E2AB6
:1026A0001B689BB203EBC000114B03444FEA43018C
:1026B00009D95309D00604BF03F1FF339BB29B0233
:1026C00043F4004304E05308D20748BF01339B02A0
:1026D0000B607047022908D1044B1B689BB203EBC7
:1026E000C000034B03445B001A607047505C00401D
:1026F0000230002001291BD1134B3E2A1B689BB2DC
:1027000003EBC000114B03444FEA430109D95309BD
:10271000D00604BF03F1FF339BB29B0243F4004396
:1027200004E05308D20748BF01339B020B60704797
:10273000022908D1044B1B689BB203EBC000034B7A
:1027400003445B001A607047505C00400630002074
:10275000054B1B689BB203EBC000044B03445B00BA
:102760001868C0F309007047505C00400230002038
:10277000FFF7EEBF054B1B689BB203EBC000044B99
:1027800003445B001868C0F309007047505C0040C8
:1027900006300020FFF7EEBF0D49C0000B689BB26A
:1027A000C2180C4B13445B001B8813F47C4F0DD1F3
:1027B0000B689BB21844084B03445B001B88C3F3AF
:1027C0000903002B14BF022000207047012070472E
:1027D000505C0040063000200230002001290DD15D
:1027E00040F60F73800000F1804000F5B8400268A9
:1027F000134043F4004343F0C0030EE002290DD11F
:1028000040F60F73800000F1804000F5B840026888
:10281000134043F4404343F080030360704741EAB0
:1028200000207047C3B2000A40EA0320704700004E
:102830000D4B0E4A1B6D3E2903EBC0004FEA4000D2
:10284000024409D94B09C80604BF03F1FF339BB208
:102850009B0243F4004304E04B08C90748BF01331F
:102860009B021360704700BF005C00400C6000409A
:1028700038B5114D1F2429681048E14011F00101BD
:1028800018BF012102F09AFA0C4802F038FB01212E
:102890000A4802F08BFA094802F031FB0021074890
:1028A00002F084FA14F1FF34E5D200210348BDE8B8
:1028B000384002F083BA00BFB8030020740800203B
:1028C00010B5074C0121204602F08CFA204602F098
:1028D00016FB2046BDE81040002102F083BA00BF7D
:1028E0007408002010B50446FFF7C2FF1CB1BDE814
:1028F0001040FFF7E5BF10BD2DE9F34100238DF82F
:102900000730037A0446002B00F0918002F086FA2B
:10291000484B05461A68904200F08980464F18607F
:102920003B78002B33D0002836D1444A0DF1070103
:1029300004F1200000F03FFC414B1A781E4682F063
:1029400001021A709DF807200AB1012100E0294612
:10295000DFF8F880204602F06DFA98F80030DBB11D
:1029600000BF00BF00BF0121204602F03BFA00BFBC
:1029700000BF00BF0021204602F034FA00212046AB
:1029800002F01CFA002388F80030337004E018B11C
:102990002C4B1B78002B37D0DFF8B48098F8003030
:1029A0002BB1274E337813B93B7803B195B1E36C63
:1029B000254A0133E36413680133136044F61F634F
:1029C000226C9A4284BF00232364236C7BB30133BF
:1029D00023642CE020461A2102F08AFA01212046C5
:1029E00002F000FA00BF00BF00BF2946204602F0F7
:1029F000F9F92946204602F0E1F90F4B88F800501A
:102A00001D7001233370D2E7204602F0FBF918B1A4
:102A100001238DF8073001E08DF80700074B9DF882
:102A200007101A7804F10C0000F09FFBB4E702B025
:102A3000BDE8F08100010020540F0020FF0B0020B2
:102A40000401002070080020E0030020BC030020E7
:102A5000C803002010B50446012102F02BFA094BEF
:102A60001A68094B1A60FFF703FF0121204602F0A4
:102A700089F9064B01221A70204602F0CFF900288E
:102A8000FAD110BDC0030020B8030020BC03002011
:102A900038B50C460546002102F00CFA094B2046D9
:102AA0001A68094B1A60FFF71DFF0021284602F043
:102AB00069F934B9054B01221A701A780AB100BFBE
:102AC000FBE738BDD0030020B8030020C803002076
:102AD000BF4B2DE9F04707460E46197062B1002141
:102AE00002F088F9384602F0FDF93846012102F07B
:102AF00081F9384602F0F6F9B64BB74AD3F80080B0
:102B0000B64BB74D43449342B64B01D8B64A0AE0A0
:102B1000B64AB74942448A42F8D9B64AB64942440D
:102B20008A4203D9B54A2A60012202E0B44A2A60E7
:102B300002221A601C68B34A012CB34B0BD11868EF
:102B40000221A0F5CB301160403804F063FC9CA357
:102B5000D3E900230AE018680121A0F5CB30116009
:102B6000403804F057FC98A3D3E9002304F0F2FDA9
:102B700004F080FF824604F06FFC04F081FA04F058
:102B800059FF5FFA80F987F80090484605F07CF815
:102B90000146504604F0C2FF4FF08E4105F0C8F8E0
:102BA00004F05AFC0022994B04F0F8FA04F068FA99
:102BB00004F040FF80B2030143EAC943944A43F062
:102BC0009043012C78801360A8F57A6005D104F059
:102BD00021FC7BA3D3E9002304E004F01BFC7AA3CF
:102BE000D3E9002304F0B6FD04F044FF814604F06D
:102BF00033FC04F045FA04F01DFF5FFA80F887F813
:102C00000480404605F040F80146484604F086FF3F
:102C10004FF08E4105F08CF804F01EFC7B4B002237
:102C200004F0BCFA04F02CFA04F004FF80B2F8803F
:102C3000000140EAC840774B40F08040013E1860F8
:102C4000032E57D8DFE806F002101F452B23B3FBF5
:102C5000F4F4E40444F010040D26DFF8DC81DFF81E
:102C6000DC91DFF8DCA14AE01723B3FBF4F4E404C1
:102C700044F0005444F0700440F29D36DFF8C48103
:102C8000DFF8C49133E097F83430DFF8C091002BBF
:102C9000614B624A18BF9A46614B08BF4FF401234B
:102CA00043EA09090CBF20231023B3FBF4F44FEAD5
:102CB000C4440CBF4FF496664FF4187644F00054A9
:102CC00008BF924646F00D0644F07004DFF87481A8
:102CD00015E01623B3FBF4F440F2FD26E40444F0BF
:102CE0000054DFF86081DFF8689144F07004DFF889
:102CF00028A104E00026B046B146B24634462B680F
:102D0000484D2B60FFF7B4FDFFF7DAFDC5F800A0D2
:102D1000FFF7AEFDFFF7D4FDC5F80090FFF7A8FD63
:102D2000FFF7CEFD404B2B60FFF7A2FDFFF7C8FD7C
:102D300042F2F5432B60FFF79BFDFFF7C1FD3846DC
:102D400002F0C8F838460121FFF7A2FE374B1B7886
:102D50005B0343F4C45343F002031C432C60FFF7AE
:102D600087FDFFF7ADFD0E232B60FFF781FDFFF719
:102D7000A7FD2F4B2B60FFF77BFDFFF7A1FDC5F8EB
:102D80000080FFF775FDFFF79BFD3B232B60FFF7EE
:102D90006FFDFFF795FD4FF486732B60FFF768FD1D
:102DA000FFF78EFD2E60FFF763FDFFF789FD214BD6
:102DB0002B60FFF75DFDBDE8F047FFF781BD00BF69
:102DC0000000000000203C410000000000204C41B9
:102DD000D8060020D4030020FF083D0000BC6AF79D
:102DE000B4030020C403002041501F024053F2F2FC
:102DF0007F8D5B008019D0CDFFF26F0641505700E8
:102E000041505300CC030020DC0300200000E03FD1
:102E1000D0030020C0030020D3804C2A93C04C2A4A
:102E200000240600B8030020160E0705D803002072
:102E3000E93102000F000E003A47960C942AA800D0
:102E400093414C2A2A479E043427668934034081E3
:102E5000342B66000000000038B50278408800EB93
:102E6000C23004F011FF04F0F7FA00224FF07C5357
:102E700004F046FB104B044618680D4604F0CAFAED
:102E800002460B460AA1D1E9000104F063FC04F0FC
:102E9000F1FD04F0E1FA02460B462046294604F013
:102EA0002FFB04F0C7FD00F5C330A03038BD00BFD4
:102EB0000000000000204C41CC0300200000000076
:102EC00038B50279C08800EBC23004F0DDFE04F0B2
:102ED000C3FA00224FF07C5304F012FB0E4B044661
:102EE00018680D4604F096FA02460B4608A1D1E98F
:102EF000000104F02FFC04F0BDFD04F0ADFA024621
:102F00000B462046294604F0FBFA04F093FD38BD39
:102F10000000000000204C41CC0300200000000015
:102F200008B50B4B1868000404F074FA02460B460F
:102F300005A1D1E9000104F00DFC04F07BFD80B295
:102F400008BD00BFAFF300800000000080E5A24193
:102F5000CC0300200000000008B50B4B18680004EB
:102F600004F058FA02460B4605A1D1E9000104F02D
:102F7000F1FB04F05FFD80B208BD00BFAFF300803D
:102F80000000000000379441CC03002008B5074B37
:102F90001868000404F03EFA02460B46002004497B
:102FA00004F0D8FB04F046FD80B208BDCC0300203D
:102FB00000209C4108B5074B1868000404F02AFA69
:102FC00002460B460020044904F0C4FB04F032FD25
:102FD00080B208BDCC03002000208C41000000001E
:102FE00008B50B4B1868000404F014FA02460B46AF
:102FF00005A1D1E9000104F0ADFB04F01BFD80B296
:1030000008BD00BFAFF300800000000000569341F0
:10301000CC03002038B505461F4C2049204602F05D
:103020009DFD2846FFF74CFF1D490246204602F051
:1030300051FE2846FFF710FF1A490246204602F0CB
:1030400049FE2846FFF76CFF174902B2204602F0FE
:1030500074FE2846FFF780FF144902B2204602F0B2
:103060006CFE2846FFF792FF114902B2204602F09B
:1030700064FE2846FFF79EFF0E4902B2204602F08A
:103080005CFE2846FFF7ACFF0B4902B22046BDE8C4
:10309000384002F052BE00BFFC0A0020E384000862
:1030A000FA840008088500081685000827850008AE
:1030B0003C850008538500086A85000838B5044639
:1030C0000023218083814360C38183600374437440
:1030D00008460D4603F0A6FF6060284603F0A2FFF5
:1030E000A060204638BDC289838992B29BB29A42C1
:1030F000028803D1037C93B9104612E0C189838909
:1031000089B29BB299423BBF8389C089C38980B28F
:103110002DBF80898018C01A181A80B201E00020E3
:103120007047824238BF00207047C289838992B2BB
:103130009BB29A4205D1027C02F0FF039AB100884B
:103140007047C289838992B29BB29A4203D2838923
:10315000C089181A05E0C1898289038892B2D01803
:10316000401A80B2704718467047037C30B503F0B0
:10317000FF041BB101234374002030BD83894568DF
:103180009BB2E954838981689BB2CA5483890288BF
:1031900001339BB2838183899BB29A4298BF848119
:1031A0008289C38992B29BB29A424FF0010308BF51
:1031B0000374184630BD10B503468489C089A4B293
:1031C00080B2844204D11C7C04F0FF0004B910BD1D
:1031D000D8895C6880B2205C0870D989986889B207
:1031E000415C117000211974DA891888013292B299
:1031F000DA81DA8992B2904200D8D981012010BDDB
:1032000003460022407C5A74704742F20F7130B579
:10321000002200240025C0E90045A0F86C22A0F897
:103220006E22A0F87022A0F8721280F8742280F842
:10323000752280F8762280F8772280F8782280F84C
:10324000792230BD0023A0F86E3280F8743280F805
:10325000753280F87732A0F8703242F20F73A0F81E
:103260007232704700000000D0B530A3D3E90023CC
:103270004FF6FF774FF0FF36044603C83040394021
:103280005040594003F0A0FB032827D9D4E900019E
:1032900028A3D3E90023304039405040594003F07F
:1032A00093FB03281AD9D4E9000124A3D3E900230E
:1032B000304039405040594003F086FB03280FD975
:1032C000D4E900011FA3D3E9002330403940504026
:1032D000594003F079FB032802D9D0BD402300E018
:1032E000202384F87432B4F86C3203F2A51292B23F
:1032F000B2F5107FA4F86E3201D3A3F19B02A4F8BB
:10330000702203F16C0292B2B2F5107F07D3A3F5DD
:10331000EA73A4F87232044B00221A60D0BDA4F8FC
:103320007222F8E7AFF30080E003002057D77FF761
:10333000D7D50000F5F75F7F55D70000FD7DD55D3F
:103340007D7F00005F5DF5D5FF7D00002DE9F04732
:103350004FF00008C1465FFA88F4A24240F296801E
:1033600001F1010E83F800901FFA8EFE4418247AB2
:10337000BEF5107F24BFA1F23F211FFA81FE04F0A9
:103380000104E4010EF1010C1C701FFA8CFC00EB2F
:103390000E010F7ABCF5107F24BFAEF23F2E1FFA4C
:1033A0008EFC65B207F0010745EA87140CF1010EA7
:1033B0001C701FFA8EFE00EB0C010E7ABEF5107F1A
:1033C00024BFACF23F2C1FFA8CFE06F0010644EA43
:1033D00046170EF101041F701FFA84FA00EB0E016C
:1033E000097ABAF5107F24BFAEF23F241FFA84FA9F
:1033F00001F0010147EA01160AF101011E701FFAEE
:1034000081FE00EB0A010D7ABEF5107F28BFAAF2FB
:103410003F2405F0010546EAC50128BF1FFA84FED6
:10342000197000EB0E04247A0EF10107BFB2B7F554
:10343000107F04F0010441EA840524BFAEF23F216D
:103440008FB2791C1D708EB2C1190C7AB6F5107F3F
:1034500028BFA7F23F2104F0010428BF8EB245EA3D
:1034600044041C7085192D7A711C89B2B1F5107F46
:1034700005F0010544EA050428BFA6F23F211C70AF
:1034800028BF89B208F10108013364E7BDE8F0877D
:1034900080F87612704700000A4622230121014875
:1034A00002F030BAFC0A002037B50446B0F86C02CE
:1034B00023181972D4E9002392185B4109B142F034
:1034C0000102C4E9002394F877321BB92046FFF7C4
:1034D000CBFE1BE0B4F86E1201F23E239BB2B3F5B3
:1034E000107F01F1020292B224BF8B1E9BB2B2F593
:1034F000107F24BFA1F23E2292B2934202D28342B5
:1035000004D801E08342E1D98242DFD2B4F86C22D0
:10351000B4F872329A4240F0E38094F8743204F2C4
:10352000492584F8483221222B46B4F870122046EF
:10353000FFF70CFF94F87432402B7AD101A800F009
:10354000BFF90DF107030DF10602294601A800F0AD
:10355000E5F994F876229DF806309A4240F0BD8055
:10356000002394F8482284F8753284F878329DF864
:1035700007301A4384F848220A2B4BD8DFE803F0BF
:103580002F2B424A4A4A0616164A1600B4F96E22F2
:103590005D495E4802F0D1FB04F512712046FFF749
:1035A0007BFF022384F87732002311E094F877320E
:1035B000022B40F09280B4F96E225549534802F034
:1035C000BCFB04F512712046FFF766FF9DF807303B
:1035D00084F8793281E0B4F96E224E4906E094F81D
:1035E0007732012B0AD1B4F96E224B49474802F0D9
:1035F000A4FB04F512712046FFF74EFF012384F867
:1036000077326AE094F87732012B66D1B4F96E22F2
:10361000424902E0B4F96E2241493C4802F08DFB78
:10362000204604F51271FFF737FF2046FFF70AFE28
:1036300053E0202B13D1B4F96E223A49334802F0FB
:103640007CFB04F512712046FFF726FF012384F866
:103650007732002384F8753284F878323DE094F8AC
:103660007732002B39D094F875320133DBB20C2B52
:1036700084F8753206D92548012102F079F92046EF
:10368000FFF7E0FD94F87732012B18D194F87832E7
:1036900004F51272042B8DBF20230133DBB284F8B2
:1036A000483287BF002384F8783284F8783284F86F
:1036B000483201212223154802F024F90DE0022BA3
:1036C0000BD194F8793243B143F0400384F8483287
:1036D00004F512712046FFF7DFFE002384F87432F0
:1036E000B4F86C3294F8771201339BB2B3F5107FC3
:1036F00028BF00230031A4F86C3218BF01210A480A
:1037000001F002FA03B030BD7F850008FC0A0020FA
:103710009F850008C0850008E1850008058600082F
:103720002A860008438600087408002010B5044665
:103730004FF4B97102F093FD04F1100204F160013D
:10374000002002F8010B8A424FF00003F9D1F02269
:10375000A4F86030A4F86230A4F86420A366204680
:1037600010BD222A70B506460C460ED102F08AFD25
:1037700020280CD904F1210514F8011F304602F06D
:10378000C3FDAC42F8D1002070BD042070BD0520FF
:1037900070BD0000F7B50D460824002601272B0652
:1037A0004FF001024FF000030DF10701084804F14A
:1037B000FF344CBF8DF807708DF807606D0000F086
:1037C000FBFF14F0FF04EDB2E9D103B0F0BD00BF80
:1037D0007408002070B5B0F86050044625B12E483A
:1037E00001F00EF8054614E002F06EFD60B12B4BBF
:1037F0001B78A3BB012384F86C30B4F86430A4F8C0
:1038000060300023A4F86230B4F86030002B42D05E
:10381000E5E7082D3FD994F86C3033B1B4F8623045
:103820005F210133A4F8623006E0B4F862305A1C1C
:10383000A4F862202344197C2046FFF7ABFFB4F8BC
:103840006220B4F86030083D9A42ADB2E1D3002363
:10385000A4F86230A4F8603084F86C3070BD2B4658
:10386000B4F8601084F86C505F20CA1892B201332B
:103870002244482B1074F8D14831A4F8601004F1A8
:103880000F0504F13006204602F064FD05F8010F33
:10389000AE42F8D1B5E770BD74080020540F002087
:1038A00008B502F0EFFC2323B0FBF3F080B208BDB3
:1038B00001EB4101890001F51671A0F86410704711
:1038C0007047B1F5006F10D340F675404FF4802378
:1038D00021F4FF6222F007023AB1194201D15B08DC
:1038E000FBE7DA0A42435140F2E70846704700001E
:1038F00010B54C780B78E40004EBC3238C7803EB11
:1039000054142146FFF7DDFF034B53F820006040BD
:10391000C0F3C72010BD00BF64880008F7B54C7B1A
:1039200016460A7B1F46A30943EA82038DF804303A
:10393000CB7CA4009B000D7D03F03C0324F03F04EE
:103940001C4344EA9514AD0025F00F0501A98DF83C
:1039500005408DF80650FFF7CBFF030900F00F007C
:103960003370387003B0F0BD02F00F0242EA01116B
:10397000134A70B5C9B21C7B32F811005D7B24F08C
:103980003F04C6B244EA91041C7305F00F05B40865
:1039900004F0300245EA81111143DA7C04F00F048F
:1039A00022F00F0214431A7D800A02F0030242EA59
:1039B000861200F03C0010435973DC74187570BD1A
:1039C00062860008002310B50370436000F108010F
:1039D00000F16C0401F8013BA1424FF00002F9D163
:1039E000C266026742678267C267C0F88020C0F87B
:1039F000842000F1880300F5987143F8042B8B4272
:103A0000FBD100F5EC72002143F8041B9342FBD17B
:103A100000F52072002143F8041B9342FBD100F50E
:103A20004A72002143F8041B9342FBD100F2523248
:103A3000002103F8011B9342FBD110BD002303704A
:103A40004360C366036770472DE9F0470D68D0F8FF
:103A50007890D0F880800F6909EB050C446F4744DB
:103A6000BC45E6464FEAD403A8BFBE46BC45B4BF3A
:103A7000384D394D4FEA830304F0070200EB03078A
:103A8000B5BFAE5CAE5CD7F88850D7F88850B4BFED
:103A900035403543C7F888504E684D694E4445441B
:103AA000AE423746A8BF2F46AE42B4BF294D2A4D7D
:103AB00000EB030CB5BFAE5CAE5CDCF83051DCF85B
:103AC0003051B4BF35403543CCF830518E68D0F812
:103AD0007CC0D0F884900CEB060A8E69D04609EBC6
:103AE0000605AA45A8BFA846AA45B4BF194D1A4D58
:103AF00000EB030AB5BFAD5CAD5CDAF8D861DAF86B
:103B0000D861B4BF2E402E43CAF8D861CD68C969C8
:103B1000654449448D422E46A8BF0E468D42B4BF2F
:103B20000C490D490344B5BF8A5C8A5CD3F8801206
:103B3000D3F88012B4BF0A400A43C3F8802201348C
:103B4000C0F878E0C767C0F88080C0F88460446738
:103B5000BDE8F087E7AD0008EFAD000870B512C909
:103B600088B084F0010381F001029E1865180B44AF
:103B700022446946009501960293039204960595A6
:103B800006920793FFF760FF08B070BDF0B52C4CAC
:103B9000002340F24912194626462A4F03294BD8E2
:103BA000DFE801F0020F1B31D510223502F0070EBD
:103BB00014F80EE050F825501EEA050F18BF022138
:103BC00016E0D1104C3102F0070550F82110655D68
:103BD0000D420CBF0021022121E0D110763102F00C
:103BE000070550F82110655D0D420CBF012103212E
:103BF00003F0070500EBD30E17F805C09EF8285315
:103C00000CEA050515E0D510A03502F0070E14F8F2
:103C10000EE050F825501EEA050F08BF012103F001
:103C2000070500EBD30E16F805C09EF828534CEAA2
:103C300005058EF82853013312F1FF32AED2F0BDE4
:103C4000EFAD0008E7AD00084FF0FF3370B5104E40
:103C50004C1E01F1260514F8012FC3F307205A402A
:103C6000D2B236F81230A54280EA03000346F2D100
:103C7000C04391F82720C3B29A4207D191F8283067
:103C8000C0F30720C31A5842584170BD002070BDD0
:103C900010AF00082DE9F0430446904E174699B046
:103CA0004A1E002312F8015F985D01336840532BD0
:103CB0001070F7D10023184603AA98540133542BEF
:103CC000FAD1874B00208025B0F5257F0EDB00233D
:103CD000A367E367C4F88030C4F8843063671D4687
:103CE0004FF0800801264FF04009ABE0C2108E5C17
:103CF000F20710D513F810200DF1600E724403EB9B
:103D0000400E9EF801E025FA0EFC12F854EC4CEA45
:103D10000E0E02F854ECB20712D500F1010E13F8A2
:103D20001E2003EB4E0E0DF1600C9EF801E0624484
:103D300025FA0EFC12F854EC4CEA0E0E02F854EC84
:103D4000720712D500F1020E13F81E2003EB4E0E7F
:103D50000DF1600C9EF801E0624425FA0EFC12F8A9
:103D600054EC4CEA0E0E02F854EC320712D500F176
:103D7000030E13F81E2003EB4E0E0DF1600C9EF89F
:103D800001E0624425FA0EFC12F854EC4CEA0E0EE7
:103D900002F854EC021DB2F5257F01DB104693E7D3
:103DA00016F0100F0FD013F812E003EB42020DF1E2
:103DB000600C5278E64425FA02FC1EF8542C4CEABA
:103DC00002020EF8542CB20612D500F1050E13F8BB
:103DD0001E2003EB4E0E0DF1600C9EF801E06244D4
:103DE00025FA0EFC12F854EC4CEA0E0E02F854ECD4
:103DF000720612D500F1060E13F81E2003EB4E0ECC
:103E00000DF1600C9EF801E0624425FA0EFC12F8F8
:103E100054EC4CEA0E0E02F854EC320610D5C61DD6
:103E200013F8162003EB46060DF1600E7678724407
:103E300025FA06FE12F8546C4EEA060602F8546C97
:103E4000083041E718AB03EBE50313F8542C05F0F9
:103E5000070328FA03F1114029FA03F30CBF02917A
:103E6000029601A91340204605F1020514BF0196F0
:103E70000193FFF773FEB5F5257FE3D12046FFF7E9
:103E800085FE7B1E07F12802002103F8011F9A42DC
:103E9000FBD140F24912134D012604EBE20102F07E
:103EA000070E91F8280315F80E10C2F5A473084206
:103EB00003F1010307D0D808395C03F0070306FAC1
:103EC00003F30B433B5412F1FF32E6D2394620464E
:103ED000FFF7BAFE19B0BDE8F08300BF8CAD000853
:103EE00064A80008EFAD000830B543688DB0044603
:103EF0005B0009B143F001036360E36ED80803F08F
:103F0000070229B1194D2118AD5C0A7A2A4304E051
:103F1000174D2118AD5C0A7A2A4001332044B3F5CD
:103F2000257F0272E3661ED104F1080501AA294625
:103F30002046FFF7AFFEA8B101210E4800F0E4FDD6
:103F4000292201A90C4801F041FC0E22002128463B
:103F500004F090F80023E3660223237040F281739B
:103F6000236700E020700DB030BD00BFFFAD00083A
:103F7000F7AD000874080020FC0A00200C2201485C
:103F800001F054BCFC0A0020436870B55B00044695
:103F900009B143F001036360606880F0AA3002F069
:103FA000FFFC022803D8214A002313603CE060682C
:103FB00020F07F431E48584002F0F2FC02280DD842
:103FC0001C491D4801F0CAFD5322002104F10800DC
:103FD00004F050F80023E366012325E0606820F038
:103FE0007F431648584002F0DBFC0546E8B9144907
:103FF000114801F0B3FD0121124800F085FD124A7D
:1040000004F1080613683146A36053682046E36054
:1040100093682361FFF7B2FF0E222946304604F071
:1040200029F8E56625670223237070BDE0030020B0
:104030005076550007AE0008FC0A002068B4AA00BC
:1040400030AE00087408002010B100082DE9F843D4
:10405000436804465B0009B143F00103E26E63600C
:10406000D00802F0070329B1514D2118ED5C0B7AFD
:104070002B4304E04F4D2118ED5C0B7A2B4020447C
:10408000037263684C480132E266584002F088FCD3
:1040900003280BD849494A4801F060FD00214948EE
:1040A00000F032FD464801F00FFC59E0236FA3F207
:1040B000DD73042B01D900261DE0606820F07F43EA
:1040C0004148584002F06CFC0228F4D8226FB2F547
:1040D000FC6F07D2C2F5FC6212B23C49384801F0CD
:1040E0002CFE03E03A49364801F038FD6023E366D0
:1040F000002323670126236FB3F5FC6F1FD1DFF880
:10410000C89001256FF07F48636828FA05F00340E6
:1041100029FA05F0584002F043FC0228EFB20BD810
:104120003A462C49264801F008FEE36E226FDB1B5D
:10413000D21BE366226702E00135042DE4D1236F30
:104140000133B3F5965F23670ED323491C4801F072
:1041500005FD1C48002100F0D7FC194801F096FB32
:1041600000232370BDE8F883E36E602B1DD104F1BA
:10417000080556B1552363742D23A3741623E374E5
:1041800029462046FFF7FAFE04E00C2229460C4897
:1041900001F04CFB01210B4800F0B6FC0E2200217F
:1041A000284603F067FF0023E366BDE8F88300BFFD
:1041B000FFAD0008F7AD00085E13AAAA58AE0008CC
:1041C000FC0A00207408002068B4AA0078AE000839
:1041D000A0AE0008C1AE0008E8AE00080378012BCD
:1041E00005D002D3022B04D07047FFF7CDBEFFF7F6
:1041F0007BBEFFF72BBF10B504464FF4B97102F038
:104200002EF804F1100204F16A01002002F8010BFB
:104210008A424FF00003F9D13C22A4F86A30A4F896
:104220006C30A4F86E202367204610BD292A70B593
:1042300006460C4619D102F025F8292806D802B204
:104240000B490C4801F079FD052070BD0021304676
:1042500002F05AF8651E283415F8011F304602F0A6
:1042600053F8A542F8D1002070BD042070BD00BFF6
:1042700044B60008FC0A00200C2A70B506460C461D
:1042800019D101F0FFFF0C2806D802B20B490C48E7
:1042900001F053FD052070BD0121304602F034F8D5
:1042A000651E0B3415F8011F304602F02DF8A542AB
:1042B000F8D1002070BD042070BD00BF64B60008B6
:1042C000FC0A002010B5044601F0DCFF024628B9C4
:1042D0000549064801F031FD052010BD02212046A8
:1042E00002F012F8002010BD82B60008FC0A00207F
:1042F000002318462DE9F04F97B001AC1855D05463
:104300000133532BF9D1002004460546DFF8BCE108
:1043100001394FF0010C234606462C4611F8018F57
:1043200000270CFA07F518EA050F14BF0125002530
:1043300003EB050923442B44DB0709F001090CD5E5
:1043400006F007031EF803B016AB03EBD60313F811
:1043500054AC4BEA0A0A03F854ACB9F1000F0ED082
:10436000731C0DF1580909EBD30903F007031EF87C
:1043700003A019F8543C4AEA030309F8543C0137F6
:10438000082F06F10206234601D02C46C9E710305B
:10439000B0F5287FBFD14B4F00213846012407EBF1
:1043A00041030733B1F5257F7ED216AD05EBD1056C
:1043B00015F8545C2E060BD513F8066C13F807CCD1
:1043C00004FA06FE12F80C604EEA060602F80C60CB
:1043D0006E060BD513F8046C13F805CC04FA06FE30
:1043E00012F80C604EEA060602F80C60AE060BD519
:1043F00013F8026C13F803CC04FA06FE12F80C60F2
:104400004EEA060602F80C60EE060AD51E7813F88E
:1044100001CC04FA06FE12F80C604EEA060602F819
:104420000C600E1DB6F5257F03F1080301D331465C
:10443000B8E72B070BD510F816E000EB46067378AB
:1044400004FA03F612F80E30334302F80E306B070D
:104450000CD54B1D10F813E000EB43035B7804FA16
:1044600003F612F80E30334302F80E30AE070CD5C7
:104470008B1D10F813E000EB43035B7804FA03F69E
:1044800012F80E30334302F80E30EB070AD5CB1D7D
:1044900010F8136000EB43035B7804FA03F5935DB7
:1044A0002B43935508317AE7074C013A002312F861
:1044B000010F195D01334140532B1170F7D117B033
:1044C000BDE8F08F1CB10008B3B600089FB6000825
:1044D0002DE9F34101240E46A0460825002734EAC1
:1044E00006034FF001024FF000030DF107010948E8
:1044F00005F1FF350CBF8DF807808DF8077064005B
:1045000000F05AF915F0FF05E4B2E8D102B0BDE8B9
:10451000F08100BF7408002070B5A2B0044601F01D
:10452000D3FE20B9B4F86A30002B00F0A5802046F5
:1045300001F00BFFB4F86A5090BBA5BB4F4B1B7842
:1045400033B90122236784F87420B4F86E3067E031
:1045500084F87450204601F0FDFE204601F0FAFE7A
:1045600001A948550135292DF7D10DF13202204618
:10457000FFF7BEFEEA238DF83030B4F86A10A623A8
:104580008DF831300023CA180CA8185C92B20133A0
:104590002244552B1074F6D15531A4F86A101FE04F
:1045A000012821D125B1364800F02AF905463EE020
:1045B000324B84F874501B7803B92367204601F00E
:1045C000C9FE0C25B4F86A602046731CA4F86A3052
:1045D00001F0C0FE013D264415F0FF053074F1D115
:1045E0000023A4F86C301EE002281CD1002DDAD183
:1045F00084F87450204601F0ADFEB4F86A30214DC5
:1046000003F1120080B200229918565D89B201327E
:104610002144062A0E74F7D106339BB28342F2D1AD
:10462000A4F86A30DCE7B4F86A302BB3BBE7082D96
:1046300022D994F8743033B1B4F86C30AA21013324
:10464000A4F86C3006E0B4F86C305A1CA4F86C2066
:104650002344197C2046FFF73BFFB4F86C20B4F8E4
:104660006A30083D9A42ADB2E1D30023A4F86C3021
:10467000A4F86A3084F8743022B070BD540F002062
:1046800074080020A7B6000801EB410149009631EB
:10469000A0F86E10704708B501F0F4FD0D23B0FBD3
:1046A000F3F080B208BDF8B50546062600277D2444
:1046B0004FF47A71284600F01BFC013CF8D187F0DA
:1046C0000104E4B23946284600F0C4FB21462846DE
:1046D00000F0F0FB2146284600F0CCFB214628469E
:1046E00000F0D0FB2146284600F0D4FB21462846A6
:1046F00000F0D8FB2146284600F0E4FB013E01D043
:104700002746D4E7F8BD000070B5044600250572C1
:104710004FF400710C30FEF7D1FC01264FF400710C
:1047200004F12000FEF7CAFC204684F83450A5634B
:1047300084F83C50256484F8445084F84A60E56469
:1047400000F00AFA3146204600F054FB314620467C
:1047500000F080FB2946204600F0ACFB29462046AD
:1047600000F088FB2946204600F08CFB29462046B5
:1047700000F090FB2946204600F094FB2946204695
:1047800000F0A0FB2946204600F06CFB294620469D
:1047900000F00CFB2946204600F010FB294620467D
:1047A00000F020FB2046FFF77EFF024B20461D60F5
:1047B00070BD00BFE00300202DE9F8431E46037AD8
:1047C000054688469146BBB1002400F120074C45C0
:1047D0000AD018F804100EB9324600E0325D3846AF
:1047E000FEF7C3FC0134F2E7044C237823B92846D2
:1047F000FEF730F901232370BDE8F883540F002041
:104800002030FEF770BC2030FEF7FABC0C30FEF70B
:10481000F7BC0000174B20201870174B17480B44AB
:1048200083421ED9144B134483421AD9144B1548A2
:104830000B44834215D9124B1344834211D9124BB6
:1048400012480B4483420CD90F4B1344834208D9BE
:104850000F4B10480B44834203D90D4B1344834242
:1048600005D80D4B002019600C4B1A6070470420CE
:10487000704700BFD803002000BC6AF7FF083D0066
:10488000004FF7E6BF3B47034053F2F27F8D5B00DA
:104890008019D0CDFFF26F06DC030020D403002086
:1048A00038B50C4605464B1E5942594100F0E2FA14
:1048B000A21E51425141284600F0E4FAE01E414256
:1048C0004141043C284600F0E5FA61426141284636
:1048D000BDE8384000F0E6BA836B37B5027A0133A1
:1048E00004468363FAB1C36CB3F5964F0AD3524AB8
:1048F0001378013B032B03D800211170FFF7D0FF81
:104900000023E36445F6BF53A26B9A4219D994F889
:104910004A10002381F00101A36384F84A10204665
:1049200000F098FA0DE045498B4240F2838090F800
:104930004A10826381F0010180F84A1000F08AFA7F
:1049400078E004F12000FEF7F0FB014618B93C4B7B
:104950001B78002B6AD13B4D2B78022B3A4B08BFBA
:104960004FF470611A6818BF4FF4F061914224D877
:1049700000221A60304B1B78FBB9236CEBB994F81A
:104980003C30D3B194F8443094F84510013393FB94
:10499000F1F201FB123384F84430DBB2234493F884
:1049A00046102046FFF77CFF94F844300122234450
:1049B00093F846102548FEF78BF80C342046FEF796
:1049C000B4FB002836D00DF107020DF10601204698
:1049D000FEF7F1FB2B78013B032B2BD8DFE803F02C
:1049E000020B141D9DF806101948003118BF012153
:1049F000FFF7F4FB1EE09DF806101648003118BFC3
:104A00000121FEF751FD15E09DF806101248003116
:104A100018BF012102F0FEF80CE09DF806100F48C7
:104A2000003118BF012100F021FC03E02046FEF711
:104A30002FF890E703B030BDC40800207FA9030021
:104A4000540F0020D8060020E00300207408002046
:104A5000000C002058040020D8070020E0060020A9
:104A6000002310B580F84530224B04461B7823B153
:104A7000012380F8463080F845301F4B1B7843B146
:104A800094F845300221E218013382F8461084F888
:104A900045301A4B1B7843B194F845300321E21896
:104AA000013382F8461084F84530154B1B7843B12A
:104AB00094F845300421E218013382F8461084F856
:104AC000453094F84530012B03D9012384F83C305C
:104AD00007E0002384F83C300A4B20461978FFF7A2
:104AE000DFFE237A23B9204600F03AF9012323722E
:104AF00010BD00BF070100200801002005010020B3
:104B000006010020C408002038B5064B0D461C786D
:104B10008C421C4603D00123036400F0D3F92570B6
:104B200038BD00BFE009002080F834107047002332
:104B3000C3647047C06C704708B50820FBF700FDE0
:104B400038B10448FDF7D8FEBDE808400820FBF75F
:104B500005BD08BD740800202DE9F043012185B092
:104B60001D20FBF78FFF01217948FBF7F7FD00209F
:104B7000FBF704FF01214FF40000FBF78FFF4FF418
:104B80004070FBF713FC6846FBF7A7FD03238DF885
:104B900002304FF48054102369466E488DF803307C
:104BA000ADF80040FBF747FD002221466948FBF7BE
:104BB000B2FD00230193019BB3F5007F02D2019B5C
:104BC0000133F7E704264FF480596946614803240E
:104BD00010258DF80360ADF80090FBF72CFD202325
:104BE00069465D48ADF800308DF802408DF80350FD
:104BF000FBF721FD402369465748ADF800308DF89A
:104C000002408DF80350FBF716FD80236946524899
:104C1000ADF800308DF803608DF80240FBF70BFD16
:104C20004FF4807369464C48ADF800304FF480482B
:104C30008DF802408DF80350FBF7FDFC69464748AC
:104C40008DF80240ADF800808DF80350FBF7F3FCBF
:104C50006946414808278DF803608DF80240ADF899
:104C60000050FBF7E8FC69463B488DF803608DF87F
:104C700002404FF40056ADF80070FBF7DCFC6946CB
:104C80003648ADF800608DF802408DF80350FBF710
:104C9000D2FC4FF4007369462F48ADF800308DF810
:104CA00002408DF80350FBF7C6FC69462A488DF890
:104CB0000240ADF800908DF80350FBF7BCFC69464C
:104CC0002548ADF800608DF802408DF80350FBF7E1
:104CD000B2FC022369462048ADF8003001268DF869
:104CE00002408DF80350FBF7A6FC69461A488DF880
:104CF0000240ADF800608DF80350FBF79CFC69465C
:104D000015488DF80240ADF800808DF80350FBF790
:104D100092FC4FF4004369460F48ADF800308DF81F
:104D200002408DF80350FBF786FC21463046FBF726
:104D300045FD00230DEB070002978DF80C308DF830
:104D40000D508DF80E60FBF7A1FB05B0BDE8F083B8
:104D50000002300000080140000C0140001001403A
:104D600007B509238DF804300F22012301A88DF81F
:104D700005308DF806208DF80730FBF721FB03B0D6
:104D80005DF804FB07B503238DF806301023ADF85A
:104D9000043001B9042301A903488DF80730FBF75B
:104DA0004AFC03B05DF804FB000C01400A460248CF
:104DB0002021FBF7B0BC00BF000C01400A460248AE
:104DC0004021FBF7A8BC00BF000C014008B58021C2
:104DD0000348FBF78AFC431E5842584108BD00BFF8
:104DE000000C01400A4602484FF48071FBF793BC67
:104DF000000C01400A4602484FF48041FBF78BBC8F
:104E00000010014008B510210348FBF76EFC431E5B
:104E10005842584108BD00BF000C014008B50821A8
:104E20000348FBF762FC431E5842584108BD00BFCF
:104E3000000C01400A4602481021FBF76CBC00BF81
:104E4000000C01400A4602480821FBF764BC00BF81
:104E5000000C01400A4602484FF40051FBF75BBCCE
:104E6000001001400A4602484FF40071FBF753BCA2
:104E7000000C01400A4602484FF48051FBF74BBC3E
:104E8000000C01400A4602484FF40051FBF743BCB6
:104E9000000C01400A4602480221FBF73CBC00BF5F
:104EA000000C01400A4602480121FBF734BC00BF58
:104EB000000C01400A4602484FF48041FBF72BBC2E
:104EC000000C01400A4602484FF40041FBF723BCA6
:104ED000000C0140024B18460138FDD8704700BF56
:104EE000BFD4010040F60F6318460138FDD8704763
:104EF0000C235943013908460138FDD8704700BFDB
:104F000000BF00BF70470000014800F050BC00BF68
:104F1000FC0A002008B51848FFF7DEFC174800F02F
:104F200039FF174B1B7833B1164B1B78012B02D17D
:104F30001548FFF7F1FA154B1B7833B1114B1B786D
:104F4000022B02D11248FEF745FC124B1B7833B1FD
:104F50000C4B1B78032B02D10F4801F0B5FE0F4B11
:104F60001B7843B1074B1B78042B04D1BDE80840E4
:104F70000B4800F0DFB908BD74080020FC0A0020CF
:104F800007010020C4080020C808002008010020F4
:104F9000E403002005010020400900200601002054
:104FA000E409002008B5FFF7AFFFFFF7B3FFFCE708
:104FB00008B51048FEF706FD0F48FFF71CF90F482B
:104FC000FEF723F90E48FEF7B1FB0E4801F031FD64
:104FD0000D4801F025FE0D4800F020F80C4800F0C7
:104FE0004BF90C4800F034FABDE808400A48FFF7D6
:104FF0008BBB00BF000C0020C80800205804002014
:10500000E4030020D807002040090020E00600202B
:10501000E4090020FC0A00207408002030B50023B9
:1050200000240025C0E902450370437000F110021E
:1050300000F1EB0402F8013B94424FF00001F9D17A
:1050400000F11103A0F8F010A0F8F210C0F8EC3055
:1050500030BD30B500230024002503704370C0E943
:105060000245A0F8F030A0F8F23030BDD0E90223BC
:10507000921810B55B41044609B142F001024FF6A7
:10508000FF71C4E90223D4E902230B4045F27551B4
:105090004FF0FF30024011485940504001F094FC5D
:1050A000022819D80E480F4900F058FD0E48002379
:1050B000195CD4F8EC20D1540133062BF8D1042329
:1050C000A4F8F23001213023A4F8F03061700748D1
:1050D000BDE81040FFF718BD10BD00BFFF77FFF51A
:1050E000FC0A002014B700080EB70008740800205E
:1050F000D922014800F0E2BCFC0A0020D0E90223DA
:10510000921870B55B41044609B142F00102C4E94E
:105110000223B4F8F030D4F8EC00DA1086184B4DC6
:1051200003F0070319B1E95C835C0B4303E0E95C1E
:10513000835C23EA01033370B4F8F0305A1CA3F205
:105140004633022BA4F8F0202FD8D4E902234FF6DF
:10515000FF710B4045F275514FF0FF3002403C4863
:105160005940504001F030FC04281ED8B4F8F0201B
:105170003849303A12B2384800F0DFFD21460123A9
:1051800001F8103F3448642200F066FC33480023E5
:10519000195CD4F8EC20D1540133062BF8D1042348
:1051A000A4F8F2303023A4F8F030B4F8F0302E3BFD
:1051B0009BB2042B1ED8D4E902234FF6FF710B409B
:1051C00045F275514FF0FF300240214859405040A0
:1051D00001F0FAFB04280DD8B4F8F0202049303A49
:1051E00012B21D4800F0A9FD0423A4F8F2303023C8
:1051F000A4F8F030B4F8F030B3F5D86F25D1B4F896
:10520000F250013DADB2A4F8F25065B9154912480B
:1052100000F0A4FC29461448FFF776FC0E4800F085
:105220007FFC657070BD2646EB1E5D425D4106F851
:10523000105F31462046FFF75BFFDB22002130463E
:1052400002F018FF0023A4F8F03070BD91B70008F9
:10525000FF77FFF52EB70008FC0A00200EB7000804
:1052600051B7000870B700087408002043780BB9E4
:10527000FFF7FCBEFFF742BF10B5044640F2DC5119
:1052800000F0EDFF04F1100204F58571002002F832
:10529000010B8A424FF00003F9D1F022A4F80A3141
:1052A000A4F80C31A4F80E21C4F81031204610BD2A
:1052B000122AF8B506460F46144614D900F0E2FF4C
:1052C000A04212D3013CE1B2304601F01DF80025A6
:1052D000EBB29C4205F1010509D93B4459783046AF
:1052E00001F012F8F4E70420F8BD0520F8BD002015
:1052F000F8BD0000F7B50D460824002601272B064F
:105300004FF001024FF000030DF10701084804F1CE
:10531000FF344CBF8DF807708DF807606D00FFF704
:105320004BFA14F0FF04EDB2E9D103B0F0BD00BFB9
:1053300074080020F8B5044600F0C6FFB4F80A511E
:1053400008B905B9F8BD25BB294B1B784BB901231A
:1053500084F81431B4F80E31C4F81051A4F80A31AD
:1053600014E0204600F0F6FF074684F81451EBB233
:105370009F420BD9B4F80A612046731CA4F80A3185
:1053800000F0E8FF264430740135F0E70023A4F86C
:105390000C31B4F80A314BB31648FFF731FA054621
:1053A000082D23D994F8143133B1B4F80C31772196
:1053B0000133A4F80C3106E0B4F80C315A1CA4F8FF
:1053C0000C212344197C2046FFF794FFB4F80C21EC
:1053D000B4F80A31083D9A42ADB2E1D30023A4F8F3
:1053E0000C31A4F80A3184F81431F8BDF8BD00BFBF
:1053F000540F00207408002001EB4101890001F5E1
:105400001671A0F80E11704708B500F03BFFD823C5
:10541000B0FBF3F080B208BD10B4C2788378417855
:10542000120402EB0323C4791944837942792404DA
:1054300004EB03231344027A007903EB026201EBCD
:10544000006110BC0148FFF7E5B900BF74080020F7
:10545000024610B500F58071002402F8014B8A4223
:105460004FF00003F9D180F8003180F8013180F865
:10547000023110BD1FB570228DF80E208278E02316
:105480008DF80F2000228DF80C300092042303AA1F
:1054900001218DF80D3001F046FA05B05DF804FBEE
:1054A0001FB57F228DF80A208278E0238DF80B202B
:1054B00000228DF808308DF80C1005230092012190
:1054C00002AA8DF8093001F02EFA05B05DF804FB50
:1054D0002DE9F041804686B04148424FFFF727FB57
:1054E000E02300228DF808308DF80B200B233A784A
:1054F0008DF8093001238DF80A300AB18DF80B3090
:10550000394E33782BB19DF80B3043F002038DF800
:105510000B30364D2B782BB19DF80B3043F0040344
:105520008DF80B30324C23782BB19DF80B3043F0C3
:1055300008038DF80B302F4B29481B788DF80C3061
:105540002D4B1B788DF80D30FFF760F928B19DF8D1
:105550000D3043F004038DF80D302148FFF753F967
:1055600028B19DF80D3043F008038DF80D303B78DD
:105570002BB12248FFF78FF88DF80E0001E08DF86F
:105580000E30337843B10A231D488DF80F30FEF7F3
:1055900087F98DF8100003E08DF80F308DF810308A
:1055A0002B782BB1174801F0F5FB8DF8110001E0C5
:1055B0008DF8113023782BB11348FFF725FF8DF8B4
:1055C000120001E08DF812300023009302AA0B2391
:1055D0000121404601F0A7F906B0BDE8F08100BF07
:1055E00074080020070100200801002005010020A8
:1055F00006010020C4080020540F0020C808002025
:10560000E403002040090020E409002010B5E02355
:105610009CB08DF80C30002201230D4C8DF80E202B
:105620008DF80F30D1B2615C131DDBB2013229B1AC
:105630000DF1700E734403F8641CF3E7009103AAA4
:1056400001218DF80D3001F06EF91CB010BD00BFC6
:10565000E0B800080C2A2DE9F04702D80420BDE884
:10566000F0870F78C7F3001380F802318E78322E5E
:10567000F4D8CD78042DF1D84B78012D03F0020435
:1056800003F0040003F00802E4B2C0B2D2B203D1C6
:1056900013F0010FE2D00DE0022D02D1002CDDD07D
:1056A00008E0032D02D10028D8D003E0042D01D159
:1056B000002AD3D091F80680B8F10F0FCED82C492C
:1056C00003F001030D702B4D00342B706FEA0703BC
:1056D00018BF0124DFF8C090003018BF0120DFF8A8
:1056E000BCA0003218BF012289F80040224C8AF881
:1056F0000020224AC3F3C0132070314620481370A3
:10570000FEF7C2FF31461F4801F03CFB31461E4800
:10571000FFF772FE31461D48FEF7CAF841461C48A5
:10572000FDF7B6FEC7F3C0011A48FFF7FDF92B7865
:1057300013B1012211460FE099F8003013B1012294
:10574000022109E0237813B10122032104E09AF831
:10575000003023B1012204210E48FDF7B9F90D48AC
:10576000FFF77EF90B48FDF755FC0020BDE8F087F8
:10577000C408002007010020050100207008002057
:10578000C808002040090020E4090020E4030020AC
:1057900058040020740800200801002006010020A1
:1057A000082A02D90846FFF737BE0420704710B513
:1057B00004464FF4E132012101F094F82046BDE89F
:1057C00010404FF41652032101F08CB8F0B5154B80
:1057D00091B01B78012B23D8134B1B7803B3E02324
:1057E0008DF80C30CDB210238DF80E30C5F10307C3
:1057F000CBB2DC195B1BDBB29A42E4B206D911F8DA
:10580000016B10AB234403F8346CF1E7D31C002286
:10581000DBB20092012103AA8DF80D3001F083F86C
:1058200011B0F0BDC408002007010020F0B5154BF1
:1058300089B01B78012B23D8134B1B7803B3E023CB
:105840008DF80C30CDB211238DF80E30C5F1030761
:10585000CBB2DC195B1BDBB29A42E4B206D911F879
:10586000016B08AB234403F8146CF1E7D31C00224E
:10587000DBB20092012103AA8DF80D3001F053F83C
:1058800009B0F0BDC4080020070100201FB50C4B73
:105890001B78012B11D80B4B1B7873B11222E0231C
:1058A0008DF80E2000228DF80C300092032303AAFD
:1058B00001218DF80D3001F036F805B05DF804FBDC
:1058C000C4080020070100201FB50C4B1B78012BDA
:1058D00011D80B4B1B7873B11322E0238DF80E20E7
:1058E00000228DF80C300092032303AA01218DF8C9
:1058F0000D3001F018F805B05DF804FBC408002075
:1059000007010020F0B5184C8DB0247814F0FD0F7D
:1059100027D1164C247824B300294FF0E00414BF9B
:105920001A211821D5B28DF808408DF80A10C5F15A
:105930000307D1B2CC19491BC9B28B42E4B206D9D4
:1059400012F8016B0CA9214401F8286CF1E7002240
:105950000333DBB20092012102AA8DF8093000F076
:10596000E2FF0DB0F0BD00BFC40800200801002018
:105970001FB50E4B1B7813F0FD0214D10C4B1B7896
:105980008BB100294FF0E00314BF1B2119218DF8C2
:105990000C308DF80E1003230092012103AA8DF81C
:1059A0000D3000F0C0FF05B05DF804FBC408002016
:1059B00008010020F0B5164BA5B01B78032B00D0D2
:1059C0001BBB144B1B7803B3E0238DF80C30CDB216
:1059D00020238DF80E30C5F10307CBB2DC195B1B19
:1059E000DBB29A42E4B206D911F8016B24AB23442E
:1059F00003F8846CF1E7D31C0022DBB20092012192
:105A000003AA8DF80D3000F08EFF25B0F0BD00BF69
:105A1000C4080020050100201FB50D4B1B78032B87
:105A200000D08BB90B4B1B7873B12122E0238DF88A
:105A30000E2000228DF80C300092032303AA0121CE
:105A40008DF80D3000F06FFF05B05DF804FB00BF6E
:105A5000C408002005010020F0B5164BA1B01B784A
:105A600013F0FB0F23D1144B1B7803B3E0238DF805
:105A70000830CDB230238DF80A30C5F10307CBB220
:105A8000DC195B1BDBB29A42E4B206D911F8016B58
:105A900020AB234403F8786CF1E7D31C0022DBB27F
:105AA0000092012102AA8DF8093000F03CFF21B0DC
:105AB000F0BD00BFC408002006010020F0B5164B61
:105AC000C3B01B7813F0FB0F23D1144B1B7803B327
:105AD000E0238DF80C30CDB231238DF80E30C5F1B6
