:020000040800F2
:100000000050002055580008515800085158000869
:1000100051580008515800085158000800000000CD
:10002000000000000000000000000000515800081F
:1000300051580008000000005158000851580008AD
:1000400051580008515800085158000851580008EC
:1000500051580008515800085158000851580008DC
:10006000515800084D0A000851580008515800081E
:1000700051580008515800085158000851580008BC
:1000800051580008515800085158000851580008AC
:10009000515800085158000851580008515800089C
:1000A000515800085158000851580008515800088C
:1000B000515800085158000851580008515800087C
:1000C000515800085158000851580008515800086C
:1000D00051580008D14200088945000851580008CD
:1000E00051580008515800085158000800000000FD
:1000F0000000000000000000000000000000000000
:1001000000000000000000005FF808F108B5054895
:10011000054B1B1A062B00D808BD044B002BFBD047
:100120009847F9E7B4000020B70000200000000065
:1001300008B50748074B1B1A9B1003EBD3735910E4
:1001400000D108BD044A002AFBD09047F9E700BF60
:10015000B4000020B40000200000000010B5064CE0
:10016000237843B9FFF7D2FF044B13B10448AFF330
:1001700000800123237010BDB800002000000000A3
:1001800044A2000808B5074B1BB107480749AFF365
:1001900000800748036813B1064B03B19847BDE8D8
:1001A0000840C5E70000000044A20008BC00002091
:1001B000B000002000000000134B002B08BF114BC3
:1001C0009D46A3F5803A00218B460F461148124AFE
:1001D000121A06F0B3FB0D4B002B00D098470C4BC6
:1001E000002B00D098470020002104000D000B4890
:1001F00006F03DFB06F06CFB2000290001F076FEC6
:1002000006F03CFB000008000000000000000000B9
:1002100000000000B800002044130020A56800087A
:1002200010B540F26B31044601F0AAF904F1100157
:10023000002200238B540132502AFAD1F022A4F874
:100240006030A4F86230A4F86420A36684F86C30AF
:1002500084F86D30204610BD222A70B505460E4642
:100260000DD101F0A0F920280BD90024331928461C
:100270005978013401F0D9F9212CF7D103E0042099
:1002800070BD052070BD002070BD000037B50C4664
:10029000082523064CBF012300238DF807300748AB
:1002A0000DF1070101220023013D02F05DFE640013
:1002B00015F0FF05E4B2ECD103B030BD5C020020C4
:1002C00080F86D1070470000084B1B78622B08D136
:1002D0000023C21801335F21212B1174F9D1A0F83A
:1002E00060300023A0F86230704700BF880A002009
:1002F00038B590F86D300446B0F860502BB1B5B900
:1003000080F86C50FFF7E0FF11E085B901F06DF95E
:1003100068B12A4B1B78002B39D1012384F86C304B
:10032000B4F86430A4F860300023A4F86230B4F864
:100330006030002B40D0224802F03AFE0546082DDE
:1003400024D994F86C303BB1B4F8623020460133C4
:10035000A4F862305F2107E0B4F8623020465A1CEE
:100360002344197CA4F86220FFF790FFB4F86220C0
:10037000B4F86030083D9A42ADB2E0D30023A4F84F
:100380006230A4F8603084F86C3038BD38BD84F831
:100390006C50204601F06FF963190135212D187456
:1003A000F7D100230749E218595C0133272B82F863
:1003B0003110F7D14823B5E738BD00BFD70D002075
:1003C0005C020020986E000808B501F0ECF82323C9
:1003D000B0FBF3F080B208BD01EB4101890001F5EB
:1003E0001671A0F86410704710B54FF47A71044686
:1003F00001F0C6F804F11001002200238B540132F1
:100400005A2AFAD13C22A4F86A30A4F86C30A4F835
:100410006E202367204610BD292A70B505460E467A
:1004200010D101F0C0F829280ED92846002101F08A
:10043000FCF80024315D2846013401F0F6F8292C3F
:10044000F8D103E0042070BD052070BD002070BD10
:100450000C2A70B505460E4610D101F0A4F80C2800
:100460000ED92846012101F0E0F80024315D28462C
:10047000013401F0DAF80C2CF8D103E0042070BD4F
:10048000052070BD002070BD10B5044601F08BF84A
:1004900028B12046022101F0C8F8002010BD052037
:1004A00010BD00002DE9F047002096B0002301ACFC
:1004B0000355135401305328F8D118461C4611F83F
:1004C000038007461D01204600260124B44018EA97
:1004D000040F0CBF0024012404EB070C074427443D
:1004E000FF070CF0010C0FD5DFF8549105F007075A
:1004F00019F807A00DF1580909EBD50717F8549C16
:100500004AEA090907F8549CBCF1000F11D005F123
:10051000010C0DF1580909EBDC07DFF824910CF010
:10052000070C19F80C9017F854CC49EA0C0C07F892
:1005300054CC0136082E05F1020502D007462046AC
:10054000C3E701332A2BBAD13B4B002016AC04EB96
:10055000D00111F8541C0C0609D513F80D5C0126C6
:1005600006FA05F513F80E4C165D354315554F0682
:1005700009D513F80B5C012606FA05F513F80C4CA7
:10058000165D354315558E0609D513F8095C01260D
:1005900006FA05F513F80A4C165D35431555CD06D8
:1005A00009D513F8075C012606FA05F513F8084C7F
:1005B000165D35431555B0F5247F30D00C0709D5AD
:1005C00013F8055C012606FA05F513F8064C165DCE
:1005D000354315554F0709D513F8035C012606FA74
:1005E00005F513F8044C165D354315558E0709D5EE
:1005F00013F8015C012606FA05F513F8024C165DA6
:1006000035431555CD0707D55C78012505FA04F467
:100610001978555C2C4354540830103396E7002366
:100620000649585CD15C4140D1540133532BF7D17A
:1006300016B0BDE8F08700BFCD6E0008E773000874
:100640004274000873B50E460825012404EA060327
:10065000A3420CBF012300238DF8073007480DF19A
:10066000070101220023013D02F07EFC640015F029
:10067000FF05E4B2EAD102B070BD00BF5C02002009
:1006800070B5A2B0044600F0B0FF20B9B4F86A30EB
:10069000002B00F0A480204600F0E8FFB4F86A5078
:1006A00098BB002D6ED14F4B1B7833B901222367C5
:1006B00084F87420B4F86E305FE084F874502046FB
:1006C00000F0D9FF204600F0D6FF01A948550135BA
:1006D000292DF7D10DF132022046FFF7E3FEEA2380
:1006E0008DF83030B4F86A20A6238DF8313000231D
:1006F000D1180CA8185C89B201332144552B087419
:10070000F6D15532A4F86A2039E001281AD1002D1B
:1007100038D1344B84F874501B7803B923672046D2
:1007200000F0A9FF0C25B4F86A602046731CA4F8F9
:100730006A3000F0A0FF013D264415F0FF0530743B
:10074000F1D11CE002281DD1E5B984F8745020468F
:1007500000F091FFB4F86A3003F1120189B200226F
:10076000214D9818555D80B201322044062A057447
:10077000F6D106339BB28B42F1D1A4F86A30002344
:10078000A4F86C30B4F86A304BB3184802F010FC8F
:100790000546082D23D994F874303BB1B4F86C3079
:1007A00020460133A4F86C30AA2107E0B4F86C307D
:1007B00020465A1C2344197CA4F86C20FFF742FF02
:1007C000B4F86C20B4F86A30083D9A42ADB2E0D378
:1007D0000023A4F86C30A4F86A3084F8743022B096
:1007E00070BD00BFD70D00204A7400085C020020D5
:1007F00001EB410149009631A0F86E10704708B531
:1008000000F0D1FE0D23B0FBF3F080B208BD002153
:100810000023002210B5C0E902230170417000F1ED
:1008200010040B460022E2540133332BFAD100F1BD
:100830001103A0F84820A0F84A20436410BD00210D
:100840000022002301704170C0E90223A0F8481083
:10085000A0F84A1070470000D0E90223921840B572
:1008600043EB0303064619B10120002102430B4369
:10087000C6E902231148D6E90223002102401048AC
:100880000B4000215040594000F0BAF8A8B9736CF1
:10089000CD221A70736CF5225A70736C90229A7084
:1008A0000623A6F84A3001211423A6F848307170B7
:1008B0000448BDE8404002F02FBD40BDFFFF0F00DF
:1008C00059DF0C005C0200200148312202F0C8B957
:1008D000D0070020F8B5D0E90223921843EB0303B8
:1008E0000446C0E90223B0F84860456C2F4F002948
:1008F00051D0002101200B430243C4E90223F3102D
:1009000006F00706EA5CE918BB5D13430B70B4F808
:1009100048305A1C113B042BA4F8482013D8D4E9C2
:10092000022323480021024022480B40002150406E
:10093000594000F065F8032805D80623A4F84A308A
:100940001423A4F84830B4F84830B3F5C07F2BD155
:10095000B4F84A50013DADB2A4F84A5045B9164822
:10096000294602F0D9FC154802F0A8F96570F8BDD7
:100970006B1F5D425D41264606F8105F20463146FA
:10098000FFF7A2FF30460021332205F0D7FF0023F6
:10099000A4F84830F8BDF21006F00706B85DAB5C6D
:1009A000A91823EA0003B1E7F8BD00BF5674000898
:1009B000FFFF0F0059DF0C005C020020D007002071
:1009C00043780BB9FFF748BFFFF784BF014B185CB2
:1009D000704700BF5E740008084BC0F30721C2B225
:1009E000595C9A5C82B00A44C0F30741595C000E1E
:1009F0001B5C0A44D018C0B202B070475E74000895
:100A0000114B82B0CDE90001C2B2C0F30721595C9D
:100A10009A5C0A44C0F30741595C000E185C0A4412
:100A200010449DF80420995C9DF805200844995CC9
:100A30009DF806200844995C9DF8072008449B5CBB
:100A40001844C0B202B070475E74000808B50820B0
:100A500004F038FE38B1044802F076FDBDE80840E5
:100A6000082004F03DBE08BD5C0200202DE9FF47D0
:100A70001D20012104F0A4F901217F4804F06EFD3E
:100A8000002004F019F901214FF4000004F0A4F94A
:100A90004FF4407004F0E6FB684604F01EFD0323AB
:100AA0008DF802304FF480541023744869468DF855
:100AB0000330ADF8004004F0C2FC7048214600222B
:100AC00004F029FD00230193019BB3F5007F02D2BE
:100AD000019B0133F7E704264FF4805A69466748C3
:100AE000032410258DF80360ADF800A004F0A7FCE6
:100AF000202369466248ADF800308DF802408DF839
:100B0000035004F09CFC402369465D48ADF800307A
:100B10008DF802408DF8035004F091FC8023694663
:100B20005748ADF800308DF803604FF480798DF8A8
:100B3000024004F084FC694651484FF480488DF827
:100B40000240ADF800908DF8035004F078FC69463F
:100B50004C488DF80240ADF800808DF8035004F049
:100B60006EFC6946464808278DF803608DF8024000
:100B7000ADF8005004F063FC694641488DF803600D
:100B80008DF802404FF40056ADF8007004F057FCA9
:100B900069463C48ADF800608DF802408DF803507E
:100BA00004F04DFC4FF4007369463548ADF8003051
:100BB0008DF802408DF8035004F041FC694630483E
:100BC0008DF80240ADF800A08DF8035004F037FC1A
:100BD00069462B48ADF800608DF802408DF803504F
:100BE00004F02DFC022369462548ADF800300126AB
:100BF0008DF802408DF8035004F021FC694620482E
:100C00008DF80240ADF800608DF8035004F017FC39
:100C100069461A488DF80240ADF800908DF80350EF
:100C200004F00DFC694616488DF80240ADF80080CE
:100C30008DF8035004F003FC4FF40043694610485C
:100C4000ADF800308DF802408DF8035004F0F7FB4A
:100C50003046214604F0B2FC00230DEB070002975A
:100C60008DF80C308DF80D508DF80E6004F0D0FC2E
:100C700004B0BDE8F08700BF00023000000801406A
:100C8000000C01400010014007B509238DF8043025
:100C90000F22012301A88DF805308DF806208DF86C
:100CA000073004F0E9FA03B05DF804FB07B503234D
:100CB0008DF806301023ADF8043001B90423044840
:100CC00001A98DF8073004F0BAFB03B05DF804FB0E
:100CD000000C01400A460248202104F01CBC00BF61
:100CE000000C01400A460248402104F014BC00BF39
:100CF000000C014008B58021034804F0F6FB431EB8
:100D00005842584108BD00BF000C01400A46024845
:100D10004FF4807104F0FFBB000C01400A4602480A
:100D20004FF4804104F0F7BB0010014008B51021DA
:100D3000034804F0DAFB431E5842584108BD00BF87
:100D4000000C014008B50821034804F0CEFB431E07
:100D50005842584108BD00BF000C01400A460248F5
:100D6000102104F0D8BB00BF000C01400A46024825
:100D7000082104F0D0BB00BF000C01400A46024825
:100D80004FF4005104F0C7BB001001400A4602486E
:100D90004FF4007104F0BFBB000C01400A4602484A
:100DA0004FF4805104F0B7BB000C01400A460248E2
:100DB0004FF4005104F0AFBB000C01400A4602485A
:100DC000022104F0A8BB00BF000C01400A46024803
:100DD000012104F0A0BB00BF000C01400A460248FC
:100DE0004FF4807104F097BB000801400A460248A6
:100DF0004FF4804104F08FBB000C01400A460248CA
:100E00004FF4004104F087BB000C0140024B184630
:100E10000138FDD8704700BFBFD4010040F60F6312
:100E200018460138FDD870470C235943013908464C
:100E30000138FDD8704700BF00BF00BF704710B534
:100E400040F2DC51044600F09BFB04F1100100224B
:100E500000238B540132FA2AFAD1F022A4F80A3185
:100E6000A4F80C31A4F80E21C4F81031204610BDAE
:100E7000122AF8B506460F46144616D900F093FB21
:100E8000A04214D3651E3046E9B200F0CEFB002428
:100E9000E3B2AB4204F1010405D23B443046597839
:100EA00000F0C3FBF4E70020F8BD0420F8BD0520E6
:100EB000F8BD000037B50C46082523064CBF0123BA
:100EC00000238DF8073007480DF1070101220023A8
:100ED000013D02F049F8640015F0FF05E4B2ECD1E1
:100EE00003B030BD5C020020F8B5044600F07DFB85
:100EF000B4F80A5108B905B9F8BD25BB2A4B1B78CF
:100F00004BB9012384F81431B4F80E31C4F81051F0
:100F1000A4F80A3114E0204600F0ADFB84F8145127
:100F20000746EBB2BB420BD2B4F80A612046731CF1
:100F3000A4F80A3100F09FFB264430740135F0E735
:100F40000023A4F80C31B4F80A315BB3174802F05F
:100F50002FF80546082D24D994F814313BB1B4F884
:100F60000C3120460133A4F80C31772107E0B4F8A6
:100F70000C3120465A1C2344197CA4F80C21FFF79D
:100F800099FFB4F80C21B4F80A31083D9A42ADB289
:100F9000E0D30023A4F80C31A4F80A3184F814310A
:100FA000F8BDF8BDF8BD00BFD70D00205C020020E1
:100FB00001EB4101890001F51671A0F80E1170478F
:100FC00008B500F0F0FAD823B0FBF3F080B208BD0A
:100FD0007047B1F5006F10D34FF4802321F4FF6206
:100FE00022F007024AB10B4201D15B08FBE7DA0AA3
:100FF00040F6754042435140F0E708467047000014
:1010000010B54C780B78E40004EBC3248B7804EB28
:1010100053142146FFF7DDFF034B53F8203003B193
:101020005C40C4F3C72010BD60770008F7B51F46C9
:101030000B7B4D7B9B0043EA95138DF80430CB7CF2
:10104000AD009B000C7D03F03C0325F03F051D43E4
:1010500045EA9415A40024F00F0401A916468DF862
:1010600005508DF80640FFF7CBFF030900F00F0095
:101070003370387003B0F0BD02F00F0242EA011184
:10108000134AC9B230B51C7B32F811205D7B24F0C5
:101090003F04D0B244EA910405F00F051C738408A4
:1010A00045EA811104F0300529435973D97C04F0D5
:1010B0000F0421F00F010C43197D920A01F0030186
:1010C00041EA801002F03C021043DC74187530BD18
:1010D0005E75000800220023C0E90023002342F2CD
:1010E0000F72A0F86C32A0F86E32A0F87032A0F83F
:1010F000722280F8743280F8753280F8763280F887
:10110000773280F8783280F8793270470023A0F87F
:101110006E3280F8743280F8753280F87732A0F839
:10112000703242F20F73A0F8723270470000000074
:1011300070B5D0E900234FF0FF344FF6FF75224021
:101140002B4006462BA1D1E9000150405940FFF742
:1011500057FC032827D9D6E9002328A1D1E90001AB
:1011600022402B4050405940FFF74AFC03281AD92F
:10117000D6E9002323A1D1E9000122402B405040B1
:101180005940FFF73DFC03280FD9D6E900231FA1E2
:10119000D1E9000114401D4060406940FFF730FC78
:1011A000032802D970BD402300E0202386F8743262
:1011B000B6F86C3203F2A51292B2B2F5107FA6F81F
:1011C0006E3201D3A3F19B02A6F8702203F16C02E8
:1011D00092B2B2F5107F07D3A3F5EA73A6F8723284
:1011E000034B00221A6070BDA6F87222F8E700BF18
:1011F000D80D002057D77FF7D7D50000F5F75F7FD0
:1012000055D70000FD7DD55D7D7F00005F5DF5D584
:10121000FF7D0000AFF300802DE9F0470024E5B228
:10122000954280F0908000251D5546184D1C96F87B
:101230000880ADB2B5F5107F28BFA1F23F214FEA7B
:10124000C81828BF8DB25FFA88F803F804804119E6
:101250006F1C91F808C0BFB2B7F5107F28BFA5F288
:101260003F270CF0010C28BFBFB248EA8C1C03F8E2
:1012700004C0C1197E1C91F808A0B6B2B6F5107F63
:1012800028BFA7F23F260AF0010A28BFB6B24CEAEF
:101290004A1A03F804A08119751CADB291F80890A0
:1012A000B5F5107F28BFA6F23F2509F0010928BF38
:1012B000ADB24AEA091903F804904619691C89B2CB
:1012C00096F80880B1F5107F28BFA5F23F2108F0FD
:1012D000010828BF89B249EAC80803F80480451804
:1012E0004E1CB6B295F808C0B6F5107F28BFA1F223
:1012F0003F260CF0010C28BFB6B248EA8C0C03F86C
:1013000004C08119751CADB20F7AB5F5107F28BFE6
:10131000A6F23F2507F0010728BFADB24CEA470708
:101320001F554619367A691C89B2B1F5107F06F04F
:10133000010646EA070728BFA5F23F211F5528BF2F
:1013400089B201346BE7BDE8F08780F87612704708
:101350000A4602480121222301F06CBBD00700207D
:1013600073B50646B0F86C0233181972D6E900233B
:10137000921843EB030319B10124002522432B43A8
:10138000C6E9002396F877321BB93046FFF7D0FE46
:101390001BE0B6F86E1201F23E2292B2B2F5107F57
:1013A00001F102039BB224BF8A1E92B2B3F5107FF3
:1013B00024BFA1F23E239BB29A4202D2904204D3B0
:1013C00001E09042E1D29842DFD9B6F86C22B6F83B
:1013D00072329A4240F0BB8096F8743206F2492489
:1013E00086F8483230462346B6F870122122FFF7BD
:1013F00013FF96F87432402B59D101A8FFF7E8FD8E
:101400000DF106020DF1070301A82146FFF70EFEBC
:101410009DF8062096F876329A4240F09580002397
:1014200096F8482286F8753286F878329DF80730AB
:101430001A4386F848220A2B30D8DFE803F01E2230
:101440002B2F2F2F0610102F1000304606F512718B
:10145000FFF77EFF022386F8773200230AE096F832
:101460007732022B70D1304606F51271FFF770FF0C
:101470009DF8073086F8793266E096F87732012BCE
:1014800004D1304606F51271FFF762FF012386F89A
:10149000773259E096F87732012B55D1304606F570
:1014A0001271FFF755FF3046FFF730FE4CE0202B5E
:1014B0000DD1304606F51271FFF74AFF012386F879
:1014C0007732002386F8753286F878323CE096F859
:1014D000773273B196F875320133DBB20C2B86F894
:1014E000753206D92448012101F0D4FA3046FFF7BD
:1014F0000DFE96F87732012B18D196F87832042B2E
:1015000006D9202386F84832002386F8783205E091
:101510000133DBB286F8783286F84832164801216A
:1015200006F51272222301F085FA0DE0022B0BD191
:1015300096F8793243B143F0400386F8483230469A
:1015400006F51271FFF704FF002386F87432B6F82F
:101550006C3296F8771201339BB2B3F5107F28BF37
:1015600000230031A6F86C32044818BF012101F0B5
:10157000D3FE02B070BD00BFD00700205C02002087
:10158000002310B503810446438101804360037347
:10159000084604F095F96060204610BD00230381E1
:1015A0004381037370474289038992B29BB29A4286
:1015B000038803D1027B92B9184612E0418902895F
:1015C00089B292B2914205D20289408980B2184410
:1015D000801A02E041890289881A80B201E0002065
:1015E0007047834238BF002070474289038992B216
:1015F0009BB29A4205D1037B03F0FF029BB10088A6
:1016000070474289038992B29BB29A4203D20289FF
:101610004389D01A05E043890189028889B2881874
:10162000C01A80B2704710467047037B10B503F0B4
:10163000FF02BBB904894368A4B219550389018824
:1016400001339BB2038103899BB2994298BF028107
:101650000289438992B29BB29A424FF0010303D1AF
:10166000037301E0002010BD184610BD4389426895
:101670009BB2D05C704710B54189426889B203467D
:10168000505C00221A7359891C88013189B2598132
:101690005989C0B289B28C4298BF5A8110BD0022CC
:1016A0000270426000F1080100238B540132642A69
:1016B000FAD1C366036743678367C367C0F88030A6
:1016C000C0F8843000F188010022CA500433A82BEE
:1016D000FAD100F5987100238B500432A82AFAD170
:1016E00000F5EC710022CA500433A82BFAD100F5A2
:1016F000207100238B500432A82AFAD100F54A72D7
:101700000021D15401332A2BFAD1704700230370F2
:101710004360C366036770472DE9FF410D68866F1C
:10172000446F06EB050C0F69D0F88050E2082F4497
:101730006745D4BF0097CDF800C09200BC4504F0C7
:10174000070300EB020C07DA394F17F80380DCF8C7
:10175000887007EA080706E0364F17F80380DCF8C0
:10176000887047EA0807CCF888704F683E444F6994
:101770003D44B542D4BF01950196AE4200EB02054F
:1017800005DA2B4EF75CD5F830613E4004E0294E77
:10179000F75CD5F830613E43C5F830618E68C56F9F
:1017A0008F6905EB060CD0F8846037446745D4BFD9
:1017B0000297CDF808C0BC4500EB020C07DA1C4FBD
:1017C00017F80380DCF8D87107EA080706E0194F1C
:1017D00017F80380DCF8D87147EA0807CCF8D8710D
:1017E000CF68C9693D443144A942D4BF03910395F0
:1017F0008D42024405DA0E49C95CD2F880320B40B2
:1018000004E00C49C95CD2F880320B43C2F8803244
:10181000009B01348367019B4467C367029BC0F848
:101820008030039BC0F8843004B0BDE8F08100BF75
:10183000E39C0008EB9C000870B591E80C0088B0B0
:10184000991883F0010682F001052B44324400917F
:1018500074190591694601940292039304940693C6
:101860000792FFF759FF08B070BD000070B5002364
:1018700040F249121946032948D8DFE801F0020E68
:101880001B31244D02F007042D5DD410223450F892
:101890002440254218BF022118E01E4D02F0070126
:1018A0006C5CD1104C3150F821100C4214BF022155
:1018B000002120E0174C02F00701645CD110763162
:1018C00050F821100C4214BF03210121124E03F0E5
:1018D000070500EBD304765D94F82853354012E0F9
:1018E0000C4D02F007042E5DD410A03450F82440B3
:1018F000264208BF012100EBD30403F00706AE5DCA
:1019000094F82853354384F82853013312F1FF32F9
:10191000B1D270BDEB9C0008E39C000810B54FF0FD
:10192000FF320023CC5C0E485440E4B230F814007F
:10193000C2F3072201335040272B0246F2D1C043A5
:1019400091F82720C3B29A4207D191F82830C0F30A
:101950000720C31A5842584110BD002010BD00BFD7
:10196000049D0008F0B5002399B004461646794A54
:10197000985CCA5C4240CA540133532BF7D1002310
:10198000002203A81A540133542BF9D1724BD01002
:10199000085CC5070FD513F80E5C18AF3D4413F86B
:1019A0000D7C4FF0800E2EFA07F715F854EC47EA3D
:1019B0000E0705F8547C87070FD513F80C5C18AF99
:1019C0003D4413F80B7C4FF0800E2EFA07F715F804
:1019D00054EC47EA0E0705F8547C45070FD513F879
:1019E0000A5C18AF3D4413F8097C4FF0800E2EFAC4
:1019F00007F715F854EC47EA0E0705F8547C07077B
:101A00000FD513F8085C18AF3D4413F8077C4FF06E
:101A1000800E2EFA07F715F854EC47EA0E0705F882
:101A2000547CB2F5247F09D10023A367E367C4F88F
:101A30008030C4F8843063671D4646E0C5060FD584
:101A400013F8065C18AF3D4413F8057C4FF0800E88
:101A50002EFA07F715F854EC47EA0E0705F8547C00
:101A600087060FD513F8045C18AF3D4413F8037CC8
:101A70004FF0800E2EFA07F715F854EC47EA0E07E0
:101A800005F8547C45060FD513F8025C18AF3D44A9
:101A900013F8017C4FF0800E2EFA07F715F854EC7E
:101AA00047EA0E0705F8547C07060BD5187818ADE1
:101AB00028445D78802727FA05F510F8547C3D43CB
:101AC00000F8545C0832103361E705F0070280210A
:101AD000D14018AF07EBE50313F8543C20461940FA
:101AE00018BF01210291402121FA02F2134018BFD0
:101AF000012301A902350193FFF79EFEB5F5257F6D
:101B0000E3D12046FFF7B2FE00220023B354013296
:101B1000292AFAD1C3F5A4720132104802F0070154
:101B200004EBE202415C92F82823114208D0012024
:101B300003F0070100FA01F1DA08B05C0143B15487
:101B40000133B3F5A57FE5D120463146FFF7E6FE28
:101B500019B0F0BD889C00086E970008EB9C000847
:101B600030B542688DB0520004464260C36E89B3FE
:101B700042F0010242601D4DDA0803F00700A1188F
:101B8000285C097A014301332244B3F5257F1172A1
:101B9000E36628D104F108052046294601AAFFF78B
:101BA000E1FEA8B11248012101F0B6FB114801A9DC
:101BB000292200F0ABFE284600210E2204F0BEFED2
:101BC0000023E3660223237040F2817323670AE057
:101BD000207008E0DA08084D03F00700A118285C1F
:101BE000097A0140CFE70DB030BD00BFFB9C000873
:101BF0005C020020D0070020F39C000801480C2262
:101C000000F0B0BED0070020436870B55B0004460A
:101C100009B143F001036360606880F0AA30FEF709
:101C2000DBFE022803D81D4A0023136034E06068FD
:101C300020F07F431A485840FEF7CEFE022809D80C
:101C400004F108000021532204F078FE0023E3662B
:101C5000012321E0606820F07F4312485840FEF7DE
:101C6000BBFE0546C8B91048012101F055FB0F4ADB
:101C700004F1080613682046A36053683146E36008
:101C800093682361FFF7BAFF304629460E2204F01D
:101C900055FEE56625670223237070BDD80D002030
:101CA0005076550068B4AA005C020020049F00082A
:101CB0004268F8B5520004464260C36E002900F045
:101CC000828042F001024260444DDA0803F00700CE
:101CD000A118285C097A014322440133117240485B
:101CE000E36663685840FEF777FE012807D83D4851
:101CF000002101F011FB3C4800F07EFE3EE0236F26
:101D0000A3F2DD73042B01D900260DE0606820F0FA
:101D10007F4336485840FEF75FFE0228F4D8602320
:101D2000E366002323670126236FB3F5FC6F18D108
:101D300001256FF07F42EA406368EFB213402B4AFF
:101D400022FA05F05840FEF747FE022806D8E36E57
:101D5000DB1BE366236FDF1B276702E00135042DE1
:101D6000E7D1236F0133B3F5965F236709D31D488D
:101D7000002101F0D1FA1C4800F020FE002323705E
:101D8000F8BDE36E602B27D104F1080556B1552349
:101D900063742D23A3741623E37420462946FFF7AA
:101DA0002DFF04E0104829460C2200F0DBFD0D4811
:101DB000012101F0B1FA284600210E2204F0BEFDF7
:101DC0000023E366F8BDDA08094D03F00700A11807
:101DD000285C097A01407FE7F8BD00BFFB9C000842
:101DE0005E13AAAA5C020020D007002068B4AA00F3
:101DF000F39C00080378012B05D002D3022B04D0FA
:101E00007047FFF701BFFFF7ABBEFFF751BF000000
:101E1000014800F0D5BB00BFD007002038B52348EB
:101E200001F03EF9224800F0DBFB224B224C1B78EC
:101E30002BB12378012B02D12048FEF721FC204B47
:101E4000204D1B783BB12378022B04D12B7813B99A
:101E50001D48FEF74DFA1D4B1B782BB12378032B41
:101E600002D11B4802F05CF91A4B1B782BB1237886
:101E7000042B02D11848FFF737F8184B1B782BB109
:101E80002378052B02D1164802F06CF82B78622BD0
:101E900001D05C2B02D1134801F0D4FA237823B986
:101EA0001148BDE8384002F0BFBD38BD5C020020DB
:101EB000D007002008000020D40800205C06002085
:101EC00007000020880A0020DC0D0020050000200B
:101ED000100D002009000020D80800200400002078
:101EE00000060020B10D00202801002008B5FFF7F2
:101EF0008FFFFFF793FFFCE708B51648FFF7CFFB0E
:101F00001548FEF771FA1548FFF7E4F81448FEF794
:101F100087F9144801F0E8FE134802F0B5F81348B9
:101F200002F05DFC1248FEF78AFF1248FEF76FFCD4
:101F3000114801F0C7FF114801F006FA104802F0FD
:101F400065FD104800F022F8BDE808400E4800F09A
:101F5000AFBF00BFAC0200205C060020900A00204A
:101F6000DC0D0020F0090020100D0020D806002014
:101F7000D8080020D800002000060020B10D002065
:101F800028010020D00700205C020020002200234E
:101F900083540132B2F5807FF9D180F8003180F8A6
:101FA000013180F8023180F8033170471FB570228B
:101FB0008DF80E208278E0238DF80F2000228DF816
:101FC0000C3000920423012103AA8DF80D3002F099
:101FD000ECFB05B05DF804FB1FB57F228DF80A20ED
:101FE0008278E0238DF80B2000228DF808308DF8E0
:101FF0000C1005230092012102AA8DF8093002F08D
:10200000D4FB05B05DF804FB2DE9F043044687B02E
:102010004D4801F094F900228DF80B204B4AE02343
:102020008DF8083011780C238DF8093001238DF8D4
:102030000A30914609B18DF80B30454B1A78984615
:102040002AB19DF80B3043F002038DF80B30414F5D
:102050003B782BB19DF80B3043F004038DF80B3027
:102060003D4B1A781E462AB19DF80B3043F0080309
:102070008DF80B30394B1A781D462AB19DF80B307C
:1020800043F010038DF80B30354B2F481B788DF83B
:102090000C30344B1B788DF80D3000F08FFF28B1D9
:1020A0009DF80D3043F004038DF80D30264800F004
:1020B00082FF28B19DF80D3043F008038DF80D30F4
:1020C00099F800302BB12848FEF799FB8DF80E00E7
:1020D00001E08DF80E3098F8003043B10A23234810
:1020E0008DF80F30FEF770F98DF8100003E08DF8D1
:1020F0000F308DF810303B782BB11D4802F078F886
:102100008DF8110001E08DF8113033782BB11948AA
:10211000FEF756FF8DF8120001E08DF812302B7893
:102120002BB1154801F0A8FF8DF8130001E08DF8E0
:102130001330002300932046012102AA0C2302F051
:1021400034FB07B0BDE8F0835C02002008000020EB
:1021500007000020050000200900002004000020E6
:10216000D4080020D70D00205C060020DC0D0020E4
:10217000100D0020D80800200006002010B5E02334
:102180009CB08DF80C30002201238DF80E208DF8C4
:102190000F300A4CD1B2615C131DDBB2013221B1A8
:1021A0001CAC234403F8641CF3E7009103AA01214B
:1021B0008DF80D3002F0F9FA1CB010BD109F000828
:1021C0002DE9F04F0C2A89B005460B4601D80420B2
:1021D000F3E00878C0F3001185F802119C780590AF
:1021E000322C5978F3D8DF7801F00109052FC1F3BB
:1021F0004008C1F38006C1F3C00AC1F3001C08D92E
:10220000A7F16201012915D95C2F1ED0602FDED104
:102210001BE0012F03D1B9F1000FD8D015E0022F38
:1022200003D1B8F1000FD2D00FE0032F02D1002E5E
:10223000CDD00AE0042F03D1BAF1000FC7D004E0DB
:10224000052F02D1BCF1000FC1D099790F29079158
:10225000BDD858795A490F2A4FEAA000059A93F839
:102260000AE093F80BB00870597A187B8CBFDB7BBF
:102270008023C2F3C0028DE8090006925B460292F9
:1022800050487246CDF810C0DFF86CB101F046FC42
:102290004D4A4E484E494F4BDDF810C05C2F82F836
:1022A00000A08BF8009080F800800E70914683F8B3
:1022B00000C006468A46484ADFF8408103D007F04E
:1022C000FD01602913D1012131700221117095F8AF
:1022D000032188F8007012B13A4801F04DFC602FDC
:1022E00009D138480221012201F016FA03E01770E3
:1022F000002288F80020059B3849DA43C2F3C01257
:102300000A7022B198F800300BB9632F52D13448CB
:102310002146FEF76DFA3348214601F061FF32484D
:102320002146FEF745FE3148214601F09DFE30482A
:102330002146FEF751F82F480799FFF706F8214884
:10234000069900F0F9FF95F803312BB15C2F23D0EB
:1023500007F0FD03602B1FD09BF800301BB101215B
:1023600018480A4616E0337813B11648022110E0E7
:102370009AF8003013B1134803210AE099F80030AD
:1023800013B11048042104E01248037823B10D482A
:102390000521012201F0C0F90A4800F05BFF5C2F23
:1023A00004D007F0FD0CBCF1600F05D1012385F8C6
:1023B000033101E0062000E0002009B0BDE8F08F05
:1023C000060000205C020020090000200700002019
:1023D0000500002004000020D4080020B00D0020DB
:1023E0005C060020100D0020D80800200006002008
:1023F000DC0D0020900A002008000020880A002040
:10240000082A70B51FD9CD7888780A2A4FEA054581
:102410004A7805EB00251544CA798C7948794FEA4A
:10242000024202EB04220E790C7A024408BF4B7A76
:1024300002EB046205EB066118BFFF230348BDE809
:10244000704000F0BFBD042070BD00BF5C020020E2
:1024500038B54B1E0C46042B35D8DFE803F00703D4
:102460000E1825002148FFF751F902E02048FEF739
:102470004DFE204801F051FC05E01D48FEF746FEE8
:102480001A48FFF743F91C4802F0C2F908E018485F
:10249000FEF73CFE1548FFF739F9164801F03DFC00
:1024A0001648FEF7CCF90BE01148FEF72FFE0F4857
:1024B000FFF72CF90F4801F030FC0F4802F0A8F9A3
:1024C0000F4802F059FB0F4B1C701D4644B10E4BD8
:1024D0001B78A34204D00D482146012201F01CF9CB
:1024E00029780A48BDE8384000F0B2BDAC020020AF
:1024F000900A0020F0090020D8060020D800002013
:1025000028010020D40800205A0200205C0200208C
:1025100010B50446002A41D0214B09781B788B4224
:102520003AD0052908D9A1F16203012B10D95C2901
:102530001ED0602932D11BE0012901D1194B0EE0D8
:10254000022901D1184B0AE0032901D1174B06E0FB
:10255000042901D1164B02E0052903D1154B1B7844
:10256000E3B111E0622903D05C2901D060290BD1CD
:102570000D4B01221A70104B197094F803313BB1C6
:102580000E4801F0F9FA03E00B4B00221A7000E04C
:1025900002212046FFF75CFF002010BD042010BD83
:1025A000D4080020080000200700002005000020BB
:1025B0000900002004000020880A00205C0200209E
:1025C00010B5012104464FF4E13202F0CDF8204667
:1025D00003214FF41652BDE8104002F0C5B80000C8
:1025E00037B504462046012102F0C8F80546002808
:1025F00000F055812046012102F0CDF894F8002129
:1026000052B9E02803BF0123207084F8003184F818
:10261000002184F80121E5E7012A06D10223607038
:1026200084F8010184F80031DCE7531C94F80111AF
:10263000DBB29942A05484F80031D3D1A178132998
:1026400000F0B8801DD804295AD00ED8012941D0F5
:1026500044D3022946D0032940F01781023A20468C
:10266000E11CD2B2FFF754FF42E00A2960D002D841
:1026700008294CD009E1102973D0112900F08B8072
:1026800003E1202900F0BC800CD81A2900F09E80BC
:1026900003D8182900F0FD80F7E01C39022940F228
:1026A000F880F2E0312900F0C38003D8302900F02F
:1026B000BF80EAE0402900F0D080802940F0E5802A
:1026C00000220321033B0092204662189BB202F0D5
:1026D0006CF8DEE02046FFF797FCDAE02046FFF7D3
:1026E0004DFDD6E0023A2046E11CD2B2FFF768FD6C
:1026F0000146002840F0C7802046FFF757FCC8E09D
:10270000023A2046E11CD2B2FFF77AFEF0E76F4BA7
:102710001B78622B01D05C2B06D1023AE11CD2B2AD
:102720006B4800F0AFFEE3E7602B40F0AB80E3E7DF
:10273000684B1B789BB9684B0122684861211A706D
:1027400000F0EAFF94F80121E11C033A6448D2B298
:1027500002F0B0F90146002800F09B8093E00521CB
:1027600091E0604B1B78002B00F08C80594D2B784A
:10277000012B00F28780023A5B48E11CD2B2FDF7E0
:102780004BFE014600287ED12B78002B40F0818043
:102790002046012131E0534B1B78002B72D04D4D68
:1027A0002B78012B6ED8023AE11CD2B24E48FDF7CD
:1027B0004FFEE6E74B4B1B78002B63D0454D2B7843
:1027C000012B5FD84848FDF75FFEDAE7474B1B78DF
:1027D000002B57D03F4D2B7813F0FD0F52D1023A0A
:1027E000E11C4348D2B2FDF737FD014600284AD12B
:1027F0002B78002B4DD120460221FFF729FE48E01F
:102800003C4B1B78002B3DD0324D2B780BB1032B6A
:1028100038D1023AE11C3848D2B201F04EFC0146F0
:10282000002830D12B78002B33D120460321E4E758
:10283000324B1B7833B3274D2B7813F0FB0F21D18C
:10284000023AE11C2E48D2B2FEF712FB0146D0B983
:102850002B78F3B920460421CFE72A4B1B788BB1A4
:102860001C4D2B780BB1052B0CD1023AE11C2648EC
:10287000D2B201F043FB014628B92B784BB9204670
:102880000521BAE70221204601E020460121FFF799
:10289000A3FB002384F8003184F80131A2E60F483D
:1028A00000F050FD4BF67F33984203D984F8005175
:1028B00084F801512046032101F060FF20B1204639
:1028C000032101F068FFF5E703B030BD880A00205E
:1028D000B10D0020D4080020D60D00205C0200209D
:1028E00028010020080000205C06002007000020CE
:1028F000DC0D002005000020100D00200900002044
:10290000D8080020040000200006002030B5134B3A
:1029100091B01B78012B1FD8114B1B78E3B1E0233A
:102920008DF80C3010238DF80E300024E3B2DD1C3E
:102930009342EDB206D210AB1D440B5D013405F895
:10294000343CF3E7D31C0022DBB20092012103AA3E
:102950008DF80D3001F029FF11B030BDD4080020F2
:102960000800002030B5134B89B01B78012B1FD80D
:10297000114B1B78E3B1E0238DF80C3011238DF857
:102980000E300024E3B2DD1C9342EDB206D208AB58
:102990001D440B5D013405F8143CF3E7D31C002201
:1029A000DBB20092012103AA8DF80D3001F0FDFE8B
:1029B00009B030BDD4080020080000201FB50C4B22
:1029C0001B78012B11D80B4B1B7873B11222E0231B
:1029D0008DF80E2000228DF80C3000920323012187
:1029E00003AA8DF80D3001F0E0FE05B05DF804FBA0
:1029F000D4080020080000201FB50C4B1B78012BC9
:102A000011D80B4B1B7873B11322E0238DF80E20E5
:102A100000228DF80C3000920323012103AA8DF8C7
:102A20000D3001F0C2FE05B05DF804FBD4080020B3
:102A30000800002030B5154C8DB0247814F0FD044A
:102A400022D1134D2D78FDB100290CBF18211A2178
:102A5000E0258DF80A108DF808502146CCB2E51C0F
:102A60009C42EDB206D20CAC2544545C013105F811
:102A7000284CF3E700220333DBB20092012102AAC3
:102A80008DF8093001F091FE0DB030BDD408002062
:102A9000070000201FB50E4B1B7813F0FD0214D168
:102AA0000C4B1B788BB100294FF0E0030CBF1921B0
:102AB0001B218DF80C308DF80E100323009201219C
:102AC00003AA8DF80D3001F070FE05B05DF804FB2F
:102AD000D40800200700002030B5144BA5B01B78A7
:102AE000032B00D0FBB9124B1B78E3B1E0238DF828
:102AF0000C3020238DF80E300024E3B2DD1C93420D
:102B0000EDB206D224AB1D440B5D013405F8843CC4
:102B1000F3E7D31C0022DBB20092012103AA8DF857
:102B20000D3001F042FE25B030BD00BFD4080020BA
:102B3000050000201FB50D4B1B78032B00D08BB96F
:102B40000B4B1B7873B12122E0238DF80E2000225D
:102B50008DF80C3000920323012103AA8DF80D306B
:102B600001F023FE05B05DF804FB00BFD40800208F
:102B70000500002030B5134BA1B01C7814F0FB0405
:102B80001ED1114B1B78DBB1E0238DF808303023C8
:102B90008DF80A30E3B2DD1C9342EDB206D220ABD1
:102BA0001D440B5D013405F8783CF3E7D31C00228B
:102BB000DBB20092012102AA8DF8093001F0F5FD87
:102BC00021B030BDD40800200900002030B5134BDF
:102BD000C3B01C7814F0FB041ED1114B1B78DBB181
:102BE000E0238DF80C3031238DF80E30E3B2DD1C7C
:102BF0009342EDB206D242AB1D440B5D013405F8A1
:102C0000FC3CF3E7D31C0022DBB20092012103AAB3
:102C10008DF80D3001F0C9FD43B030BDD40800205F
:102C2000090000201FB50C4B1B7813F0FB0210D1DC
:102C30000A4B1B786BB1E02332218DF80C308DF8F4
:102C40000E1003230092012103AA8DF80D3001F02C
:102C5000ACFD05B05DF804FBD4080020090000209D
:102C600030B5144BA5B01B78052B00D0FBB9124B27
:102C70001B78E3B1E0238DF80C3040238DF80E3043
:102C80000024E3B2DD1C9342EDB206D224AB1D4416
:102C90000B5D013405F8843CF3E7D31C0022DBB262
:102CA0000092012103AA8DF80D3001F07EFD25B0C0
:102CB00030BD00BFD4080020040000201FB50D4B1C
:102CC0001B78052B00D08BB90B4B1B7873B14122BD
:102CD000E0238DF80E2000228DF80C3000920323A3
:102CE000012103AA8DF80D3001F05FFD05B05DF8FC
:102CF00004FB00BFD40800200400002038B50023E6
:102D00000446218083814360C381836003744374DC
:102D100008460D4602F0D4FD6060284602F0D0FD62
:102D2000A060204638BDC289838992B29BB29A4284
:102D3000038803D1027C92B9184612E0C1898289C6
:102D400089B292B2914205D28289C08980B2184478
:102D5000801A02E0C1898289881A80B201E00020CD
:102D60007047834238BF00207047C289838992B27E
:102D70009BB29A4205D1037C03F0FF029BB100880D
:102D80007047C289838992B29BB29A4203D28289E8
:102D9000C389D01A05E0C3898189028889B288185D
:102DA000C01A80B2704710467047037C30B503F0FC
:102DB000FF041BB101234374002030BD85894368A3
:102DC000ADB259558189836889B25A548389028882
:102DD00001339BB2838183899BB29A4298BF8481DD
:102DE0008289C38992B29BB29A424FF0010308BF15
:102DF0000374184630BD10B503468489C089A4B257
:102E000080B2844204D11C7C04F0FF0004B910BDE0
:102E1000DC895868A4B2005D0870D889996880B2CE
:102E2000095C117000221A74D9891888013189B29D
:102E3000D981D98989B2884200D8DA81012010BDB0
:102E400003460022407C5A747047F8B504460626B3
:102E500000277D2520464FF47A71FDF7E5FF013DFF
:102E6000F8D187F0010520463946FDF787FF204657
:102E70002946FDF7BBFF20462946FDF78FFF204678
:102E80002946FDF793FF20462946FDF797FF204688
:102E90002946FDF79BFF20462946FDF79FFF204668
:102EA0002946FDF7ABFF013E01D02F46D1E7F8BD23
:102EB00070B50025044605724FF480610C30FFF7B1
:102EC0001DFF01264FF4806104F12000FFF716FF7B
:102ED000204684F83450A56384F83C50256484F877
:102EE000445084F84B60E564FDF7C0FD2046314650
:102EF000FDF714FF20463146FDF740FF20462946E6
:102F0000FDF774FF20462946FDF748FF2046294675
:102F1000FDF74CFF20462946FDF750FF2046294685
:102F2000FDF754FF20462946FDF758FF2046294665
:102F3000FDF764FF20462946FDF728FF2046294675
:102F4000FDF7C8FE20462946FDF7CCFE204629465F
:102F5000FDF7DCFE2046FFF778FF024B20461D60A0
:102F600070BD00BFD80D00202DE9F0411E46037A48
:102F7000054688461746BBB10024A3B2BB420BD21C
:102F800005F1200018F804100EB9324600E0325D59
:102F9000FFF70BFF0134F0E7044C237823B92846F0
:102FA00000F07AFB01232370BDE8F081D70D0020EB
:102FB0002030FFF7B8BE2030FFF742BF0C30FFF7DC
:102FC0003FBF000038B50C461946154600F0A0FD7D
:102FD000154B164A234493421ED9134B2B4493425C
:102FE0001AD9134B134A2344934215D9104B2B443F
:102FF000934211D9104B114A234493420CD90E4BE2
:103000002B44934208D90E4B0E4A2344934203D9D2
:103010000B4B2B44934205D80B4B00201C600B4BF1
:103020001D6038BD042038BD00BC6AF7FF083D00B4
:10303000004FF7E6BF3B47034053F2F27F8D5B0042
:103040008019D0CDFFF26F06540E00204C0E0020E8
:1030500038B54B1E0C46594259410546FDF79EFEB8
:10306000A21E514251412846FDF7A0FEB4F1030EC5
:10307000DEF1000151EB0E012846FDF79FFEB4F191
:10308000040CDCF10001284651EB0C01FDF79EFE1B
:10309000631F594228465941BDE83840FDF79EBE9E
:1030A00037B5826B037A013204468263FBB1C36C8D
:1030B000B3F5964F0AD35B4B1A78013A042A03D82A
:1030C00000211970FFF7C4FF0023E364A36B45F6EA
:1030D000BF52934219D994F84B10002381F001019B
:1030E000A36384F84B102046FDF748FE0DE04E49DF
:1030F0008A4240F2958090F84B10836381F0010181
:1031000080F84B10FDF73AFE8AE004F12000FFF74B
:103110002CFE464D78B9464B1B7863B1454B1A7867
:103120002AB1187029784448012200F0F5FA2046A7
:10313000002100F0CFFA2B78022B404B14BF4FF444
:10314000F0614FF470611A688A4227D300221A6036
:10315000344B1B7813BB236C03BB94F83C30EBB1AE
:10316000344B1B78D3B994F8443094F8452001339C
:10317000B3FBF2F102FB113384F84430DBB2234499
:1031800093F846102046FFF763FF94F844302A482E
:10319000234493F84610012200F0BEFA0C34204676
:1031A000FFF7E3FD00283BD020460DF106010DF1AD
:1031B0000702FFF720FE2B78013B042B30D8DFE815
:1031C00003F0030C151E27009DF806101C48003163
:1031D00018BF0121FEF70EFE22E09DF806101948E7
:1031E000003118BF0121FEF7BBF819E09DF8061069
:1031F0001548003118BF012100F05EFE10E09DF877
:1032000006101248003118BF012101F0F9FB07E058
:103210009DF806100E48003118BF0121FDF7D0FBC4
:1032200003B030BDD40800207FA903005A0200205B
:10323000D70D0020D60D00205C020020D80D002004
:10324000AC020020900A0020F0090020D8060020DF
:10325000D8000020002310B580F84530284B0446E4
:103260001B7823B1012380F8463080F84530254B88
:103270001B7843B194F845300221E218013382F8FB
:10328000461084F84530204B1B7843B194F8453004
:103290000321E218013382F8461084F845301B4BB5
:1032A0001B7843B194F845300421E218013382F8C9
:1032B000461084F84530164B1B7843B194F84530DE
:1032C0000521E218013382F8461084F8453094F85D
:1032D0004530012B03D9012384F83C3007E000235B
:1032E00084F83C300B4B20461978FFF7B1FE237A67
:1032F00023B92046FDF7C8FC0123237210BD00BF8F
:103300000800002007000020050000200900002020
:1033100004000020D408002038B5064B0C461D7868
:103320008D421D4603D001230364FDF767FD2C7019
:1033300038BD00BFD508002080F834107047002346
:10334000C3647047C06C704710B5002303704370AE
:10335000821C0021D1540133222BFAD1064B80F874
:10336000241003F1200153F8044B8B4242F8044B24
:10337000F9D11B88138010BDCA9F00080F4AC1EB0A
:10338000C101531810B55C78515C44749C78027C80
:103390008474DC7801F00F01C4741C7922F00F02F0
:1033A00004755C799B794475847D23F00F0304F0E8
:1033B0000F040A4323430274837510BD7E9F0008E7
:1033C00010B504461C48FCF793FF1B48FCF7FCFFB4
:1033D00080B36378022B0AD0032B1FD0012B25D199
:1033E000154816492222FCF737FF02231CE020462D
:1033F00094F82410FFF7C2FF0F48A11C2222FCF70B
:103400002BFF94F82430052B06D1002384F82430B8
:1034100023787BB9032307E0013309E00648084914
:103420002222FCF719FF0023637010BD0023637094
:1034300084F8243010BD00BFDC0D00205C9F000824
:10344000A89F000808B50D4B1B785C2B10D0622B91
:1034500012D101780A4839B10121FCF731FFBDE8EA
:1034600008400748FCF744BFBDE80840FCF728BF08
:10347000BDE80840FFF7A4BF08BD00BF880A0020D0
:10348000DC0D0020012A10B513460DD10C78611E09
:103490004C424C4104704CB142785AB9064A1278F9
:1034A0005C2A07D1437005E0042010BD03480221C7
:1034B00000F032F9002010BD880A00205C020020D4
:1034C00010B51F24104B11481968E14011F001019B
:1034D00018BF0121FDF706FC0C48FDF7ACFC0121EB
:1034E0000A48FDF7F7FB0948FDF7A5FC074800214E
:1034F000FDF7F0FB14F1FF34E4D204480021BDE8ED
:103500001040FDF7EFBB00BF640E00205C020020FE
:1035100010B5074C01212046FDF7F8FB2046FDF7CA
:103520008AFC20460021BDE81040FDF7EFBB00BF3C
:103530005C02002010B50446FFF7C2FF1CB1BDE8D5
:103540001040FFF7E5BF10BD2DE9F34100238DF8D2
:103550000730037A0446002B00F08B80FDF7F2FB66
:10356000454B05461A68904200F08380434E186030
:103570003378002B30D000282ED1414A04F12000AE
:103580000DF10701FFF737FC3E4B20461A789846AD
:1035900082F001021A709DF807200AB1012100E0B3
:1035A0002946394FFDF7DAFB3B78ABB100BF00BFCE
:1035B00000BF01212046FDF7A9FB00BF00BF00BFEF
:1035C00000212046FDF7A2FB20460021FDF78AFBE3
:1035D00000223A7088F80020337893B9012D10D179
:1035E0002A4B1B786BB92046FDF7A0FB244B011C2E
:1035F00018BF012104F10C001A788DF80710FFF7AD
:10360000D4FBDFF8908098F800302BB11D4F3B7849
:1036100013B9337803B195B1E36C0133E3641C4B08
:103620001A6801321A60236C44F61F62934284BF09
:1036300000232364236CE3B10133236419E02046A3
:103640001A21FDF7F1FB20460121FDF75FFB00BFCA
:1036500000BF00BF20462946FDF758FB20462946FB
:10366000FDF740FB054B88F800501D7001233B70AF
:10367000D2E702B0BDE8F0810C000020D70D002099
:103680005B02002010000020680E0020B00D00201A
:10369000D80D0020780E002010B501210446FDF75A
:1036A000A5FB094B1A68094B1A60FFF709FF204672
:1036B0000121FDF7FBFA064B01221A702046FDF7A7
:1036C00041FB0028FAD110BD6C0E0020640E0020D2
:1036D000680E002038B50C4600210546FDF786FB34
:1036E000094B20461A68094B1A60FFF723FF28464A
:1036F0000021FDF7DBFA34B9054B01221A701A7864
:103700000AB100BFFBE738BD800E0020640E002028
:10371000780E00200000000061292DE9F84F18BF45
:103720009F4B06460D4618BF197062B10021FDF788
:10373000F5FA3046FDF772FB30460121FDF7EEFA4F
:103740003046FDF76BFB974B974A1F68974BDFF8A6
:10375000B8A23B449342964B01D8964A0AE0964A57
:1037600096493A448A42F8D9954A96493A448A4257
:1037700004D9954ACAF80020012203E0934ACAF806
:10378000002002221A601C68914A012C914B0BD137
:1037900018680221A0F5CB301160403802F082FA9F
:1037A00077A3D3E900230AE018680121A0F5CB3004
:1037B0001160403802F076FA73A3D3E9002302F0D7
:1037C00011FC02F09FFD814602F08EFA02F098F89B
:1037D00002F078FD5FFA80F886F80080404602F03B
:1037E0009BFE0146484602F0E1FD4FF08E4102F09B
:1037F000E7FE02F079FA784B002202F017F902F0A6
:103800007FF802F05FFD80B27080000140EAC8409E
:10381000724B40F09040012C1860384605D102F000
:1038200041FA5BA3D3E9002304E002F03BFA5AA378
:10383000D3E9002302F0F8F802F064FD804602F0BC
:1038400053FA02F05DF802F03DFDC7B23771384619
:1038500002F062FE0146404602F0A8FD4FF08E41A4
:1038600002F0AEFE02F040FA5B4B002202F0DEF8FE
:1038700002F046F802F026FD80B2F080000140EA36
:10388000C747574B47F08047032D1F602ED007D8FE
:10389000012D0ED0022D40F0CB80524B1B8817E03B
:1038A000052D58D045D3612D40F0C2804E4B1B787A
:1038B0000EE04E4B0D271B88DFF85091B3FBF4F45C
:1038C000E40444F01004DFF84881DFF848B1B4E0C4
:1038D000B3FBF4F4E40444F0005444F0700440F208
:1038E0009D37DFF83491DFF8348131E096F83430D9
:1038F0003F4A002B3F4BDFF828810CBF93469B4685
:103900003D4B0CBF4FF496674FF4187708BF4FF448
:10391000012343EA0808394B47F00D071B88DFF8FD
:10392000F890B3FBF4F4E40444F0005444F0700461
:1039300083E0334BDFF8E0901B88DFF8E880B3FBCF
:10394000F4F4E40444F0005444F0700440F2FD2721
:10395000DFF8A0B071E02B4B40F2AD171B88DFF809
:10396000B890B3FBF4F4E40444F0005444F0700461
:10397000DFF8B480DFF8B4B05FE000BFAFF30080E1
:103980000000000000203C410000000000204C41ED
:10399000721CC7711CC7613F721CC7711CC7513FA5
:1039A0005A0200204C0E0020FF083D0000BC6AF7C0
:1039B000740E002041501F024053F2F27F8D5B00D5
:1039C0008019D0CDFFF26F0641505700415053008F
:1039D0007C0E0020540E00200000E03F800E0020EE
:1039E0006C0E00205A0E002006000020600E002001
:1039F00093C04C2AD3804C2A00240600700E00206D
:103A0000720E0020580E00205C0E00203A47960CE3
:103A1000942AA80093414C2A2A479E043427668999
:103A200034034081342B6600349F740013C14C2A48
:103A30000027B946B846BB463C46304DDAF8003060
:103A40002B60FFF73DFDFFF763FDC5F800B0FFF702
:103A500037FDFFF75DFDC5F80080FFF731FDFFF78B
:103A600057FD274B2B60FFF72BFDFFF751FD42F26F
:103A7000F5432B60FFF724FDFFF74AFD3046FDF7C5
:103A8000C5F930460121FFF725FE1E4B1B785B036D
:103A900043F4C45343F002031C432C60FFF710FDB2
:103AA000FFF736FD0E232B60FFF70AFDFFF730FD11
:103AB000154B2B60FFF704FDFFF72AFDC5F80090BA
:103AC000FFF7FEFCFFF724FD3B232B60FFF7F8FC1C
:103AD000FFF71EFD4FF486732B60FFF7F1FCFFF735
:103AE00017FD2F60FFF7ECFCFFF712FD074B2B6073
:103AF000FFF7E6FCBDE8F84FFFF70ABD640E0020B3
:103B0000160E0705500E0020E93102000F000E00CE
:103B1000014B890819707047500E00202B2041433B
:103B2000C809172110B54A430D4CD10920800D4812
:103B30000D4A01809DF8101009B1DB0800E09B08D8
:103B400013809DF8083016225A43084BD2091A8078
:103B50009DF80C300D225A43054BD2091A8010BD36
:103B6000600E00205A0E0020700E0020720E002001
:103B7000580E002000000000F8B5474E474B316852
:103B8000474A0B4493420546464B474C01D8474AA7
:103B90000AE0474A47480A448242F8D9464A0A445A
:103BA00046498A4203D9464A1A60012202E0454A40
:103BB0001A600222226022681B68012A424F434A8F
:103BC0000CBF0221012111603B60FFF779FCFFF778
:103BD0009FFC3F4B1A783F4B520313433E4A1188D8
:103BE0002268B1FBF2F243EAC2433B60FFF768FC94
:103BF000FFF78EFC23683068012B05D102F052F8E4
:103C000021A3D3E9002304E002F04CF820A3D3E978
:103C1000002302F0E7F902F075FB064602F064F8B3
:103C200001F06EFE02F04EFBC4B22C71204602F091
:103C300073FC0146304602F0B9FB4FF08E4102F0B2
:103C4000BFFC02F051F8254B002201F0EFFE01F01D
:103C500057FE02F037FB80B2E880000140EAC4441E
:103C60001F4B44F080441C601E4B28461B781BB140
:103C7000BDE8F840FFF710BD0121BDE8F840FFF7AF
:103C800029BD00BFAFF300800000000000203C41D0
:103C90000000000000204C414C0E002000BC6AF7E0
:103CA000FF083D005C0E0020740E002041501F02F2
:103CB0004053F2F27F8D5B008019D0CDFFF26F068A
:103CC0004150570041505300640E00207C0E0020EC
:103CD000500E0020F21800205A0E00200000E03F95
:103CE0006C0E0020D70D002000210023002210B50B
:103CF000C0E902230170417000F110040B4600225C
:103D0000E25401337B2BFAD100F11103A0F890208B
:103D1000A0F89220C0F88C3010BD002100220023B2
:103D200001704170C0E90223A0F89010A0F8921031
:103D30007047000000000000D0E90223921840B54F
:103D400043EB0303064619B10120002102430B4354
:103D5000C6E902234FF0FF30FF21D6E902230240DB
:103D60000B4011A1D1E9000150405940FCF748FE39
:103D7000022814D800230A49D6F88C20595CD15463
:103D80000133052BF7D1A6F8923001212823A6F89C
:103D9000903071700348BDE84040FFF7BDBA40BDA8
:103DA000F49F00085C0200204D63C971D40000003C
:103DB00001487922FEF790BED007002000000000E5
:103DC000F8B5D0E90223921843EB03030446C0E997
:103DD0000223B0F89060D0F88C50334F002953D0B4
:103DE000002101200B430243C4E90223F31006F033
:103DF0000706EA5CE918BB5D13430B70B4F890301A
:103E00005A1C253B042BA4F8902015D8D4E9022392
:103E10004FF0FF30FF2102400B4021A1D1E900010A
:103E200050405940FCF7ECFD042805D80523A4F8C0
:103E300092302823A4F89030B4F89030B3F5707F16
:103E40002BD1B4F89250013DADB2A4F8925045B9CF
:103E500016482946FFF760FA1548FEF76BFE6570B5
:103E6000F8BD2B1F5D425D41264606F8105F2046D7
:103E70003146FFF79DFF304600217B2202F05EFDB8
:103E80000023A4F89030F8BDF21006F00706B85DE4
:103E9000AB5CA91823EA0003AFE7F8BDAFF30080DD
:103EA0004D63C971D4000000EC9F00085C02002043
:103EB000D0070020AFF3008043780BB9FFF73CBF79
:103EC000FFF77EBF10B540F2DC510446FDF758FB0A
:103ED00004F11001002200238B5401323C2AFAD154
:103EE000F022A4F84C30A4F84E30A4F850206365BA
:103EF00084F8583084F85930204610BD312A70B506
:103F000005460E460DD1FDF74EFB2F280BD9002498
:103F10003319284659780134FDF787FB302CF7D147
:103F200003E0042070BD052070BD002070BD0000BE
:103F300037B50C46082523064CBF012300238DF816
:103F4000073007480DF1070101220023013DFFF76B
:103F50000BF8640015F0FF05E4B2ECD103B030BDFE
:103F60005C02002070B50446FDF73FFBB4F84C300E
:103F700008B903B970BD1BBB384A127852B984F82E
:103F800059306365B4F85030012284F85820A4F801
:103F90004C3012E084F8583084F859303025B4F8A9
:103FA0004C602046731CA4F84C30FDF764FB013DC7
:103FB000264415F0FF053074F1D10023A4F84E30EB
:103FC000B4F84C30002B47D02548FEF7F1FF0546EA
:103FD000082D40D994F858304BB120465F21FFF7A7
:103FE000A7FFB4F84E300133A4F84E3013E094F834
:103FF0005920B4F84E3032B15A1CA4F84E20194A58
:104000002046D15C05E05A1C2344197CA4F84E20BC
:104010002046FFF78DFFB4F84E20B4F84C30083D31
:104020009A42ADB2D4D394F858305BB1012384F8EE
:104030005930002384F85830A4F84E300323A4F8F4
:104040004C30C5E7A4F84E30A4F84C3084F8593011
:1040500084F8583070BD70BD70BD00BFD70D002012
:104060005C020020F99F000801EB4101490001F5C5
:104070009671A0F85010704708B5FDF794FA3023F8
:10408000B0FBF3F080B208BD10B540F2DC5104463D
:10409000FDF776FA04F11001002200238B5401325F
:1040A000822AFAD1F022A4F89230A4F89430A4F82D
:1040B0009620C4F89830204610BD792A70B5054680
:1040C0000E460DD1FDF76FFA77280BD9002433196E
:1040D000284659780134FDF7A8FA782CF7D103E087
:1040E000042070BD052070BD002070BD37B50C46A2
:1040F000082523064CBF012300238DF8073007480D
:104100000DF1070101220023013DFEF72DFF6400A0
:1041100015F0FF05E4B2ECD103B030BD5C02002025
:1041200070B50446FDF761FAB4F8923008B903B9E6
:1041300070BD03BB284A12784AB9C4F89830B4F865
:104140009630012284F89C20A4F8923010E084F884
:104150009C307825B4F892602046731CA4F8923005
:10416000FDF789FA013D264415F0FF053074F1D1C1
:104170000023A4F89430B4F892305BB31748FEF7EC
:1041800017FF0546082D24D994F89C303BB1B4F8AC
:10419000943020460133A4F89430772107E0B4F836
:1041A000943020465A1C2344197CA4F89420FFF72D
:1041B0009DFFB4F89420B4F89230083D9A42ADB215
:1041C000E0D30023A4F89430A4F8923084F89C3013
:1041D00070BD70BD70BD00BFD70D00205C02002017
:1041E00001EB4101890001F51671A0F896107047A6
:1041F00008B5FDF7D8F97823B0FBF3F080B208BD1D
:10420000024A00231380024A13807047840E002064
:104210008A100020024A00231380024A138070474C
:104220009012002086100020064A074B1B88108839
:104230009BB280B2834288BF00F58070C01A80B202
:10424000704700BF840E00208A100020064A074BEA
:104250001B8810889BB280B2834288BF00F58070B3
:10426000C01A80B2704700BF901200208610002054
:1042700008B50348802100F0CDFF0028F9D108BD22
:104280000038014010B50446FFF7CEFFFF2816D8CE
:104290000C4B0D491A880D4892B28C541A8840F282
:1042A0002771013292B21A801A8892B2FF2A84BF13
:1042B00000221A80012200F0D6FE012010BD00204D
:1042C00010BD00BF840E00208E1000200038014079
:1042D00010B5294840F2255100F09CFFE0B1264876
:1042E00000F01FFF0446FFF7B1FFFF280FD8234B54
:1042F00023491A88E4B292B28C541A88013292B2DD
:104300001A801A8892B2FF2A84BF00221A801A48A3
:1043100040F2255100F09EFF174840F2277100F04F
:1043200079FF38B3174B1988174B89B21A8892B2A4
:10433000914212D01A88154992B2895C1A88C9B282
:10434000013292B21A801A880B4892B2FF2A84BFB7
:1043500000221A8000F0E1FE05E0074840F22771D4
:10436000002200F080FEBDE81040034840F22771B3
:1043700000F070BF10BD00BF003801409012002057
:10438000860E0020840E00208A1000208E1000204F
:1043900070B5012186B00646052000F011FD01210F
:1043A0004FF4804000F00CFD252301258DF80430EA
:1043B00001A80F238DF805308DF806308DF80750D1
:1043C00000F05AFF684601F088F8204C18238DF859
:1043D00003304FF40073ADF80030204603236946E4
:1043E0008DF8023001F02BF8042369468DF8033074
:1043F00020464FF48063ADF8003001F020F802A8A9
:1044000000F004FE04F540540023ADF80C30ADF884
:104410000E30ADF81030ADF8143020460C2302A950
:10442000ADF81230029600F09DFD2A46204640F27B
:10443000255100F018FE2046294600F008FEFFF73F
:10444000DFFEFFF7E7FE06B070BD00BF00080140C9
:1044500008B5FFF7FBFE003018BF012008BD0000C3
:10446000084B09491A8892B2885C1A88C0B2013296
:1044700092B21A801A8892B2FF2A84BF00221A8050
:10448000704700BF86100020860E002070B50546DC
:104490000E460024A3B2B34204D2285DFFF7F2FE19
:1044A0000134F7E7034840F227710122BDE870406C
:1044B00000F0D9BD00380140024A00231380024AAF
:1044C000138070478E1200208C100020024A0023B7
:1044D0001380024A13807047921200208810002037
:1044E000064A074B1B8810889BB280B2834288BF64
:1044F00000F58070C01A80B2704700BF8E12002095
:104500008C100020064A074B1B8810889BB280B293
:10451000834288BF00F58070C01A80B2704700BF28
:10452000921200208810002008B50348802100F076
:1045300071FE0028F9D108BD0044004010B50446C2
:10454000FFF7CEFFFF2816D80C4B0D491A880D48EF
:1045500092B28C541A8840F22771013292B21A80BA
:104560001A8892B2FF2A84BF00221A80012200F02A
:104570007AFD012010BD002010BD00BF8E1200206A
:104580008E1100200044004010B5294840F225510A
:1045900000F040FEE0B1264800F0C3FD0446FFF7FE
:1045A000B1FFFF280FD8234B23491A88E4B292B2F7
:1045B0008C541A88013292B21A801A8892B2FF2A59
:1045C00084BF00221A801A4840F2255100F042FEB2
:1045D000174840F2277100F01DFE38B3174B1988B9
:1045E000174B89B21A8892B2914212D01A88154993
:1045F00092B2895C1A88C9B2013292B21A801A88C2
:104600000B4892B2FF2A84BF00221A8000F085FD79
:1046100005E0074840F22771002200F024FDBDE8C4
:104620001040034840F2277100F014BE10BD00BFD7
:104630000044004092120020860F00208E120020BD
:104640008C1000208E110020F0B5012187B00746A4
:10465000052000F0B5FB01214FF4003000F0BCFB59
:10466000262301258DF8043001A80F238DF805308D
:104670008DF80630214C8DF8075000F0FDFD68469E
:1046800000F02BFF18238DF8033004260323204667
:1046900069468DF80230ADF8006000F0D0FE0823C6
:1046A00069462046ADF800308DF8036000F0C7FE83
:1046B00002A800F0ABFCA4F544440023ADF80C3094
:1046C000ADF80E30ADF81030ADF8143020460C23A4
:1046D00002A9ADF81230029700F044FC20462946AA
:1046E00000F0B5FC204640F225512A4600F0BBFC04
:1046F000FFF7E2FEFFF7EAFE07B0F0BD0008014059
:1047000008B5FFF7FFFE003018BF012008BD00000C
:10471000084B09491A8892B2885C1A88C0B20132E3
:1047200092B21A801A8892B2FF2A84BF00221A809D
:10473000704700BF88100020860F002070B5054626
:104740000E460024A3B2B34204D2285DFFF7F6FE62
:104750000134F7E7034840F227710122BDE87040B9
:1047600000F081BC004400400129104602D003291A
:1047700002D07047FFF70CBEFFF766BF012908B5EE
:1047800004D0032905D1FFF7BBFF08BDFFF760FE8A
:1047900008BD002008BD012903D0032903D1FFF77C
:1047A000B7BFFFF75DBE0020704738B50D46012D3D
:1047B000104619469DF8104002D0032D07D038BD91
:1047C000FFF764FE54B1BDE83840FFF751BDFFF775
:1047D000B5FF1CB1BDE83840FFF7A6BE38BD0021CB
:1047E0000023002210B5C0E902230170417000F1DE
:1047F00010040B460022E2540133DB2BFAD100F106
:104800001103A0F8F020A0F8F220C0F8EC3010BDA1
:1048100000210022002301704170C0E90223A0F8AA
:10482000F010A0F8F2107047D0E90223921840B5BA
:1048300043EB0303064619B10120002102430B4359
:10484000C6E902234FF0FF30D6E902234FF6FF718D
:10485000024010480B4045F2755150405940FCF75A
:10486000CFF8022815D800230B49D6F8EC20595C64
:10487000D1540133062BF7D10423A6F8F2300121DD
:104880003023A6F8F03071700448BDE84040FEF7D0
:1048900043BD40BDFF77FFF5FC9F00085C02002090
:1048A0000148D922FEF792B9D0070020F8B5D0E927
:1048B0000223921843EB03030446C0E90223B0F835
:1048C000F060D0F8EC50494F002900F084800021BE
:1048D00001200B430243C4E90223F31006F007064C
:1048E000EA5CE918BB5D13430B70B4F8F0305A1C56
:1048F000A3F24633022BA4F8F02027D8D4E90223F0
:104900004FF0FF3002404FF6FF7139480B4045F23F
:10491000755150405940FCF773F8042816D801230C
:10492000214601F8103F33486422FEF723F90023A3
:104930003149D4F8EC20595CD1540133062BF7D11E
:104940000423A4F8F2303023A4F8F030B4F8F030A7
:104950002E3B9BB2042B16D8D4E902234FF0FF3034
:1049600002404FF6FF7122480B4045F2755150400E
:104970005940FCF745F8042805D80423A4F8F23080
:104980003023A4F8F030B4F8F030B3F5D86F2BD161
:10499000B4F8F250013DADB2A4F8F25045B9174851
:1049A0002946FEF7B9FC1348FEF73CF96570F8BDDF
:1049B000EB1E5D425D41264606F8105F20463146FB
:1049C000FFF76EFF30460021DB2201F0B7FF002326
:1049D000A4F8F030F8BDF21006F00706B85DAB5C45
:1049E000A91823EA00037FE7F8BD00BF02A0000872
:1049F000FF77FFF5D0070020FC9F00085C02002035
:104A000043780BB9FFF710BFFFF750BF0022002318
:104A100083540132B2F5967FF9D1A0F82C31A0F879
:104A20002E3180F83031704738B5B0F82C3104465B
:104A3000002B36D01B48FEF7BBFA05460C2D30D9AB
:104A4000B4F82E31184903F00702DB108A5CE35CEE
:104A50001448134003D015490C22002301E01449E7
:104A60000C22FEF781FA94F830310C3D0133DBB2B1
:104A7000272BADB284F8303107D9B4F82E31013389
:104A8000A4F82E31002384F83031B4F82E21B4F884
:104A90002C319A42D2D30023A4F82E31A4F82C3121
:104AA00038BD38BD5C02002010A2000811000020B3
:104AB000941200202DE9F84F8846914600214FF4CA
:104AC0009672044601F03AFF00200823A4F82C3126
:104AD000A4F82E0184F83001C3B24B453DD2002327
:104AE000D9B20C224A43224DAE18AA5CAC4692B30E
:104AF00018F8005001339542F2D196F808A000272B
:104B00004FF00045FBB2534525D20C2303FB01C3F4
:104B10005B68184A2B40AB42B4F82C3107F101070F
:104B20004FEAE30603F0070B12F80BB0A25D0CBFCF
:104B30004BEA020222EA0B02B3F5937FA25505D994
:104B40000023A4F82C310420BDE8F88F0133A4F829
:104B50002C316D08D6E70130BEE7B4F82C31082BB4
:104B6000EED00533A4F82C310020BDE8F88F00BF4B
:104B70000CA0000810A200080023A0F82C31A0F817
:104B80002E3180F8303170470D4B1A6842F0010227
:104B90001A6059680B4A0A405A601A6822F08472F7
:104BA00022F480321A601A6822F480221A605A684D
:104BB00022F4FE025A604FF41F029A60704700BF51
:104BC000001002400000FFF80C4BB0F5803F1A685F
:104BD00022F480321A601A6822F480221A6003D00C
:104BE000B0F5802F04D070471A6842F4803202E09A
:104BF0001A6842F4A0221A60704700BF00100240F9
:104C0000034B1A6822F0F80242EAC00018607047AD
:104C100000100240014B1860704700BF0000424284
:104C2000034B5A6822F47C121143084358607047C2
:104C300000100240014B1860704700BF6000424204
:104C4000034B5A6822F0030210435860704700BFBC
:104C500000100240024B586800F00C00704700BF83
:104C600000100240034B5A6822F0F00210435860D3
:104C7000704700BF00100240034B5A6822F4E06204
:104C800010435860704700BF00100240034B5A6841
:104C900022F4605242EAC00058607047001002409F
:104CA000044B1A7809B1104301E022EA00001870A1
:104CB000704700BF09100240014B1860704700BFE9
:104CC000D8004242034B5A6822F4404210435860D5
:104CD000704700BF00100240064B002201281A70E6
:104CE0001A7002D0042802D070471870704705224D
:104CF0001A70704720100240014B1860704700BFC7
:104D000080044242024B1A6A10431862704700BF87
:104D100000100240014B1860704700BF3C04424243
:104D20001C4B10B55A6802F00C02042A01D0082A64
:104D300001D0194A0EE05A685968C2F38342CC0385
:104D400002F1020202D55968890301D5134900E036
:104D500011494A4302605A681149C2F303128C5C3C
:104D60000268E24042605C68C4F302240C5D22FAEF
:104D700004F484605C68C4F3C224095DCA40C26064
:104D80005B680849C3F38133CB5CB2FBF3F2026189
:104D900010BD00BF0010024000127A0000093D0063
:104DA000210000201D000020044B5A6909B1104366
:104DB00001E022EA00005861704700BF0010024085
:104DC000044B9A6909B1104301E022EA000098619E
:104DD000704700BF00100240044BDA6909B110436C
:104DE00001E022EA0000D861704700BF00100240D5
:104DF000044BDA6809B1104301E022EA0000D860F0
:104E0000704700BF00100240044B1A6909B11043FB
:104E100001E022EA00001861704700BF0010024064
:104E2000014B1860704700BF40044242014B1860BC
:104E3000704700BF4C004242014B1870704700BFE2
:104E4000071002404309012B074A01D1136803E010
:104E5000022B0CBF136A536A00F01F0023FA00F004
:104E600000F00100704700BF0010024007B50023AA
:104E700001933120FFF7E6FF019B01330193019B72
:104E8000B3F5A06F01D00028F3D03120FFF7DAFF8F
:104E9000003018BF012003B05DF804FB024B5A6AD2
:104EA00042F080725A62704700100240034B9B68C8
:104EB00018420CBF00200120704700BF00100240C4
:104EC000014B1870704700BF0A10024008B5204B14
:104ED00098420BD14FF480400121FFF789FFBDE8D4
:104EE00008404FF480400021FFF782BF194B9842E1
:104EF00007D14FF400300121FFF786FF4FF4003057
:104F00001FE0154B984207D14FF480200121FFF795
:104F10007BFF4FF4802014E0104B984207D14FF4F0
:104F200000200121FFF770FF4FF4002009E00C4B37
:104F300098420BD14FF480100121FFF765FF4FF429
:104F400080100021BDE80840FFF75EBF08BD00BF2C
:104F5000003801400044004000480040004C004040
:104F600000500040038ACA889BB223F44053134385
:104F700030B503820D4682890989AB8892B20B4312
:104F8000698922F4B0520B4322F00C0213439BB206
:104F90008381838AAA899BB223F4407387B0134329
:104FA0000446838201A8FFF7BBFE1749049A039BBE
:104FB0008C4208BF1346A289192112B25943002A14
:104FC0002A684FF06403B4BF52009200B1FBF2F1C3
:104FD000B1FBF3F21201100903FB1011A08900B21A
:104FE000002806DAC9003231B1FBF3F303F00703FE
:104FF00005E009013231B1FBF3F303F00F031A436B
:1050000092B2228107B030BD003801404FF41653F0
:1050100003600C2200238380C3800381428183814B
:1050200070470B8810B54C88028A23438C88C98846
:1050300092B223430B4322F4706213439BB2038268
:1050400010BD0023038043808380C3807047838921
:1050500019B19BB243F4005303E023F400531B0443
:105060001B0C83817047C1F3421310B5012401F07A
:105070001F01A34204FA01F101D10C3003E0022B1D
:105080000CBF1030143003680AB1194301E023EA61
:105090000101016010BD838A9BB20AB1194301E08E
:1050A00023EA010181827047038A23F00F031B0466
:1050B0001B0C0382038A9BB21943018270478389C8
:1050C00023F400631B041B0C838183899BB2194367
:1050D00081817047838919B19BB243F0020303E0D9
:1050E00023F002031B041B0C83817047038A23F007
:1050F00020031B041B0C0382038A9BB21943018209
:105100007047038A19B19BB243F4804303E023F450
:1051100080431B041B0C03827047C1F3080181808C
:1051200070478088C0F30800704783899BB243F0C2
:10513000010383817047038BDBB20383038B9BB234
:1051400043EA012101837047038B03F47F43038308
:10515000038B9BB2194301837047838A19B19BB2B9
:1051600043F0200303E023F020031B041B0C838285
:105170007047838A19B19BB243F0100303E023F018
:1051800010031B041B0C83827047838A19B19BB2E6
:1051900043F0080303E023F008031B041B0C838285
:1051A0007047838929B16FEA43436FEA53439BB247
:1051B00001E0C3F30E0383817047838A19B19BB268
:1051C00043F4006303E023F400631B041B0C83829D
:1051D0007047838A23F004031B041B0C8382838A99
:1051E0009BB2194381827047838A19B19BB243F005
:1051F000020303E023F002031B041B0C83827047AD
:10520000038819420CBF002001207047C94389B2AE
:105210000180704710B5C1F3421401F01F03012251
:10522000012C02FA03F201D1838903E0022C0CBFA6
:10523000038A838A9BB21340028892B243B101234E
:10524000090A03FA01F111420CBF0020012010BD30
:10525000184610BD090A01238B40DB439BB2038033
:105260007047000040F0BF60024B40F40030D8604F
:10527000704700BF00ED00E0C27810B50378FAB1C6
:10528000154A4478D26803F16043D243C2F3022244
:10529000C2F1040104FA01F10F2424FA02F2847825
:1052A00003F5614322400A431201D2B283F800237E
:1052B00003780122590903F01F0302FA03F306E001
:1052C0005909012203F01F0302FA03F32031034AB4
:1052D00042F8213010BD00BF00ED00E000E100E029
:1052E00021F0604121F07F01014B08439860704735
:1052F00000ED00E0044B1A6909B1104301E022EA15
:1053000000001861704700BF00ED00E0044B042866
:105310001A680CBF42F0040222F004021A607047BF
:1053200010E000E0014B1860704700BF0030004003
:10533000014B5860704700BF00300040014B98603F
:10534000704700BF00300040024B4AF6AA221A60A4
:10535000704700BF00300040024B4CF6CC421A6050
:10536000704700BF00300040034BDB6818420CBFA1
:1053700000200120704700BF0030004008B5234BDB
:10538000984205D104200121FFF732FD042036E0C8
:105390001F4B984205D108200121FFF729FD082065
:1053A0002DE01C4B984205D110200121FFF720FD74
:1053B000102024E0184B984205D120200121FFF74E
:1053C00017FD20201BE0154B984205D140200121FC
:1053D000FFF70EFD402012E0114B984205D18020CE
:1053E0000121FFF705FD802009E00E4B98420BD10B
:1053F0004FF480700121FFF7FBFC4FF48070002117
:10540000BDE80840FFF7F4BC08BD00BF000801403C
:10541000000C014000100140001401400018014040
:10542000001C01400020014008B501200146FFF7A3
:10543000DFFCBDE8084001200021FFF7D9BCCB7894
:10544000F0B5DA0648BF8A78098803F00F0548BF2F
:10545000154311F0FF0F1DD004680022012797406B
:1054600007EA0106BE4211D197004FF00F0C0CFA6B
:1054700007FC05FA07F724EA0C04282B44EA070482
:1054800001D1466102E0482B08BF06610132082ABB
:10549000E4D10460FF291FD94468002202F1080604
:1054A0000127B74007EA0106BE4211D197004FF02D
:1054B0000F0C0CFA07FC05FA07F724EA0C04282B5A
:1054C00044EA070401D1466102E0482B08BF0661A7
:1054D0000132082AE2D14460F0BD4FF6FF73038029
:1054E000022383700423C3707047836819420CBF82
:1054F000002001207047806880B27047C36819425D
:105500000CBF002001207047C06880B27047016165
:105510007047416170470AB101617047416170474E
:10552000C160704741F48033836181618361836925
:1055300083697047054B1A6822F07F021204120C2F
:10554000114341EA00101860704700BF000001409D
:10555000014B1860704700BF1C0020420028164A0B
:1055600030B500F44015B4BFD3695368B5F5401F9A
:1055700084B206D1556823F0706325F070655560DC
:105580000FE0C20205D5C0F30342032505FA02F27B
:1055900003E0420D120104FA02F223EA020343F08F
:1055A000706319B1420D120194402343024A00284E
:1055B000B4BFD361536030BD0000014001F003036C
:1055C0009B000F229A40984001F0FC0101F18041BC
:1055D00001F5803110B58C6824EA02028A608A687D
:1055E00002438A6010BD0000014B1860704700BF85
:1055F000DC002042044B00221A605A609A60DA6094
:10560000024A5A61704700BF00040140FFFF0F00CB
:10561000837930B50168027943B3194BCC431D68D7
:1056200002F1804225401D605D6802F582322C4007
:105630005C6014682143116002689C68D1430C408F
:105640009C60DC682140D9604179102906D19968B5
:1056500011439960D9680A43DA6030BD01F1804393
:1056600003F5823319680A431A6030BD02F18043A2
:1056700003F582331A6822EA0101196030BD00BFC8
:105680000004014000230C22036003714271837106
:1056900070470000024B1A6910431861704700BF41
:1056A00000040140034B5B6918420CBF002001203D
:1056B000704700BF00040140014B5861704700BFB4
:1056C00000040140054B1A685B69034004D0104296
:1056D0000CBF0020012070471846704700040140AD
:1056E000014B5861704700BF00040140384B82B045
:1056F0001A6842F001021A605968364A0A405A6034
:105700001A6822F0847222F480321A601A6822F435
:1057100080221A605A6822F4FE025A604FF41F0277
:105720009A600022009201921A6842F480321A6054
:105730001A6802F400320192009A01320092019A32
:105740001AB9009AB2F5A06FF2D11A6812F40032B9
:1057500018BF01220192019A012A05D01E4B4FF079
:1057600000629A6002B070471C4A116841F0100153
:105770001160116821F003011160116841F002010C
:1057800011605A685A605A685A605A6842F48062D6
:105790005A605A6822F47C125A605A6842F4E8123D
:1057A0005A601A6842F080721A601968084A8901C2
:1057B000FBD5516821F003015160516841F00201AD
:1057C00051605A6802F00C02082AFAD1C6E700BFFD
:1057D000001002400000FFF800ED00E00020024051
:1057E000114A124B516801F00C01042901D008291B
:1057F00001D00F490EE051685068C1F38341C003E6
:1058000001F1020102D55068800301D5094800E08A
:1058100007484143196052680749C2F30312895C83
:105820001A68CA401A607047001002404400002005
:1058300000127A0000093D003100002038B504460E
:105840000D46AC4203D254F8043B9847F9E738BD03
:10585000FEE7000008B50023104A11499818884255
:1058600004D21049595899500433F5E712481349A6
:105870004FF000028842B8BF40F8042BFADBFFF774
:1058800035FF09480949FFF7D9FF09480949FFF7DA
:10589000D5FFBDE80840FCF729BB00BF0000002091
:1058A000B000002050A2000838A2000838A200086A
:1058B00038A2000840A20008B800002044130020CD
:1058C00000F000B810B5002814BF0446012420469B
:1058D00001F024F830B9044B1B680BB900F0C0FF8D
:1058E0009847F4E710BD00BFA0120020024B1A68D1
:1058F00018601046704700BFA01200200000000092
:105900002DE9F84FC1F30A57A7F2FF36132E0246CE
:105910000B4604460D4689468A4680461CDC002E0E
:1059200040DB3D4F374107EA010C5CEA000C18D020
:1059300037A3D3E9002300F079F80022002300F018
:10594000B7FC28B1002D42DB2AEA07094FF0000816
:1059500040464946BDE8F88F332E06DDB6F5806F28
:1059600031D010461946BDE8F88FA7F2134C4FF01E
:10597000FF3B2BFA0CFB1BEA000FF2D024A3D3E968
:10598000002300F053F80022002300F091FC0028CF
:10599000DED0002D22DB28EA0B08D14640464946DE
:1059A000BDE8F88F1AA3D3E9002300F03FF80022E6
:1059B000002300F07DFC0028CAD0002D1CDB4FF036
:1059C0000008C146C4E700F031F8BDE8F88F4FF495
:1059D000801A4AFA06F606EB050AB5E7142E14D02B
:1059E000C7F586670123033703FA07F717EB0408A7
:1059F00028BF05EB030ACEE725F00042074B224300
:105A000018BF99464FF00008A2E705F1010AC2E766
:105A10009C7500883CE4377EFFFF0F000000F0BF5C
:105A200081F0004102E000BF83F0004330B54FEA4F
:105A300041044FEA430594EA050F08BF90EA020FBC
:105A40001FBF54EA000C55EA020C7FEA645C7FEA4F
:105A5000655C00F0E2804FEA5454D4EB5555B8BF72
:105A60006D420CDD2C4480EA020281EA030382EAE3
:105A7000000083EA010180EA020281EA0303362D75
:105A800088BF30BD11F0004F4FEA01314FF4801C48
:105A90004CEA113102D0404261EB410113F0004F5A
:105AA0004FEA03334CEA133302D0524263EB430311
:105AB00094EA050F00F0A780A4F10104D5F1200EAF
:105AC0000DDB02FA0EFC22FA05F2801841F100010A
:105AD00003FA0EF2801843FA05F359410EE0A5F1DE
