:020000040800F2
:1000000000500020890300088503000885030008CC
:100010008503000885030008850300080000000030
:100020000000000000000000000000008503000840
:100030008503000800000000850300088503000810
:100040008503000885030008850300088503000870
:100050008503000885030008850300088503000860
:1000600085030008692F0008850300088503000840
:100070008503000885030008850300088503000840
:100080008503000885030008850300088503000830
:10009000350500088503000885030008850300086E
:1000A0008503000885030008850300088503000810
:1000B0008503000885030008850300088503000800
:1000C00085030008850300088503000885030008F0
:1000D0008503000871480008294B000885030008C3
:1000E0008503000885030008850300080000000060
:1000F0000000000000000000000000000000000000
:1001000000000000000000005FF808F108B5054895
:10011000054B1B1A062B00D808BD044B002BFBD047
:100120009847F9E7780100207B01002000000000DB
:1001300008B50748074B1B1A9B1003EBD3735910E4
:1001400000D108BD044A002AFBD09047F9E700BF60
:1001500078010020780100200000000010B5064C56
:10016000237843B9FFF7D2FF044B13B10448AFF330
:1001700000800123237010BD7801002000000000E2
:100180005CBC000808B5074B1BB107480749AFF333
:1001900000800748036813B1064B03B19847BDE8D8
:1001A0000840C5E7000000005CBC00087C0100209E
:1001B0007401002000000000134B002B08BF114BFE
:1001C0009D46A3F5803A00218B460F461148124AFE
:1001D000121A07F05FFF0D4B002B00D098470C4B15
:1001E000002B00D098470020002104000D000B4890
:1001F00007F0E9FE07F018FF2000290004F094FA48
:1002000007F0E8FE00000800000000000000000009
:10021000000000007801002050140020FD7F00083D
:10022000384B82B01A6842F001021A605968364AA7
:100230000A405A601A6822F0847222F480321A60EE
:100240001A6822F480221A605A6822F4FE025A6068
:100250004FF41F029A600022009201921A6842F441
:1002600080321A601A6802F400320192009A013258
:100270000092019A1AB9009AB2F5A06FF2D11A68E9
:1002800012F4003218BF01220192019A012A05D00E
:100290001E4B4FF000629A6002B070471C4A116812
:1002A00041F010011160116821F003011160116823
:1002B00041F0020111605A685A605A685A605A68DF
:1002C00042F480625A605A6822F47C125A605A687A
:1002D00042F4E8125A601A6842F080721A60196893
:1002E000084A8901FBD5516821F00301516051682A
:1002F00041F0020151605A6802F00C02082AFAD15A
:10030000C6E700BF001002400000FFF800ED00E06B
:1003100000200240114A124B516801F00C010429DF
:1003200001D0082901D00F490EE051685068C1F38F
:100330008341C00301F1020102D55068800301D559
:10034000094800E007484143196052680749C2F371
:100350000312895C1A68CA401A6070470010024094
:100360001400002000127A0000093D000400002063
:1003700038B504460D46AC4203D254F8043B9847C6
:10038000F9E738BDFEE7000008B50023104A11491F
:100390009818884204D21049595899500433F5E707
:1003A000124813494FF000028842B8BF40F8042BAE
:1003B000FADBFFF735FF09480949FFF7D9FF09487C
:1003C0000949FFF7D5FFBDE8084004F0ADB900BF0B
:1003D000000000207401002068BC00084CBC00082C
:1003E0004CBC00084CBC000858BC00087801002038
:1003F000501400200D4B3E291B6D03EBC0000C4B2D
:100400004FEA4000034409D94A09C80604BF02F173
:10041000FF3292B2920242F4004204E04A08C90755
:1004200048BF013292021A60704700BF005C004072
:100430000C600040294B072818BF18701A78052A4D
:1004400049D8DFE802F003131E222A35244A4FF66A
:10045000FB71106C014011644FF43F41116406229E
:100460001A70204B1B685A7B1A7370471C4A4FF650
:10047000FB71106C014011644FF43F411164042280
:100480002AE002225A70032226E05A78013AD2B2B8
:100490005A705B780BBB04221BE0114A116C89B2C5
:1004A00041F01001116405221A700A225A70704737
:1004B0005A78013AD2B25A705B7873B9084A4FF64B
:1004C000EF73116C0B401364064B1B685A7B1A7355
:1004D0000622024B00E006221A7070471414002016
:1004E000005C00401800002070B504460D464FF433
:1004F00000000121164601F0CDFD084A084B0949CC
:100500001A60094B09480B600949656008600221BF
:10051000A6601B681172984770BD00BF24140020AC
:10052000441400201C14002034000020BC000020D3
:1005300040140020F8B5704D704B2A685C6C12684E
:10054000A4B202F48062224206D06FF480625A6440
:100550006B4B1B685B6898472B681B6823405A04E9
:1005600003D5664A6FF4804151649F0403D5634A02
:100570006FF400515164DE0406D5604B6FF4C05235
:100580005A640020FFF756FF2A68116821400805C9
:100590000FD55A4B186C80B240F0080640F00C00A2
:1005A0001E641864107B5073032010736FF4C052E4
:1005B0005A648B0503D5514B6FF400725A64CF0512
:1005C00006D54E4B6FF480725A640720FFF732FF56
:1005D0002B681B6803F40043234200F08B80474BD9
:1005E0005A6C110440F186806FF4004112F00F063E
:1005F00059645AD1196848F6800008400028EED0A6
:1006000088B2404D00F440542C803F4C00F0300044
:1006100020801868D60620F4804020F0700040F456
:10062000004040F0800080F400501860186820F40A
:10063000E04020F0400040F4004040F0800080F0B6
:100640002000186001D5080607D5196848F60F7212
:100650000A401A6000F042FC0BE0186840F68F7206
:1006600002401A600A0502D500F042FA01E000F0EB
:10067000ADFB224B2D8820881968ADB221F4804152
:1006800021F0700141F4004141F08001694019609E
:100690001A6880B222F4E04222F0400242F40042A2
:1006A00042F0800242401A60F8BDB40004F1804478
:1006B00004F5B84427683B040CD5226840F68F73D4
:1006C00013402A682360926806F18043013B52F888
:1006D00023309847380682D5226848F60F731340B6
:1006E00023602B6806F180465B68013E53F8263094
:1006F000984774E7F8BD00BF18000020005C004078
:100700001C140020101400201214002010B5064CF8
:1007100018B9236801221A8210BD044B1B681B689C
:10072000984720680A3010BD44140020401400206F
:1007300010B5064C18B9236801221A8210BD044B6B
:100740001B689B68984720680C3010BD441400203B
:100750004014002010B5204B18B91B6802221A82E1
:1007600010BD1E4A1968002010800C78134614F042
:100770007F040DD14A7A910644BF0221197012F00C
:10078000400F1A7814BF42F0010222F0010214E077
:10079000012C1FD0022C1ED1497901F00F029200CA
:1007A00002F1804202F5B84211F0800F126806D0C3
:1007B00002F03002102A07D101221A7004E002F47C
:1007C0004052B2F5805FF6E7054B1B681B699847FE
:1007D000024810BD104610BD44140020161400201D
:1007E00040140020234A2DE9F84314689046238AD8
:1007F000267A214FA3B9042E12D120490A78012A62
:100800000AD11F4A10681F4A80B202445200136086
:1008100030223A800B7027E010233B80072623E02C
:10082000A58AAB428CBF022604269D4228BF1D46E6
:100830002846A36998478146002001F011F92A460D
:100840000146484600F096FB2946002001F024F9B5
:10085000238A4FF440525B1B2382638A1D4430235A
:100860003B80094B65821A80D8F800301E72BDE8C3
:10087000F88300BF441400201214002094010020CB
:10088000505C0040023000201014002010B50A4BCC
:100890000A491B684978DA7891420AD3997841B9B4
:1008A0009C8834B99A72064B1B685B68984720464F
:1008B00010BD022010BD00BF44140020E80000203D
:1008C0004014002038B50E4A0E4C12682368926915
:1008D0005879D978904723689A7A7AB170B91A7999
:1008E00062B99D7855B9084B1B68DB689847236847
:1008F00028465A79DA72DA781A7338BD022038BD80
:100900001C140020441400204014002038B5314B42
:100910001B68187810F07F0004D15A7A22F0200268
:100920005A7238BD022853D15A88002A51D11A79F7
:10093000002A4ED15A79284D22F08000840004F11B
:10094000804101F5B84109682D7812F0800F14BF7D
:1009500001F0300101F44051A84239D2002937D0CA
:100960009B7A002B34D004F1804404F5B84412067D
:1009700023680CD503F03003102B23D1C4B22046DA
:1009800001F022F82046302100F0DCFE1AE003F4EA
:100990004053B3F5805F15D128B9104B93F82C1054
:1009A00001F09CF801E000F0FDFF236823F4804390
:1009B00023F070039BB283F4405343F4004343F0AD
:1009C00080032360064B1B685B699847002038BD95
:1009D000022038BD44140020E8000020340000202C
:1009E0004014002038B51F4B1F4D19682D784A79E7
:1009F00022F08004A30003F1804000F5B8400068B5
:100A000012F0800F14BF00F0300000F44050AC42F0
:100A100026D24C8824BB18B3897A09B303F18043EA
:100A200003F5B84312F0800F1A6807D022F4E042B1
:100A300022F0400292B282F0100206E022F48042DC
:100A400022F0700292B282F4805242F4004242F0EC
:100A500080021A60054B1B689B699847002038BDCF
:100A6000022038BD44140020E8000020401400207B
:100A700008B5064B1B685A7A42F020025A72044BA2
:100A80001B68DB699847002008BD00BF44140020A4
:100A900040140020054B1A68538A18B98988CB1A6C
:100AA0001382704708681844704700BF4414002040
:100AB00008B50B4B002093F82C1001F00FF8094BF0
:100AC0001B68187A082806D1074B4FF480521A8009
:100AD000064B10221A80B0F109035842584108BD54
:100AE00034000020441400201014002012140020B0
:100AF000F7B5964F964B3A68964D92B213442E68CE
:100B00005B001C68337A092B15D0A4B2640004F191
:100B1000804404F5C0442378337063787370A088F0
:100B200001F08AF9708020892E6801F085F9B08083
:100B3000A2892B68DA802B6801221A72DA885C7825
:100B4000002A5ED11A7812F07F0237D1092C02D127
:100B5000FFF79CFE41E0052C0FD193F90320002AFA
:100B600001DA08234AE09A78002AFAD19A88002A02
:100B7000F7D19B7A002B34D0F3E7032C10D1DA782D
:100B8000012A07D0744B20461B685B6998470328ED
:100B900025D132E09B88002BF4D1FFF769FF1CE0E0
:100BA000012CEFD1DA78012AECD19A88002AE9D118
:100BB0005B7A9906E6D5FFF7A9FE0EE0012A04D17B
:100BC0000B2CDFD1FFF77EFE07E0022ADAD1012CE1
:100BD000F1D0032CD6D1FFF705FF10B1D2E70028E2
:100BE000BFD13A685D4B92B213445B0000221A6099
:100BF0005B4B30221A80062300E009232A68137217
:100C0000D0E0062C13D11A78520678D19A78524B3C
:100C1000012A02D11B68DB6968E0022A02D11B6845
:100C20001B6A63E0032A6AD11B685B6A5EE0002CE2
:100C30003DD15988002962D15A6822F47F42B2F529
:100C4000003F5CD11A7812F07F0204D19B88002B00
:100C500000F0AC8053E0012A0DD13F4A5879126868
:100C60009269904700284AD13A4B1B689B7A002B27
:100C700040F09C8043E0022A41D15B79394803F07F
:100C80000F018A0002F1804202F5B8421268007832
:100C900013F0800F14BF02F0300202F44052814280
:100CA0002DD213F0700F2AD1002A7FD127E0082C13
:100CB00003D11B785B067BD021E00A2C1FD11A7868
:100CC00002F07F02012A1AD19A7AC2B15988B1B9C9
:100CD0005A6822F47F42B2F5803F10D11E4A5879FB
:100CE000126892699047002864D008E03BB12A68F6
:100CF0000024548293612046984720460AE0164B10
:100D00001A682B68126958789047032802D1114B52
:100D10001B6805E02B684FF6FF711A8A8A4201D1E1
:100D2000092203E0022800D012B908221A7239E021
:100D300093F9001000292FDAD98801910198824295
:100D4000054811D9019A1A821FE000BF505C00408B
:100D500004300020441400201C1400200230002025
:100D600012140020E80000208A420ED2016891F897
:100D70002C108A4201D2002105E092FBF1F401FB24
:100D8000142212B901210C4A1170026892F82C2029
:100D90009A82FFF727FD05E003221A72074B4FF4F2
:100DA00040521A80FFF784FE03B0F0BD044B9EE76B
:100DB000044B9CE7044B9AE7940100201014002098
:100DC000550700080D07000831070008F8B52D4D3C
:100DD0002C68237A022B4DD0042B4BD0032B01D04F
:100DE000052B41D1A369228AABB1A2B1A68A964252
:100DF00028BF164630469847238A07469B1B238206
:100E0000638A00203344638200F038FE3246014694
:100E1000384600F0C7F8238A53B11B4B00204FF42B
:100E2000405201461A8000F037FE184B30221A80DB
:100E3000238AA28A9A4202D82B68032202E01BB1BD
:100E40002B6805221A720CE02A6806211172104ADA
:100E50001168104A89B20A44520013600B4B3022C9
:100E60001A802B681B7A06E0072B03D10A4B1B68FC
:100E7000DB68984708232A681372BDE8F840FFF73B
:100E800017BE00BF441400201014002012140020CC
:100E9000505C0040023000201C14002070B50D4B47
:100EA0001D780023AB4210D203F1805202F5B852F4
:100EB0009400266843F4004140F60F7241F080012F
:100EC00032400A4322600133ECE7034B40F08000DC
:100ED000186070BDE80000204C5C004010B5134C59
:100EE00023681A7A022A01D0042A04D1FFF77AFC77
:100EF00023681B7A13E0062A10D15A78052A09D1F3
:100F00001A78520606D1D878FFF7C8FF084B1B683D
:100F10001B6A9847074B1B689B6898470823226801
:100F20001372BDE81040FFF7C3BD00BF441400209A
:100F3000401400201C1400207047000008B5074A28
:100F4000074B0849136002221A72074B074A1360C5
:100F5000074A1B681160984708BD00BF4414002071
:100F600024140020BC000020340000201C140020A9
:100F70004014002030B501F10051013201F540511B
:100F8000521049000023934200F1020009D010F8EA
:100F9000015C10F8024C44EA052421F82340013397
:100FA000F1E730BD10B501F10051013201F54051BA
:100FB000521049000023934205D051F8234020F8F5
:100FC00013400133F7E710BD800000F1804000F5C9
:100FD000B840036823F4804323F0700343F40043D4
:100FE00043F08003594001607047000018B9034B7B
:100FF00007221B681A820248704700BF4414002071
:10100000B400002037B5114B1A681D46127802F063
:101010007F02212A01D0022016E0A0F12003012B3B
:101020000B4B0C4C1B6888BF002423B102A901F8AC
:10103000010D02209847002CEDD02B680025284692
:101040009C615D82A047284603B030BD4414002057
:10105000A8030020ED0F000813B5104B1B681A7889
:1010600002F07F02212A14D1022806D0222806D1BC
:10107000DA780B4B02F003021A70002400E002241D
:10108000084B1B6833B102A901F8010D02209847F3
:1010900000E00224204602B010BD00BF441400202E
:1010A00095010020A803002021B9022834BF0020A8
:1010B0000220704702207047044B1B689B7A1BB1CB
:1010C000034B05221B681A73704700BF44140020AD
:1010D00018000020024B04221B681A73704700BFDF
:1010E00018000020054B1B68DB78032B04D804494B
:1010F00001EBC301FFF7CEBC002070474414002071
:10110000800000200149FFF7C5BC00BF2C00002073
:101110000149FFF7BFBC00BFE0000020124B37B50C
:101120001B680024114D9C72114B286801224FF45A
:10113000E0511A641C645C6419644FF43F415C64C0
:101140000160196414238DF8043001A80F238DF871
:1011500005308DF806308DF8072001F017FA2B685E
:101160001C7303B030BD00BF4414002018000020E1
:10117000005C00402049214B0A681B6870B59B1A2F
:1011800013F0FF030E461E4905D10A78013AD2B288
:101190000A70FAB170BD0120087000211948402B77
:1011A00028BF40230C46994210DA174D11F0010F69
:1011B000AD5C02F10102EDB21CBF44EA05250560F9
:1011C000D2B20CBF2C4604300131ECE7D90748BF3E
:1011D000046032600D4A0E49106D40000B50536898
:1011E00023F4E04323F0400343F4004343F080033F
:1011F00083F03003536070BDB003002098020020DC
:10120000A00300208061004096010020005C0040A7
:10121000146000402DE9F843494B4A4C1B680025F7
:101220004FF0C0089D7283F809802565236848F651
:101230008F16334043F400732360236848F280071D
:1012400023F4E04323F040033B4383F01003236087
:10125000226D3D4B52004FF0400943F80290236D40
:1012600080225B0003F1804303F5C0431A602368CA
:10127000284623F4E24323F070031B041B0C236075
:10128000324B1B6893F82C10FFF7B4F828464FF444
:101290004051FFF799FEA3680220334043F4C06336
:1012A000A360226D2A4B520013444FF480721A60DF
:1012B000A368294623F4E04323F040033B4383F033
:1012C0002003A360FFF780FEE36803203340E36060
:1012D000226D204B520013444FF488721A60494625
:1012E000FFF788F803204FF44051FFF76DFE636865
:1012F00001201E406660226D174B520043F80280A9
:101300006368294623F4E04323F040033B4383F022
:1013100020036360FFF758FE104B01221B6828462C
:101320001A73FFF7BBFD0E4BFF221D600D4B1D60B6
:101330000D4B1D600D4B1D600D4B1A70BDE8F88301
:1013400044140020005C0040086000401C14002091
:10135000206000403860004010600040180000200D
:10136000AC030020A403002098020020B00300205A
:10137000A0030020F8B5184A184C2368116D02F23A
:101380003C424900565800221549C6F3090610464A
:101390002546B2420DD2D40701D5040A03E00C68F9
:1013A0000431A0B2E4B20F4F0132FC540133DBB27E
:1013B000EFE70D4A2B6012689B1ADBB2BF2B04D8F3
:1013C00003204FF44051FFF7FFFD084B1B6813B19A
:1013D000012000219847F8BD005C0040AC030020CC
:1013E00020620040A0020020A40300209C020020F4
:1013F000C20744BF034B1960830744BF024B196007
:10140000704700BF9C020020A803002037B50546A6
:101410000C460820012100F031FE01A801F0BBF9C3
:1014200003238DF806302846102301A98DF80730D4
:10143000ADF8044001F061F928462146002201F090
:10144000C8F9044B04491868044AFFF74DF803B083
:1014500030BD00BF1800002064000020980000206C
:1014600037B514238DF804300F2304460D468DF84C
:1014700005308DF8063001A800238DF8073001F003
:1014800085F820462946012201F0A3F903B030BDBA
:1014900070B50C4611B31249124A0B6812680D461A
:1014A0009A1AD2B2C2F1FF02944201D9A2B11446F3
:1014B000002291B2A14202F1010205D2465C0A4922
:1014C000CE540133DBB2F4E72B60084B1B781B06CC
:1014D00004D5FFF74FFE01E0104670BD204670BDF9
:1014E00098020020B003002096010020A0030020F5
:1014F00007B58DF807000DF107000121FFF7C8FFC0
:101500000028F8D003B05DF804FB0000034B186816
:10151000034B1B68C01AC0B2704700BFAC03002069
:10152000A4030020034B1A7852B2002ACCBF1878CB
:1015300000207047A0030020034B1868034B1B6872
:10154000C01AC0B2704700BF98020020B00300204C
:101550000A4B0B4A1B6810B51268D21AD2B29142DC
:1015600028BF114600228A4206DA064CE45C0133A9
:101570008454DBB20132F6E7084610BDA403002014
:10158000AC030020A002002010B5FFF7E1FF094ADC
:10159000044613680344DBB21360074A1268D31A87
:1015A000DBB2402B04D803204FF44051FFF70CFD71
:1015B000204610BDA4030020AC0300200C4B30B526
:1015C0001C680C4B0C441B68E4B21B1BDBB28D186F
:1015D0009D4288BFC1EB03020023934206DA06490D
:1015E000095D0134C154E4B20133F6E7104630BD61
:1015F000A4030020AC030020A002002008B5FFF7E0
:1016000085FF28B1044B054A1B68D05CC0B208BDF9
:101610004FF0FF3008BD00BFA4030020A00200204F
:10162000024B187800F00100704700BF95010020C0
:10163000024B1878C0F34000704700BF95010020AE
:10164000044B1A6802601A7902715A799B794271C7
:1016500083717047B4000020014B1868704700BFC9
:10166000B4000020014B1879704700BFB40000207F
:10167000014B5879704700BFB4000020014B9879A6
:10168000704700BFB4000020014B1860704700BFD6
:10169000405C0040014B186880B27047405C0040DD
:1016A000014B1860704700BF445C0040014B186854
:1016B00080B27047445C0040014B186880B27047AC
:1016C000485C0040014B1860704700BF4C5C004014
:1016D000014B186880B270474C5C00404FF6F873BD
:1016E000014A034013607047505C0040014B18688A
:1016F00080B27047505C0040800000F1804000F5EF
:10170000B84001607047800000F1804000F5B840AB
:10171000006880B27047800000F1804000F5B8405A
:10172000036823F4EC4323F0700319438BB2036086
:101730007047800000F1804000F5B840006800F478
:10174000C0607047800000F1804000F5B840036839
:10175000CA0623F4E04323F040039BB248BF83F062
:1017600010038A0648BF83F0200343F4004343F08C
:10177000800303607047800000F1804000F5B840AE
:101780000368CA0423F4804323F070039BB248BF6C
:1017900083F480538A0448BF83F4005343F4004326
:1017A00043F0800303607047800000F1804000F543
:1017B000B8400129026802D14EF6FF7303E0022906
:1017C00003D14FF6EF73134003607047800000F1C0
:1017D000804000F5B840006800F03000704780009D
:1017E00000F1804000F5B840006800F440507047B8
:1017F000800000F1804000F5B840036823F4E04326
:1018000023F040039BB283F0300343F4004343F0E2
:10181000800303607047800000F1804000F5B8400D
:10182000036823F4804323F070039BB283F4405396
:1018300043F4004343F0800303607047800000F1ED
:10184000804000F5B840036823F4F8731B051B0DB6
:1018500043F4014343F0800303607047800000F1CC
:10186000804000F5B840036823F4F8731B051B0D96
:1018700043F4004343F0800303607047800000F1AD
:10188000804000F5B840036823F4F8731B051B0D76
:1018900043F4004343F0800303607047800000F18D
:1018A000804000F5B840036823F4F8731B051B0D56
:1018B00043F4014343F0800303607047800000F16C
:1018C000804000F5B840036823F4F8731B051B0D36
:1018D00043F4014343F0800303607047800000F14C
:1018E000804000F5B840036823F4F8731B051B0D16
:1018F00043F4004343F0800303607047800000F12D
:10190000804000F5B840006800F03000B0F11003EE
:10191000584258417047800000F1804000F5B840BF
:10192000006800F44050B0F5805358425841704769
:10193000800000F1804000F5B840036823F0700398
:101940001B051B0D03607047800000F1804000F50F
:10195000B840036823F4E14323F070031B041B0C1D
:1019600003607047800000F1804000F5B8400368D4
:1019700023F0F0031B051B0D43F4404343F08003A9
:1019800003607047800000F1804000F5B8400368B4
:1019900023F0F0031B051B0D43F4004343F0C00389
:1019A00003607047800000F1804000F5B840036894
:1019B0005B0408D5026840F60F73134043F44043BC
:1019C00043F0800303607047800000F1804000F521
:1019D000B84003685B0608D5026840F60F731340F1
:1019E00043F4004343F0C00303607047800000F1FC
:1019F000804000F5B840036841F4004123F0F00353
:101A00001B0541F080011B0D1943016070478000E8
:101A100000F1804000F5B840006800F00F0070470A
:101A2000064B49081B6849009BB203EBC00000F15C
:101A3000005000F54050400001607047505C00408D
:101A4000054B49081B6849009BB203EBC000034BE0
:101A500003445B0019607047505C00400430002074
:101A6000054B1B689BB203EBC00000F1005000F572
:101A70004050400000887047505C0040044B1B6899
:101A80009BB203EBC000034B03445B001888704714
:101A9000505C004004300020044B1B689BB203EBF9
:101AA000C000034B03445B0019607047505C00406A
:101AB000023000203E2909D94B09C90604BF03F1B1
:101AC000FF339BB29B0243F4004304E04B08CA0778
:101AD00048BF01339B020360704700000D4B3E2955
:101AE0001B689BB203EBC0000B4B03444FEA43025D
:101AF00009D94B09C80604BF03F1FF339BB29B020F
:101B000043F4004304E04B08C90748BF01339B027C
:101B100013607047505C004006300020054B1B6886
:101B20009BB203EBC000044B03445B001868C0F396
:101B300009007047505C004002300020054B1B68D4
:101B40009BB203EBC000044B03445B001868C0F376
:101B500009007047505C00400630002010B50B4C67
:101B6000C000236849089BB2034403F1005303F506
:101B700040535B0049001960236852089BB2184427
:101B8000034B520003445B001A6010BD505C0040E0
:101B900004300020064B49081B6849009BB203EB48
:101BA000C00000F1005000F5405040000160704757
:101BB000505C0040054B49081B6849009BB203EB91
:101BC000C000034B03445B0019607047505C004049
:101BD00004300020054B1B689BB203EBC00000F1F2
:101BE000005000F54050400000887047505C0040B5
:101BF000044B1B689BB203EBC000034B03445B0028
:101C000018887047505C004004300020012910B54E
:101C10002FD1254CC0002168244B89B201440B44CC
:101C20003E2A4FEA43010AD9530912F01F0F04BF9D
:101C300003F1FF339BB29B0243F4004305E05308DA
:101C400012F0010F18BF01339B020B6023683E2A7C
:101C50009BB21844164B03444FEA43031CD9510965
:101C6000D00604BF01F1FF3189B2890241F400417D
:101C700017E0022917D10C49C0000C680B4BA4B225
:101C8000044423445B001A600B689BB21844084B61
:101C900003445B001A6010BD5108D20748BF0131F0
:101CA0008902196010BD10BD505C00400230002058
:101CB0000630002001291BD1134B3E2A1B689BB222
:101CC00003EBC000114B03444FEA430109D9530908
:101CD000D00604BF03F1FF339BB29B0243F40043E1
:101CE00004E05308D20748BF01339B020B607047E2
:101CF000022908D1044B1B689BB203EBC000034BC5
:101D000003445B001A607047505C004002300020C2
:101D100001291BD1134B3E2A1B689BB203EBC00069
:101D2000114B03444FEA430109D95309D00604BFBC
:101D300003F1FF339BB29B0243F4004304E05308DA
:101D4000D20748BF01339B020B607047022908D1BC
:101D5000044B1B689BB203EBC000034B03445B00C6
:101D60001A607047505C004006300020054B1B682D
:101D70009BB203EBC000044B03445B001868C0F344
:101D800009007047505C004002300020054B1B6882
:101D90009BB203EBC000044B03445B001868C0F324
:101DA00009007047505C0040063000200D4AC0001A
:101DB00013689BB2C1180C4B0B445B001B8813F4D7
:101DC0007C4F0DD113689BB21844084B03445B0051
:101DD0001B88C3F30903002B0CBF002002207047AF
:101DE00001207047505C0040063000200230002087
:101DF00001290DD1800000F1804000F5B840026853
:101E000040F60F73134043F4004343F0C0030EE069
:101E100002290DD1800000F1804000F5B840026831
:101E200040F60F73134043F4404343F080030360D4
:101E3000704741EA00207047C3B2000A40EA03201D
:101E4000704700000D4B1A6842F001021A60596891
:101E50000B4A0A405A601A6822F0847222F48032D7
:101E60001A601A6822F480221A605A6822F4FE026C
:101E70005A604FF41F029A60704700BF0010024082
:101E80000000FFF80C4BB0F5803F1A6822F4803256
:101E90001A601A6822F480221A6003D0B0F5802FED
:101EA00004D070471A6842F4803202E01A6842F4A3
:101EB000A0221A60704700BF00100240034B1A684E
:101EC00022F0F80242EAC000186070470010024099
:101ED000014B1860704700BF00004242034B5A6834
:101EE00022F47C12114308435860704700100240EE
:101EF000014B1860704700BF60004242034B5A68B4
:101F000022F0030210435860704700BF00100240E7
:101F1000024B586800F00C00704700BF00100240F0
:101F2000034B5A6822F0F00210435860704700BF1C
:101F300000100240034B5A6822F4E06210435860DC
:101F4000704700BF00100240034B5A6822F46052F1
:101F500042EAC0005860704700100240044B1A78F3
:101F600009B1104301E022EA00001870704700BF79
:101F700009100240014B1860704700BFD800424270
:101F8000034B5A6822F4404210435860704700BF28
:101F900000100240064B002201281A701A7002D06D
:101FA000042802D070471870704705221A707047D5
:101FB00020100240014B1860704700BF800442426D
:101FC000024B1A6A10431862704700BF00100240AB
:101FD000014B1860704700BF3C0442421C4B10B5D7
:101FE0005A6802F00C02042A01D0082A01D0194ACA
:101FF0000EE05A685968C2F38342CC0302F1020230
:1020000002D55968890301D5134900E011494A43B3
:1020100002605A681149C2F303128C5C0268E24004
:1020200042605C68C4F302240C5D22FA04F484600C
:102030005C68C4F3C224095DCA40C2605B68084999
:10204000C3F38133CB5CB2FBF3F2026110BD00BF7E
:102050000010024000127A0000093D00EE0000204E
:10206000EA000020044B5A6909B1104301E022EA5A
:1020700000005861704700BF00100240044B9A698D
:1020800009B1104301E022EA00009861704700BFE7
:1020900000100240044BDA6909B1104301E022EA62
:1020A0000000D861704700BF00100240044BDA689E
:1020B00009B1104301E022EA0000D860704700BF78
:1020C00000100240044B1A6909B1104301E022EAF2
:1020D00000001861704700BF00100240014B1860FB
:1020E000704700BF40044242014B1860704700BF78
:1020F0004C004242014B1870704700BF071002406D
:102100004309012B074A01D1136803E0022B0CBFDE
:10211000136A536A00F01F0023FA00F000F0010078
:10212000704700BF0010024007B500230193312023
:10213000FFF7E6FF019B01330193019BB3F5A06F0D
:1021400001D00028F3D03120FFF7DAFF003018BFAC
:10215000012003B05DF804FB024B5A6A42F0807222
:102160005A62704700100240034B9B6818420CBF34
:1021700000200120704700BF00100240014B187082
:10218000704700BF0A100240014B1860704700BF43
:1021900000300040014B5860704700BF00300040E5
:1021A000014B9860704700BF00300040024B4AF678
:1021B000AA221A60704700BF00300040024B4CF664
:1021C000CC421A60704700BF00300040034BDB6810
:1021D00018420CBF00200120704700BF00300040B3
:1021E00008B5204B98420BD14FF480400121FFF7F6
:1021F0005DFFBDE808404FF480400021FFF756BF67
:10220000194B984207D14FF400300121FFF75AFFD4
:102210004FF400301FE0154B984207D14FF4802057
:102220000121FFF74FFF4FF4802014E0104B98423C
:1022300007D14FF400200121FFF744FF4FF40020A5
:1022400009E00C4B98420BD14FF480100121FFF7AD
:1022500039FF4FF480100021BDE80840FFF732BF7E
:1022600008BD00BF00380140004400400048004065
:10227000004C004000500040038ACA889BB223F4FF
:102280004053134330B503820D4682890989AB88D8
:1022900092B20B43698922F4B0520B4322F00C0234
:1022A00013439BB28381838AAA899BB223F4407330
:1022B00087B013430446838201A8FFF78FFE1749B6
:1022C000049A039B8C4208BF1346A289192112B2BB
:1022D0005943002A2A684FF06403B4BF52009200A9
:1022E000B1FBF2F1B1FBF3F21201100903FB101183
:1022F000A08900B2002806DAC9003231B1FBF3F33D
:1023000003F0070305E009013231B1FBF3F303F0F9
:102310000F031A4392B2228107B030BD003801404A
:102320004FF4165303600C2200238380C380038183
:102330004281838170470B8810B54C88028A234301
:102340008C88C98892B223430B4322F470621343F2
:102350009BB2038210BD0023038043808380C3802F
:102360007047838919B19BB243F4005303E023F40F
:1023700000531B041B0C83817047C1F3421310B53B
:10238000012401F01F01A34204FA01F101D10C3034
:1023900003E0022B0CBF1030143003680AB119435C
:1023A00001E023EA0101016010BD838A9BB20AB1FA
:1023B000194301E023EA010181827047038A23F077
:1023C0000F031B041B0C0382038A9BB21943018277
:1023D0007047838923F400631B041B0C838183896A
:1023E0009BB2194381817047838919B19BB243F035
:1023F000020303E023F002031B041B0C83817047DC
:10240000038A23F020031B041B0C0382038A9BB264
:10241000194301827047038A19B19BB243F4804388
:1024200003E023F480431B041B0C03827047C1F3B9
:102430000801818070478088C0F308007047838955
:102440009BB243F0010383817047038BDBB20383AC
:10245000038B9BB243EA012101837047038B03F492
:102460007F430383038B9BB2194301837047838AA5
:1024700019B19BB243F0200303E023F020031B04B7
:102480001B0C83827047838A19B19BB243F01003FF
:1024900003E023F010031B041B0C83827047838A24
:1024A00019B19BB243F0080303E023F008031B04B7
:1024B0001B0C83827047838929B16FEA43436FEA1B
:1024C00053439BB201E0C3F30E0383817047838AB9
:1024D00019B19BB243F4006303E023F400631B04CF
:1024E0001B0C83827047838A23F004031B041B0C9C
:1024F0008382838A9BB2194381827047838A19B190
:102500009BB243F0020303E023F002031B041B0C05
:1025100083827047038819420CBF00200120704756
:10252000C94389B20180704710B5C1F3421401F06C
:102530001F030122012C02FA03F201D1838903E077
:10254000022C0CBF038A838A9BB21340028892B28A
:1025500043B10123090A03FA01F111420CBF002023
:10256000012010BD184610BD090A01238B40DB4332
:102570009BB203807047000040F0BF60024B40F404
:102580000030D860704700BF00ED00E0C27810B5A1
:102590000378FAB1154A4478D26803F16043D24314
:1025A000C2F30222C2F1040104FA01F10F2424FA59
:1025B00002F2847803F5614322400A431201D2B249
:1025C00083F8002303780122590903F01F0302FA5C
:1025D00003F306E05909012203F01F0302FA03F393
:1025E0002031034A42F8213010BD00BF00ED00E069
:1025F00000E100E021F0604121F07F01014B084340
:102600009860704700ED00E0044B1A6909B110436F
:1026100001E022EA00001861704700BF00ED00E011
:10262000044B04281A680CBF42F0040222F0040292
:102630001A60704710E000E008B5234B984205D1BE
:1026400004200121FFF732FD042036E01F4B9842A1
:1026500005D108200121FFF729FD08202DE01C4BA2
:10266000984205D110200121FFF720FD102024E021
:10267000184B984205D120200121FFF717FD20209B
:102680001BE0154B984205D140200121FFF70EFDBC
:10269000402012E0114B984205D180200121FFF724
:1026A00005FD802009E00E4B98420BD14FF480705D
:1026B0000121FFF7FBFC4FF480700021BDE80840CA
:1026C000FFF7F4BC08BD00BF00080140000C01404A
:1026D000001001400014014000180140001C01409E
:1026E0000020014008B501200146FFF7DFFCBDE8EE
:1026F000084001200021FFF7D9BCCB78F0B5DA06FD
:1027000048BF8A78098803F00F0548BF154311F0C8
:10271000FF0F1DD0046800220127974007EA010639
:10272000BE4211D197004FF00F0C0CFA07FC05FACE
:1027300007F724EA0C04282B44EA070401D1466178
:1027400002E0482B08BF06610132082AE4D1046088
:10275000FF291FD94468002202F108060127B7406B
:1027600007EA0106BE4211D197004FF00F0C0CFA98
:1027700007FC05FA07F724EA0C04282B44EA0704AF
:1027800001D1466102E0482B08BF06610132082AE8
:10279000E2D14460F0BD4FF6FF73038002238370E3
:1027A0000423C3707047836819420CBF00200120C6
:1027B0007047806880B27047C36819420CBF002020
:1027C00001207047C06880B2704701617047416165
:1027D00070470AB10161704741617047C16070473D
:1027E00041F48033836181618361836983697047C8
:1027F000054B1A6822F07F021204120C114341EAC1
:1028000000101860704700BF00000140014B1860C5
:10281000704700BF1C0020420028164A30B500F463
:102820004015B4BFD3695368B5F5401F84B206D1D3
:10283000556823F0706325F0706555600FE0C202A3
:1028400005D5C0F30342032505FA02F203E0420D69
:10285000120104FA02F223EA020343F0706319B191
:10286000420D120194402343024A0028B4BFD361B1
:10287000536030BD0000014001F003039B000F22B4
:102880009A40984001F0FC0101F1804101F580314E
:1028900010B58C6824EA02028A608A6802438A6062
:1028A00010BD0000014B1860704700BFDC002042E3
:1028B000044B00221A605A609A60DA60024A5A6138
:1028C000704700BF00040140FFFF0F00837930B55F
:1028D0000168027943B3194BCC431D6802F1804271
:1028E00025401D605D6802F582322C405C601468F2
:1028F0002143116002689C68D1430C409C60DC68F5
:102900002140D9604179102906D199681143996015
:10291000D9680A43DA6030BD01F1804303F58233A0
:1029200019680A431A6030BD02F1804303F582330F
:102930001A6822EA0101196030BD00BF000401409D
:1029400000230C2203600371427183717047000001
:10295000024B1A6910431861704700BF0004014020
:10296000034B5B6918420CBF00200120704700BF79
:1029700000040140014B5861704700BF0004014052
:10298000054B1A685B69034004D010420CBF00205D
:10299000012070471846704700040140014B586100
:1029A000704700BF0004014010B50346144609B942
:1029B000002010BD12F1090F08DA0A22013994FB38
:1029C000F2F2FFF7F1FF03460028F1D00A2294FB50
:1029D000F2F102FB11421846C2F1300200F8012B5D
:1029E00010BD0000014B185C704700BF67860008EF
:1029F000084BC0F30721C2B2595C9A5C82B00A440A
:102A0000C0F30741595C000E1B5C0A44D018C0B2E9
:102A100002B0704767860008114B82B0CDE9000113
:102A2000C2B2C0F30721595C9A5C0A44C0F3074163
:102A3000595C000E185C0A4410449DF80420995C0F
:102A40009DF805200844995C9DF806200844995C8F
:102A50009DF8072008449B5C1844C0B202B0704740
:102A60006786000810B5044609B9002010BD013979
:102A70005242FFF799FF0028F7D00022027020464B
:102A800010BD000082B000230193019A074B9A42C7
:102A900002D8019B0133F7E7054A064BD16801F4E0
:102AA000E0610B43D360BFF34F8FFEE79F860100C9
:102AB00000ED00E00400FA05FEF728BD07B501218E
:102AC0000DF10700FEF744FD01280CBF9DF807003B
:102AD0004FF0FF3003B05DF804FB07B501210DF1A5
:102AE0000700FEF751FD10B19DF8070001E04FF01F
:102AF000FF3003B05DF804FB0B7810B5222B2AD110
:102B0000154CFEF78DFD2378032B0DD8DFE803F07D
:102B10000702070700280CBF0223012303E0002857
:102B20000CBF032301232370FEF796FDB0F5966FCB
:102B300011D12378022B0ED145F25550FFF724FB1B
:102B40000020FFF727FB0A20FFF72AFBFFF736FBE1
:102B5000FFF72CFBFEE710BDB80300201D4B73B53B
:102B60001A78022A34D103221A70FEF7CFFC032808
:102B70002ED9FEF7CBFC0422011F01A8FEF71EFD93
:102B80009DF80430312B23D19DF80530452B1FD102
:102B90009DF80630412B1BD19DF80730462B17D1ED
:102BA0000D4C4FF0C2466FF0060544F001040B4B8C
:102BB000184685464FF001002146324604B402B45F
:102BC00001B401B401B401B401B401B4AE4670471C
:102BD00002B070BDB8030020852A0008000800205C
:102BE000014B0360704700BF7087000808B50748B5
:102BF0004FF48061FEF70AFC01200549FEF7F8FB5F
:102C0000BDE8084002200349FEF7F2BB000C01407A
:102C10005D2B0008F92A000808B505484FF48061CB
:102C2000FEF71EFCBDE8084003200021FEF7E0BBD4
:102C3000000C014070B515460E4669B1074B1B6884
:102C40001B7B052B08D10024AC4205D23019291B6F
:102C5000FEF71EFC0444F7E7002070BD18000020BA
:102C600007B502AB03F8011D19460122FFF7E2FF89
:102C7000002003B05DF804FB70B50E461546002435
:102C8000AC4205D23019291BFEF77EFC0444F7E75D
:102C9000204670BD13B50446FEF738FC30B120461F
:102CA0000DF107010122FFF7E7FFF5E702B010BDC4
:102CB00008B5FEF741FCC0B208BD000008B5064BE0
:102CC0001B681B7B052B05D1FEF7AAFC003018BF43
:102CD000012008BD002008BD18000020FEF7A0BCA0
:102CE000FEF7A6BC014A024B1A60704770870008C5
:102CF000B403002000210023002210B5C0E9022304
:102D00000170417000F110040B460022E2540133BF
:102D1000DB2BFAD100F11103A0F8F020A0F8F2208B
:102D2000C0F8EC3010BD002100220023017041707A
:102D3000C0E90223A0F8F010A0F8F21070470000DC
:102D4000D0E90223921840B543EB0303064619B1BC
:102D50000120002102430B43C6E902234FF0FF305C
:102D6000D6E902234FF6FF71024012480B4045F2AC
:102D7000755150405940FFF74FFE022819D80E48B0
:102D80000E4900F04DFE00230D49D6F8EC20595CA9
:102D9000D1540133062BF7D10423A6F8F2300121D8
:102DA0003023A6F8F03071700648BDE8404001F0CD
:102DB000D3BB40BDFF77FFF5E40A002086870008FB
:102DC000808700085C0800200148D92200F0DEBDA1
:102DD000E40A0020F8B5D0E90223921843EB03037C
:102DE0000446C0E90223B0F8F060D0F8EC50534F2D
:102DF000002900F09880002101200B430243C4E920
:102E00000223F31006F00706EA5CE918BB5D1343E2
:102E10000B70B4F8F0305A1CA3F24633022BA4F81E
:102E2000F0202FD8D4E902234FF0FF3002404FF6B4
:102E3000FF7143480B4045F2755150405940FFF730
:102E4000EBFD04281ED8B4F8F0203E48303A3E4945
:102E500012B200F0CCFE0123214601F8103F3948A0
:102E6000642200F067FD00233849D4F8EC20595C57
:102E7000D1540133062BF7D10423A4F8F2303023C8
:102E8000A4F8F030B4F8F0302E3B9BB2042B1ED8DF
:102E9000D4E902234FF0FF3002404FF6FF7128487B
:102EA0000B4045F2755150405940FFF7B5FD0428DD
:102EB0000DD8B4F8F0202348303A254912B200F07A
:102EC00096FE0423A4F8F2303023A4F8F030B4F8CE
:102ED000F030B3F5D86F2FD1B4F8F250013DADB258
:102EE000A4F8F25065B917481A4900F099FD1A483C
:102EF000294601F031FB134800F074FD6570F8BD00
:102F0000EB1E5D425D41264606F8105F20463146C5
:102F1000FFF75AFF30460021DB2205F0BBF8002303
:102F2000A4F8F030F8BDF21006F00706B85DAB5C0F
:102F3000A91823EA00036BE7F8BD00BF0388000867
:102F4000FF77FFF5E40A0020A087000880870008CB
:102F5000C3870008E28700085C08002043780BB9AB
:102F6000FFF7EEBEFFF736BF08B50820FFF708FDF4
:102F700038B1044802F0F2FBBDE808400820FFF732
:102F80000DBD08BD5C0800202DE9F0431D2085B073
:102F90000121FFF773F801217948FFF73DFC00207C
:102FA000FEF7E8FF01214FF40000FFF773F84FF43C
:102FB0004070FFF7E1FA6846FFF7EDFB03238DF859
:102FC00002304FF4805410236E4869468DF8033068
:102FD000ADF80040FFF791FB6A4821460022FFF759
:102FE000F8FB00230193019BB3F5007F02D2019B04
:102FF0000133F7E704264FF48059694661480324FA
:1030000010258DF80360ADF80090FFF776FB2023C4
:1030100069465D48ADF800308DF802408DF80350E8
:10302000FFF76BFB402369465748ADF800308DF839
:1030300002408DF80350FFF760FB80236946524839
:10304000ADF800308DF803608DF80240FFF755FBB6
:103050004FF4807369464C48ADF800304FF4804817
:103060008DF802408DF80350FFF747FB694647484B
:103070008DF80240ADF800808DF80350FFF73DFB5E
:103080006946414808278DF803608DF80240ADF885
:103090000050FFF732FB69463B488DF803608DF81E
:1030A00002404FF40056ADF80070FFF726FB69466A
:1030B0003648ADF800608DF802408DF80350FFF7F8
:1030C0001CFB4FF4007369462F48ADF800308DF8B3
:1030D00002408DF80350FFF710FB69462A488DF82F
:1030E0000240ADF800908DF80350FFF706FB6946EB
:1030F0002548ADF800608DF802408DF80350FFF7C9
:10310000FCFA022369462048ADF8003001268DF80C
:1031100002408DF80350FFF7F0FA69461A488DF81F
:103120000240ADF800608DF80350FFF7E6FA6946FB
:1031300015488DF80240ADF800808DF80350FFF778
:10314000DCFA4FF4004369460F48ADF800308DF8C3
:1031500002408DF80350FFF7D0FA30462146FFF7C2
:103160008BFB00230DEB070002978DF80C308DF8D8
:103170000D508DF80E60FFF7A9FB05B0BDE8F08398
:103180000002300000080140000C01400010014026
:1031900007B509238DF804300F22012301A88DF80B
:1031A00005308DF806208DF80730FFF7EFF903B0F2
:1031B0005DF804FB07B503238DF806301023ADF846
:1031C000043001B90423044801A98DF80730FFF742
:1031D00094FA03B05DF804FB000C01400A46024873
:1031E0002021FFF7F6BA00BF000C01400A46024852
:1031F0004021FFF7EEBA00BF000C014008B5802166
:103200000348FFF7D0FA431E5842584108BD00BF9B
:10321000000C01400A4602484FF48071FFF7D9BA0A
:10322000000C01400A4602484FF48041FFF7D1BA32
:103230000010014008B510210348FFF7B4FA431EFF
:103240005842584108BD00BF000C014008B5082194
:103250000348FFF7A8FA431E5842584108BD00BF73
:10326000000C01400A4602481021FFF7B2BA00BF25
:10327000000C01400A4602480821FFF7AABA00BF25
:10328000000C01400A4602484FF40051FFF7A1BA72
:10329000001001400A4602484FF40071FFF799BA46
:1032A000000C01400A4602484FF48051FFF791BAE2
:1032B000000C01400A4602484FF40051FFF789BA5A
:1032C000000C01400A4602480221FFF782BA00BF03
:1032D000000C01400A4602480121FFF77ABA00BFFC
:1032E000000C01400A4602484FF48041FFF771BAD2
:1032F000000C01400A4602484FF40041FFF769BA4A
:10330000000C0140024B18460138FDD8704700BF41
:10331000BFD4010040F60F6318460138FDD870474E
:103320000C235943013908460138FDD8704700BFC6
:1033300000BF00BF70470022002383540132B2F562
:10334000807FF9D180F8003180F8013180F80231B6
:1033500070471FB570228DF80E208278E0238DF81B
:103360000F2000228DF80C3000920423012103AAC3
:103370008DF80D3001F0E9FC05B05DF804FB1FB5D8
:103380007F228DF80A208278E0238DF80B2000221E
:103390008DF808308DF80C1005230092012102AA47
:1033A0008DF8093001F0D1FC05B05DF804FB000098
:1033B0002DE9F041044686B0434801F0E0F80022D0
:1033C0008DF80B20414AE0238DF8083011780B234B
:1033D0008DF8093001238DF80A30174609B18DF8B0
:1033E0000B303B4B1A7898462AB19DF80B3043F0CE
:1033F00002038DF80B30374B1A781E462AB19DF820
:103400000B3043F004038DF80B30334B1A781D4614
:103410002AB19DF80B3043F008038DF80B302F4B89
:1034200029481B788DF80C302D4B1B788DF80D300A
:1034300000F00EFF28B19DF80D3043F004038DF825
:103440000D30214800F001FF28B19DF80D3043F008
:1034500008038DF80D303B782BB1224803F015F9A5
:103460008DF80E0001E08DF80E3098F8003043B171
:103470000A231D488DF80F3002F0D0FE8DF81000A1
:1034800003E08DF80F308DF8103033782BB11748EA
:1034900001F02AFD8DF8110001E08DF811302B7834
:1034A0002BB1134802F000FE8DF8120001E08DF8F8
:1034B0001230002300932046012102AA0B2301F0C1
:1034C00044FC06B0BDE8F0815C080020000100204B
:1034D00001010020FE000020FF000020AC080020B9
:1034E0003C0F0020B0080020CC0300202809002059
:1034F000CC09002010B5E0239CB08DF80C300022E0
:1035000001238DF80E208DF80F300A4CD1B2615C8A
:10351000131DDBB2013221B11CAC234403F8641C3F
:10352000F3E7009103AA01218DF80D3001F00DFCA5
:103530001CB010BD528900080C2A2DE9F04702D8B2
:103540000420BDE8F0870D78C5F3001380F8023140
:103550008C784A78322CF3D8CB78042BF0D8012B16
:1035600002F00107C2F34006C2F38000C2F3C002BA
:1035700002D1002FE4D00DE0022B02D1002EDFD0CB
:1035800008E0032B02D10028DAD003E0042B01D19C
:10359000002AD5D091F806A0BAF10F0FD0D8DFF8E5
:1035A000C480DFF8C490254988F80060244E89F86B
:1035B0000070244F0B703270234BEA43C2F3C012E9
:1035C0003870214621481A7003F058F820482146E7
:1035D00001F082FC1F48214602F05EFD1E48214694
:1035E00002F024FE1D48514603F0CBFB1C48C5F3F6
:1035F000C00100F0C1FF99F800301BB1012118484B
:103600000A460FE098F8003013B11548022108E08F
:103610003B7813B11248032103E0337823B11048FB
:103620000421012202F080F90D4800F041FF0C480E
:1036300002F026FC0020BDE8F08700BFAC080020A7
:10364000FF000020FE00002058080020B0080020E5
:1036500028090020CC090020CC03002040040020D1
:103660005C0800200101002000010020082A30B57C
:1036700018D9CC788A784B78240404EB02241C44B3
:10368000CB7988794A791B0403EB002313440D7925
:103690000A7A054804EB056103EB0262BDE830409D
:1036A00000F0DABD042030BD5C08002010B5012117
:1036B00004464FF4E13201F027FB204603214FF48A
:1036C0001652BDE8104001F01FBB000030B5134B8F
:1036D00091B01B78012B1FD8114B1B78E3B1E0236D
:1036E0008DF80C3010238DF80E300024E3B2DD1C71
:1036F0009342EDB206D210AB1D440B5D013405F8C8
:10370000343CF3E7D31C0022DBB20092012103AA70
:103710008DF80D3001F019FB11B030BDAC08002060
:103720000001002030B5134B89B01B78012B1FD846
:10373000114B1B78E3B1E0238DF80C3011238DF889
:103740000E300024E3B2DD1C9342EDB206D208AB8A
:103750001D440B5D013405F8143CF3E7D31C002233
:10376000DBB20092012103AA8DF80D3001F0EDFAD1
:1037700009B030BDAC080020000100201FB50C4B83
:103780001B78012B11D80B4B1B7873B11222E0234D
:103790008DF80E2000228DF80C30009203230121B9
:1037A00003AA8DF80D3001F0D0FA05B05DF804FBE6
:1037B000AC080020000100201FB50C4B1B78012B2A
:1037C00011D80B4B1B7873B11322E0238DF80E2018
:1037D00000228DF80C3000920323012103AA8DF8FA
:1037E0000D3001F0B2FA05B05DF804FBAC08002022
:1037F0000001002030B5154C8DB0247814F0FD0484
:1038000022D1134D2D78FDB100290CBF18211A21AA
:10381000E0258DF80A108DF808502146CCB2E51C41
:103820009C42EDB206D20CAC2544545C013105F843
:10383000284CF3E700220333DBB20092012102AAF5
:103840008DF8093001F081FA0DB030BDAC080020D0
:10385000010100201FB50E4B1B7813F0FD0214D19F
:103860000C4B1B788BB100294FF0E0030CBF1921E2
:103870001B218DF80C308DF80E10032300920121CE
:1038800003AA8DF80D3001F060FA05B05DF804FB75
:10389000AC0800200101002030B5144BA5B01B7806
:1038A000032B00D0FBB9124B1B78E3B1E0238DF85A
:1038B0000C3020238DF80E300024E3B2DD1C93423F
:1038C000EDB206D224AB1D440B5D013405F8843CF7
:1038D000F3E7D31C0022DBB20092012103AA8DF88A
:1038E0000D3001F032FA25B030BD00BFAC08002029
:1038F000FE0000201FB50D4B1B78032B00D08BB9A9
:103900000B4B1B7873B12122E0238DF80E2000228F
:103910008DF80C3000920323012103AA8DF80D309D
:1039200001F013FA05B05DF804FB00BFAC080020FD
:10393000FE00002030B5134BA1B01C7814F0FB043E
:103940001ED1114B1B78DBB1E0238DF808303023FA
:103950008DF80A30E3B2DD1C9342EDB206D220AB03
:103960001D440B5D013405F8783CF3E7D31C0022BD
:10397000DBB20092012102AA8DF8093001F0E5F9CD
:1039800021B030BDAC080020FF00002030B5134B43
:10399000C3B01C7814F0FB041ED1114B1B78DBB1B3
:1039A000E0238DF80C3031238DF80E30E3B2DD1CAE
:1039B0009342EDB206D242AB1D440B5D013405F8D3
:1039C000FC3CF3E7D31C0022DBB20092012103AAE6
:1039D0008DF80D3001F0B9F943B030BDAC080020CE
:1039E000FF0000201FB50C4B1B7813F0FB0210D119
:1039F0000A4B1B786BB1E02332218DF80C308DF827
:103A00000E1003230092012103AA8DF80D3001F05E
:103A10009CF905B05DF804FBAC080020FF00002015
:103A200030B590F80231A5B0C3B1E0238DF80C3069
:103A3000F1238DF80E300022D4B20C5DD31CDBB222
:103A4000013224B124AD2B4403F8844CF4E7012166
:103A5000009103AA8DF80D3001F077F925B030BD43
:103A600038B54B1E0C462648032B2ED8DFE803F052
:103A7000090216202349FFF7D3FF234801F073FA08
:103A800005E02249FFF7CCFF214803F05BF821480D
:103A900002F052FF2048FFF746F919E01F49FFF7EF
:103AA000BFFF1B4803F04EF8174801F05CFAF1E73E
:103AB0001B49FFF7B5FF164803F044F8124801F020
:103AC00052FA144802F038FF02E01649FFF7A8FF47
:103AD000154B1C701D4664B1144B1B78A34208D0D3
:103AE00007481349FFF79CFF12482146012201F0C5
:103AF0001BFF29780F48BDE8384000F0F3BB00BF3A
:103B0000E40A00200B880008E80B00201B8800084E
:103B100040040020C0070020C80600202E880008AE
:103B20004888000858880008AC080020C00600201B
:103B3000698800085C08002008B5DAB10E4B0978E6
:103B40001B788B4214D0042914D8012901D10B4BC6
:103B50000AE0022901D10A4B06E0032901D1094BF1
:103B600002E0042902D1084B1B781BB1FFF778FF54
:103B7000002008BD042008BDAC0800200001002082
:103B800001010020FE000020FF00002070B590F829
:103B90000231A4B0064643B3E0238DF80C30002474
:103BA000F1238DF80D408DF80E30E3B2E51CC85CB2
:103BB000EDB224AB01342B4410B103F8840CF4E7CC
:103BC000691C202003F8840CC9B203A80844C1F181
:103BD0008201FEF747FF0A350121EBB20091304622
:103BE00003AA8DF80D3001F0B0F824B070BD70B5A7
:103BF00090F80231A4B01BB3E0238DF80C30F2230F
:103C00008DF80E300023DDB2DC1C4E5DE4B224AD35
:103C10000133254416B105F8846CF4E71312611CD6
:103C200005F8843CC9B2A31C24AC214401F8842CBF
:103C30000121DBB2009103AA8DF80D3001F085F867
:103C400024B070BD73B504462046012101F066F82A
:103C50000546002800F03A812046012101F06BF86A
:103C600094F8002152B9E02803BF0123207084F8A2
:103C7000003184F8002184F80121E5E7012A06D10A
:103C80000223607084F8010184F80031DCE7531CE2
:103C900094F80111DBB29942A05484F80031D3D1D9
:103CA000A178112977D01DD8032953D006D801292E
:103CB0003ED041D82046FFF71DFC01E1082900F065
:103CC000FF8009D8042940F0F780023A2046E11C21
:103CD000D2B2FFF7CBFC35E00A2900F0F1801029C1
:103CE0003FD0E9E01E290BD81C2980F0E980182973
:103CF00000F0E6801A2975D0132940F0DD805FE0DE
:103D0000302900F0A58003D8202900F08780D3E077
:103D1000312900F0B680802940F0CE8000220321B6
:103D2000033B0092204662189BB201F00EF8C7E0F8
:103D30002046FFF73DFBC3E0023A2046E11CD2B229
:103D4000FFF7FAFB01462046002940F0B780FFF755
:103D500000FBB5E0023A2046E11CD2B2FFF7ECFED0
:103D6000F0E7664B1B7893B1654E3378012B0ED884
:103D7000023A6448E11CD2B202F078FA054638B93A
:103D80003378002B40F09C80204601213FE0022543
:103D90005D485E498AE0594B1B786BB1584E3378C9
:103DA000012B09D8023A5748E11CD2B202F084FA3A
:103DB00005460028E4D000E002255348544975E048
:103DC0004E4B1B7853B14E4E3378012B06D84D48DD
:103DD00002F098FA05460028D2D000E002254A48B1
:103DE0004C4963E04C4B1B78A3B1454E337813F03C
:103DF000FD0F0FD1023A4948E11CD2B202F074F92A
:103E0000054640B93378002B5AD120460221FFF7EE
:103E100027FE55E002253C48414947E0414B1B78CD
:103E200093B1374E33780BB1032B0DD1023A3E4894
:103E3000E11CD2B200F0BCFF054630B93378002B4C
:103E40003ED120460321E2E702252F4837492DE0E5
:103E5000374B1B788BB12A4E337813F0FB0F0CD104
:103E6000023A3448E11CD2B202F077F8054628B98C
:103E700033782BBB20460421C9E7022522482E496E
:103E800014E02B4B1B7873B11D4E337813F0FB0FEE
:103E900009D1023A2748E11CD2B202F05EF8054689
:103EA0000028E5D000E00225174824492AB2FFF790
:103EB0009EFE2046294601E020460121FFF75FFAD9
:103EC000002384F8003184F80131BDE61C4800F07D
:103ED00059FB4BF67F33984203D984F8005184F89C
:103EE00001512046032100F019FF20B12046032193
:103EF00000F021FFF5E702B070BD00BF0001002017
:103F0000AC080020B0080020E40A002087880008E0
:103F1000A6880008C388000801010020CC03002007
:103F2000DF880008FE00002028090020F98800082A
:103F3000FF000020CC0900201D89000839890008F5
:103F40005C080020F0B51E4690F80231A5B07BB3A6
:103F5000E0238DF80C30F3238DF80E300025EBB202
:103F6000EC1CCF5CE4B224AB0135234417B103F859
:103F7000847CF4E7111203F8841C611C24ABC9B2E1
:103F8000194401F8842CA21CD2B21A44331202F84C
:103F9000843C231D033424AAE4B21444012104F810
:103FA000846CDBB2009103AA8DF80D3000F0CDFED9
:103FB00025B0F0BDF0B590F80241A5B0BDF9A860FC
:103FC000002C3CD0E0248DF80C40F4248DF80E40F9
:103FD0000025EFB2EC1C11F807E0E4B224AF013584
:103FE0002744BEF1000F02D007F884ECF1E711126C
:103FF00007F8841C611C24ADC9B2294401F8842C43
:10400000A21CD2B219122A4402F8841CE21CD2B2B9
:104010002A4402F8843C231DDBB22B44321203F8FD
:10402000842CA31D0534E4B22C44012104F8846CD3
:10403000DBB2009103AA8DF80D3000F086FE25B0AA
:10404000F0BDF0B58C4690F80211A5B0BDF9A8708E
:10405000BDF9AC60002948D0E0218DF80C10F521A5
:104060008DF80E100025E9B2EC1C1CF801E0E4B25A
:1040700024A901352144BEF1000F02D001F884ECDF
:10408000F1E7151201F8845C611C24ADC9B2294422
:1040900001F8842CA21CD2B219122A4402F8841C02
:1040A000E21CD2B22A4402F8843C231DDBB22B442A
:1040B0003A1203F8842C631DDBB22B4403F8847C92
:1040C000A31DDBB22B44321203F8842C04F1080345
:1040D0000734E4B22C44012104F8846CDBB2009173
:1040E00003AA8DF80D3000F030FE25B0F0BDF8B514
:1040F0000446062600277D2520464FF47A71FFF7F7
:104100000FF9013DF8D187F0010520463946FFF748
:10411000B9F820462946FFF7E5F820462946FFF77B
:10412000C1F820462946FFF7C5F820462946FFF783
:10413000C9F820462946FFF7CDF820462946FFF763
:10414000D9F8013E01D02F46D5E7F8BD70B500255E
:10415000044605724FF480610C3002F09EFA01268D
:104160004FF4806104F1200002F097FA204684F8B1
:104170003450A56384F83C50256484F8445084F896
:104180004A60E564FEF700FF20463146FFF74AF833
:1041900020463146FFF776F820462946FFF7A2F879
:1041A00020462946FFF77EF820462946FFF782F889
:1041B00020462946FFF786F820462946FFF78AF869
:1041C00020462946FFF796F820462946FFF762F871
:1041D00020462946FFF702F820462946FFF706F851
:1041E00020462946FFF716F82046FFF780FF024BCE
:1041F00020461D6070BD00BFC80300202DE9F041BE
:104200001E46037A054688461746BBB10024A3B272
:10421000BB420BD205F1200018F804100EB932464B
:1042200000E0325D02F090FA0134F0E7044C2378AC
:1042300023B9284601F03AFB01232370BDE8F08141
:104240003C0F0020203002F03DBA203002F0C7BA07
:104250000C3002F0C4BA0000174B20201870174B26
:1042600017480B4483421ED9144B134483421AD976
:10427000144B15480B44834215D9124B1344834207
:1042800011D9124B12480B4483420CD90F4B1344E3
:10429000834208D90F4B10480B44834203D90D4B7E
:1042A0001344834205D80D4B002019600C4B1A6053
:1042B00070470420704700BFC003002000BC6AF7AD
:1042C000FF083D00004FF7E6BF3B47034053F2F2C3
:1042D0007F8D5B008019D0CDFFF26F06C4030020F4
:1042E000BC03002038B54B1E0C46594259410546C7
:1042F000FEF7D8FFA21E514251412846FEF7DAFFD1
:10430000B4F1030EDEF1000151EB0E012846FEF779
:10431000D9FFB4F1040CDCF10001284651EB0C018B
:10432000BDE83840FEF7D6BF37B5826B037A01325D
:1043300004468263FBB1C36CB3F5964F0AD3524B6C
:104340001A78013A032A03D800211970FFF7CAFF2F
:104350000023E364A36B45F6BF52934219D994F846
:104360004A10002381F00101A36384F84A1020461B
:10437000FEF788FF0DE045498A4240F2838090F8BD
:104380004A10836381F0010180F84A10FEF77AFF3A
:1043900078E004F1200002F0B7F9014618B93C4B6F
:1043A0001B78002B6AD13B4B1A781D463A4B022AE8
:1043B0001A6814BF4FF4F0614FF470618A4224D33D
:1043C00000221A60304B1B78FBB9236CEBB994F8D0
:1043D0003C30D3B194F8443094F84520013393FB3A
:1043E000F2F102FB113384F84430DBB2234493F83A
:1043F00046102046FFF776FF94F8443027482344C0
:1044000093F84610012201F08FFA0C34204602F096
:104410007BF9002836D020460DF106010DF1070288
:1044200002F0B8F92B78013B032B2BD8DFE803F01F
:10443000020B141D9DF806101948003118BF012108
:1044400001F03AF91EE09DF806101648003118BF39
:10445000012102F0A1FC15E09DF806101248003180
:1044600018BF012102F04CFB0CE09DF806100F482C
:10447000003118BF0121FEF771FD03E0204601F075
:1044800033FA90E703B030BDAC0800207FA90300E9
:104490003C0F0020C0060020C80300205C0800205C
:1044A000E80B002040040020C0070020C8060020C0
:1044B000002310B580F84530224B04461B7823B109
:1044C000012380F8463080F845301F4B1B7843B1FC
:1044D00094F845300221E218013382F8461084F83E
:1044E00045301A4B1B7843B194F845300321E2184C
:1044F000013382F8461084F84530154B1B7843B1E0
:1045000094F845300421E218013382F8461084F80B
:10451000453094F84530012B03D9012384F83C3011
:1045200007E0002384F83C300A4B20461978FFF757
:10453000D9FE237A23B92046FEF72AFE01232372EF
:1045400010BD00BF0001002001010020FE0000207E
:10455000FF000020AC08002038B5064B0C461D7843
:104560008D421D4603D001230364FEF7C3FE2C7069
:1045700038BD00BFC809002080F834107047002300
:10458000C3647047C06C70477047B1F5006F10D3BB
:104590004FF4802321F4FF6222F007024AB10B425C
:1045A00001D15B08FBE7DA0A40F67540424351400F
:1045B000F0E708467047000010B54C780B78E4002F
:1045C00004EBC3248B7804EB53142146FFF7DDFF83
:1045D000034B53F8203003B15C40C4F3C72010BD37
:1045E0009C8B0008F7B51F460B7B4D7B9B0043EA75
:1045F00095138DF80430CB7CAD009B000C7D03F04F
:104600003C0325F03F051D4345EA9415A40024F022
:104610000F0401A916468DF805508DF80640FFF7E6
:10462000CBFF030900F00F003370387003B0F0BD0A
:1046300002F00F0242EA0111134AC9B230B51C7BE5
:1046400032F811205D7B24F03F04D0B244EA91049B
:1046500005F00F051C73840845EA811104F030054C
:1046600029435973D97C04F00F0421F00F010C4346
:10467000197D920A01F0030141EA801002F03C0228
:104680001043DC74187530BD9A8900080148FFF7A3
:104690000DB800BFE40A002008B51848FFF744FE33
:1046A0001748FFF7CFFA174B1B7833B1164B1B781F
:1046B000012B02D1154801F029FF154B1B7833B1AE
:1046C000114B1B78022B02D1124801F041FD124B15
:1046D0001B7833B10C4B1B78032B02D10F4800F031
:1046E0009BFB0F4B1B7843B1074B1B78042B04D16A
:1046F000BDE808400B4801F06BBC08BD5C08002019
:10470000E40A002000010020AC080020B0080020CE
:1047100001010020CC030020FE0000202809002019
:10472000FF000020CC09002008B5FFF7AFFFFFF71E
:10473000B3FFFCE708B5104800F0DEFB0F4801F0BE
:104740007DFD0F4802F0E2F90E4801F0B5FC0E487D
:1047500002F0D9F80D4800F012FB0D48FEF7CAFA36
:104760000C4801F0E1FB0C48FEF7E5FDBDE8084010
:104770000A48FFF7EBBC00BFE80B0020B0080020A0
:1047800040040020CC030020C0070020280900209E
:10479000C8060020CC090020E40A00205C080020A4
:1047A000024A00231380024A138070473E0F002004
:1047B00044110020024A00231380024A13807047EC
:1047C0004A13002040110020064A074B1B8810881E
:1047D0009BB280B2834288BF00F58070C01A80B25D
:1047E000704700BF3E0F002044110020064A074BCF
:1047F0001B8810889BB280B2834288BF00F580700E
:10480000C01A80B2704700BF4A1300204011002038
:1048100008B503488021FDF787FE0028F9D108BDBF
:104820000038014010B50446FFF7CEFFFF2816D828
:104830000C4B0D491A880D4892B28C541A8840F2DC
:104840002771013292B21A801A8892B2FF2A84BF6D
:1048500000221A800122FDF790FD012010BD0020EA
:1048600010BD00BF3E0F002048110020003801405D
:1048700010B5294840F22551FDF756FEE0B1264813
:10488000FDF7D9FD0446FFF7B1FFFF280FD8234BF2
:1048900023491A88E4B292B28C541A88013292B237
:1048A0001A801A8892B2FF2A84BF00221A801A48FE
:1048B00040F22551FDF758FE174840F22771FDF7E9
:1048C00033FE38B3174B1988174B89B21A8892B246
:1048D000914212D01A88154992B2895C1A88C9B2DD
:1048E000013292B21A801A880B4892B2FF2A84BF12
:1048F00000221A80FDF79BFD05E0074840F2277172
:104900000022FDF73AFDBDE81040034840F2277150
:10491000FDF72ABE10BD00BF003801404A13002039
:10492000400F00203E0F00204411002048110020BD
:1049300070B5012186B006460520FDF79FFB0121D9
:104940004FF48040FDF79AFB252301258DF80430B4
:1049500001A80F238DF805308DF806308DF807502B
:10496000FDF714FE6846FDF716FF204C18238DF85E
:1049700003304FF40073ADF800302046032369463E
:104980008DF80230FDF7B9FE042369468DF8033037
:1049900020464FF48063ADF80030FDF7AEFE02A86C
:1049A000FDF7BEFC04F540540023ADF80C30ADF823
:1049B0000E30ADF81030ADF8143020460C2302A9AB
:1049C000ADF812300296FDF757FC2A46204640F219
:1049D0002551FDF7D2FC20462946FDF7C2FCFFF722
:1049E000DFFEFFF7E7FE06B070BD00BF0008014024
:1049F00008B5FFF7FBFE003018BF012008BD00001E
:104A0000084B09491A8892B2885C1A88C0B20132F0
:104A100092B21A801A8892B2FF2A84BF00221A80AA
:104A2000704700BF40110020400F002070B50546C0
:104A30000E460024A3B2B34204D2285DFFF7F2FE73
:104A40000134F7E7034840F227710122BDE87040C6
:104A5000FDF793BC00380140024A00231380024A4C
:104A6000138070474813002046110020024A00239B
:104A70001380024A138070474C130020421100201B
:104A8000064A074B1B8810889BB280B2834288BFBE
:104A900000F58070C01A80B2704700BF4813002034
:104AA00046110020064A074B1B8810889BB280B233
:104AB000834288BF00F58070C01A80B2704700BF83
:104AC0004C1300204211002008B503488021FDF757
:104AD0002BFD0028F9D108BD0044004010B5044664
:104AE000FFF7CEFFFF2816D80C4B0D491A880D484A
:104AF00092B28C541A8840F22771013292B21A8015
:104B00001A8892B2FF2A84BF00221A800122FDF780
:104B100034FC012010BD002010BD00BF4813002050
:104B2000481200200044004010B5294840F22551A9
:104B3000FDF7FAFCE0B12648FDF77DFC0446FFF7DF
:104B4000B1FFFF280FD8234B23491A88E4B292B251
:104B50008C541A88013292B21A801A8892B2FF2AB3
:104B600084BF00221A801A4840F22551FDF7FCFC50
:104B7000174840F22771FDF7D7FC38B3174B198857
:104B8000174B89B21A8892B2914212D01A881549ED
:104B900092B2895C1A88C9B2013292B21A801A881C
:104BA0000B4892B2FF2A84BF00221A80FDF73FFC17
:104BB00005E0074840F227710022FDF7DEFBBDE863
:104BC0001040034840F22771FDF7CEBC10BD00BF76
:104BD000004400404C1300204010002048130020E7
:104BE0004611002048120020F0B5012187B0074689
:104BF0000520FDF743FA01214FF40030FDF74AFA92
:104C0000262301258DF8043001A80F238DF80530E7
:104C10008DF80630214C8DF80750FDF7B7FC68463B
:104C2000FDF7B9FD18238DF8033004260323204631
:104C300069468DF80230ADF80060FDF75EFD08238F
:104C400069462046ADF800308DF80360FDF755FD4C
:104C500002A8FDF765FBA4F544440023ADF80C3031
:104C6000ADF80E30ADF81030ADF8143020460C23FE
:104C700002A9ADF812300297FDF7FEFA2046294648
:104C8000FDF76FFB204640F225512A46FDF775FBE4
:104C9000FFF7E2FEFFF7EAFE07B0F0BD00080140B3
:104CA00008B5FFF7FFFE003018BF012008BD000067
:104CB000084B09491A8892B2885C1A88C0B201323E
:104CC00092B21A801A8892B2FF2A84BF00221A80F8
:104CD000704700BF421100204010002070B505460B
:104CE0000E460024A3B2B34204D2285DFFF7F6FEBD
:104CF0000134F7E7034840F227710122BDE8704014
:104D0000FDF73BBB004400400129104602D00329B7
:104D100002D07047FFF70CBEFFF766BF012908B548
:104D200004D0032905D1FFF7BBFF08BDFFF760FEE4
:104D300008BD002008BD012903D0032903D1FFF7D6
:104D4000B7BFFFF75DBE0020704738B50D46012D97
:104D5000104619469DF8104002D0032D07D038BDEB
:104D6000FFF764FE54B1BDE83840FFF751BDFFF7CF
:104D7000B5FF1CB1BDE83840FFF7A6BE38BD10B581
:104D800040F2DC51044601F02FFD04F11001002235
:104D900000238B540132822AFAD1F022A4F89230F7
:104DA000A4F89430A4F89620C4F89830204610BD9A
:104DB000792A70B505460E460DD101F028FD7728F9
:104DC0000BD90024331928465978013401F061FDCC
:104DD000782CF7D103E0042070BD052070BD0020C1
:104DE00070BD000037B50C46082523064CBF0123D3
:104DF00000238DF8073007480DF107010122002339
:104E0000013DFFF7FBF9640015F0FF05E4B2ECD1BA
:104E100003B030BD5C08002070B5044601F019FDF8
:104E2000B4F8923008B903B970BD03BB284A1278B0
:104E30004AB9C4F89830B4F89630012284F89C201E
:104E4000A4F8923010E084F89C307825B4F8926091
:104E50002046731CA4F8923001F041FD013D264428
:104E600015F0FF053074F1D10023A4F89430B4F8A4
:104E700092305BB31748FFF7E5F90546082D24D9B2
:104E800094F89C303BB1B4F8943020460133A4F838
:104E90009430772107E0B4F8943020465A1C23441C
:104EA000197CA4F89420FFF79DFFB4F89420B4F87F
:104EB0009230083D9A42ADB2E0D30023A4F894307A
:104EC000A4F8923084F89C3070BD70BD70BD00BFF6
:104ED0003C0F00205C08002001EB4101890001F536
:104EE0001671A0F89610704708B501F090FC782371
:104EF000B0FBF3F080B208BD00220270426000F106
:104F0000080100238B540132642AFAD1C366036777
:104F100043678367C367C0F88030C0F8843000F10E
:104F200088010022CA500433A82BFAD100F59871E9
:104F300000238B500432A82AFAD100F5EC7100222C
:104F4000CA500433A82BFAD100F5207100238B50EE
:104F50000432A82AFAD100F54A720021D154013353
:104F60002A2BFAD17047002303704360C36603679E
:104F7000704700002DE9FF410D68866F446F06EB16
:104F8000050C0F69D0F88050E2082F446745D4BF64
:104F90000097CDF800C09200BC4504F0070300EB79
:104FA000020C07DA394F17F80380DCF8887007EA3B
:104FB000080706E0364F17F80380DCF8887047EAE8
:104FC0000807CCF888704F683E444F693D44B542AD
:104FD000D4BF01950196AE4200EB020505DA2B4ED7
:104FE000F75CD5F830613E4004E0294EF75CD5F817
:104FF00030613E43C5F830618E68C56F8F6905EB3F
:10500000060CD0F8846037446745D4BF0297CDF8CA
:1050100008C0BC4500EB020C07DA1C4F17F80380F0
:10502000DCF8D87107EA080706E0194F17F8038083
:10503000DCF8D87147EA0807CCF8D871CF68C9699D
:105040003D443144A942D4BF039103958D420244AB
:1050500005DA0E49C95CD2F880320B4004E00C49F5
:10506000C95CD2F880320B43C2F88032009B013415
:105070008367019B4467C367029BC0F88030039B32
:10508000C0F8843004B0BDE8F08100BF1FB1000853
:1050900027B1000870B591E80C0088B0991883F02A
:1050A000010682F001052B443244009174190591E8
:1050B0006946019402920393049406930792FFF7C2
:1050C00059FF08B070BD000070B5002340F24912CE
:1050D0001946032948D8DFE801F0020E1B31244DA0
:1050E00002F007042D5DD410223450F824402542EC
:1050F00018BF022118E01E4D02F007016C5CD110B0
:105100004C3150F821100C4214BF0221002120E044
:10511000174C02F00701645CD110763150F8211071
:105120000C4214BF03210121124E03F0070500EBCE
:10513000D304765D94F82853354012E00C4D02F00C
:1051400007042E5DD410A03450F82440264208BF36
:10515000012100EBD30403F00706AE5D94F8285359
:10516000354384F82853013312F1FF32B1D270BDB8
:1051700027B100081FB1000810B54FF0FF3200231F
:10518000CC5C0E485440E4B230F81400C2F307225D
:1051900001335040272B0246F2D1C04391F827201B
:1051A000C3B29A4207D191F82830C0F30720C31A3E
:1051B0005842584110BD002010BD00BF48B2000841
:1051C000F0B5002399B004461646794A985CCA5C4B
:1051D0004240CA540133532BF7D10023002203A8C5
:1051E0001A540133542BF9D1724BD010085CC50707
:1051F0000FD513F80E5C18AF3D4413F80D7C4FF03B
:10520000800E2EFA07F715F854EC47EA0E0705F85A
:10521000547C87070FD513F80C5C18AF3D4413F886
:105220000B7C4FF0800E2EFA07F715F854EC47EA86
:105230000E0705F8547C45070FD513F80A5C18AF24
:105240003D4413F8097C4FF0800E2EFA07F715F84D
:1052500054EC47EA0E0705F8547C07070FD513F8FE
:10526000085C18AF3D4413F8077C4FF0800E2EFA0F
:1052700007F715F854EC47EA0E0705F8547CB2F529
:10528000247F09D10023A367E367C4F88030C4F802
:10529000843063671D4646E0C5060FD513F8065CEB
:1052A00018AF3D4413F8057C4FF0800E2EFA07F737
:1052B00015F854EC47EA0E0705F8547C87060FD51D
:1052C00013F8045C18AF3D4413F8037C4FF0800ED4
:1052D0002EFA07F715F854EC47EA0E0705F8547C48
:1052E00045060FD513F8025C18AF3D4413F8017C56
:1052F0004FF0800E2EFA07F715F854EC47EA0E0728
:1053000005F8547C07060BD5187818AD28445D784D
:10531000802727FA05F510F8547C3D4300F8545CCB
:105320000832103361E705F007028021D14018AF41
:1053300007EBE50313F8543C2046194018BF012140
:105340000291402121FA02F2134018BF012301A962
:1053500002350193FFF79EFEB5F5257FE3D1204688
:10536000FFF7B2FE00220023B3540132292AFAD1FA
:10537000C3F5A4720132104802F0070104EBE20207
:10538000415C92F82823114208D0012003F0070164
:1053900000FA01F1DA08B05C0143B1540133B3F50E
:1053A000A57FE5D120463146FFF7E6FE19B0F0BDF6
:1053B000C4B00008AAAB000827B1000830B54268A5
:1053C0008DB0520004464260C36E89B342F00102C0
:1053D00042601D4DDA0803F00700A118285C097A25
:1053E000014301332244B3F5257F1172E36628D1CE
:1053F00004F108052046294601AAFFF7E1FEA8B1FD
:1054000012480121FFF7A8F8114801A92922FEF747
:105410005DF9284600210E2202F03CFE0023E366DF
:105420000223237040F2817323670AE0207008E0B2
:10543000DA08084D03F00700A118285C097A01403A
:10544000CFE70DB030BD00BF37B100085C080020C9
:10545000E40A00202FB1000801480C22FEF762B9CF
:10546000E40A0020436870B55B00044609B143F0CC
:1054700001036360606880F0AA30FDF7B9FA022882
:1054800003D8214A002313603CE0606820F07F438A
:105490001E485840FDF7ACFA02280DD81C481D499B
:1054A000FEF7BEFA04F108000021532202F0F2FDDB
:1054B0000023E366012325E0606820F07F4316485F
:1054C0005840FDF795FA0546E8B911481349FEF72B
:1054D000A7FA13480121FFF73FF8124A04F1080622
:1054E00013682046A36053683146E36093682361E4
:1054F000FFF7B2FF304629460E2202F0CBFDE566EB
:1055000025670223237070BDC80300205076550024
:10551000E40A00203FB1000868B4AA0068B100089E
:105520005C08002048B400084268F8B55200044600
:105530004260C36E002900F09F8042F00102426089
:10554000524DDA0803F00700A118285C097A0143DC
:105550002244013311724E48E36663685840FDF7F8
:1055600047FA03280BD84B484B49FEF759FA4B48EA
:105570000021FEF7F1FF4748FEF71EF957E0236FC1
:10558000A3F2DD73042B01D900271DE0606820F031
:105590007F4343485840FDF72BFA0228F4D8226F86
:1055A000B2F5FC6F07D2C2F5FC623A483D4912B22F
:1055B000FEF71DFB03E037483B49FEF731FA602355
:1055C000E366002323670127236FB3F5FC6F1DD12A
:1055D00001256FF07F42EA406368EEB21340304A23
:1055E00022FA05F05840FDF703FA02280BD832469C
:1055F00028482E49FEF7FBFAE36E9B1BE366236FF8
:105600009E1B266702E00135042DE2D1236F013392
:10561000B3F5965F23670DD31E482549FEF700FAC0
:105620001E480021FEF798FF1A48FEF7A7F800234E
:105630002370F8BDE36E602B27D104F1080557B144
:10564000552363742D23A3741623E374204629463F
:10565000FFF702FF04E00F4829460C22FEF762F82C
:105660000E480121FEF778FF284600210E2202F0A5
:1056700011FD0023E366F8BDDA080E4D03F00700C4
:10568000A118285C097A014062E7F8BD37B100082B
:105690005E13AAAAE40A002090B100085C0800206A
:1056A00068B4AA00B0B10008D8B10008F9B1000888
:1056B00020B200082FB100080378012B05D002D3D7
:1056C000022B04D07047FFF7CDBEFFF777BEFFF780
:1056D0002BBF000010B51F24104B11481968E14082
:1056E00011F0010118BF0121FDF780FD0C48FDF705
:1056F0001EFE01210A48FDF771FD0948FDF717FE5E
:1057000007480021FDF76AFD14F1FF34E4D2044894
:105710000021BDE81040FDF769BD00BF5413002013
:105720005C08002010B5074C01212046FDF772FDF2
:105730002046FDF7FCFD20460021BDE81040FDF7A6
:1057400069BD00BF5C08002010B50446FFF7C2FF2A
:105750001CB1BDE81040FFF7E5BF10BD2DE9F341D6
:1057600000238DF80730037A0446002B00F08B806D
:10577000FDF76CFD454B05461A68904200F08380AA
:10578000434E18603378002B30D000282ED1414A88
:1057900004F120000DF1070100F0FCFF3E4B204614
:1057A0001A78984682F001021A709DF807200AB113
:1057B000012100E02946394FFDF754FD3B78ABB19C
:1057C00000BF00BF00BF01212046FDF723FD00BF41
:1057D00000BF00BF00212046FDF71CFD2046002130
:1057E000FDF704FD00223A7088F80020337893B961
:1057F000012D10D12A4B1B786BB92046FDF71AFDFD
:10580000244B011C18BF012104F10C001A788DF8FB
:10581000071000F099FFDFF8908098F800302BB166
:105820001D4F3B7813B9337803B195B1E36C013365
:10583000E3641C4B1A6801321A60236C44F61F6241
:10584000934284BF00232364236CE3B101332364B8
:1058500019E020461A21FDF763FD20460121FDF7DE
:10586000D9FC00BF00BF00BF20462946FDF7D2FC8F
:1058700020462946FDF7BAFC054B88F800501D70FC
:1058800001233B70D2E702B0BDE8F08104010020A3
:105890003C0F0020E70B00200801002058130020D7
:1058A00058080020C80300206413002010B501210F
:1058B0000446FDF717FD094B1A68094B1A60FFF7FC
:1058C00009FF20460121FDF775FC064B01221A70E5
:1058D0002046FDF7BBFC0028FAD110BD5C13002068
:1058E000541300205813002038B50C4600210546FB
:1058F000FDF7F8FC094B20461A68094B1A60FFF7C0
:1059000023FF28460021FDF755FC34B9054B012241
:105910001A701A780AB100BFFBE738BD6C1300207B
:1059200054130020641300202DE9F84FC04B0646A5
:105930008846197062B10021FDF774FC3046FDF70E
:10594000E9FC30460121FDF76DFC3046FDF7E2FC35
:10595000B84BB94A1D68B94BDFF838B32B449342B2
:10596000B74B01D8B74A0AE0B74AB8492A448A4235
:10597000F8D9B74AB7492A448A4204D9B64ACBF87B
:105980000020012203E0B54ACBF8002002221A6071
:105990001C68B34A012CB34B0CD118680221A0F546
:1059A000C5301160A0F5A87001F028FD9CA3D3E9D3
:1059B00000230BE018680121A0F5C5301160A0F5A7
:1059C000A87001F01BFD98A3D3E9002301F0B6FEF7
:1059D00002F044F8814601F033FD01F03DFB02F096
:1059E0001DF8C7B23770384602F042F90146484602
:1059F00002F088F84FF08E4102F08EF901F020FDA0
:105A0000994B002201F0BEFB01F026FB02F006F8E4
:105A100080B27080000140EAC747944B47F090473E
:105A2000012C1F60A5F5966005D101F0E7FC7CA371
:105A3000D3E9002304E001F0E1FC7BA3D3E90023D8
:105A400001F07CFE02F00AF8074601F0F9FC01F0D3
:105A500003FB01F0E3FFC5B23571284602F008F9F7
:105A60000146384602F04EF84FF08E4102F054F9EC
:105A700001F0E6FC7C4B002201F084FB01F0ECFA23
:105A800001F0CCFF80B2F080000140EAC545784BC0
:105A900045F0804508F1FF381D60B8F1030F56D876
:105AA000DFE808F002101F442B25B5FBF4F5ED04E8
:105AB00045F010050D27DFF8E091DFF8E081DFF811
:105AC000E0A149E01725B5FBF4F5ED0445F00055DC
:105AD00045F0700540F29D37DFF8C891DFF8C881C6
